{
  "_format": "hh-sol-artifact-1",
  "contractName": "NFT",
  "sourceName": "contracts/NFT.sol",
  "abi": [
    {
      "inputs": [],
      "stateMutability": "nonpayable",
      "type": "constructor"
    },
    {
      "anonymous": false,
      "inputs": [
        {
          "indexed": true,
          "internalType": "address",
          "name": "account",
          "type": "address"
        },
        {
          "indexed": true,
          "internalType": "address",
          "name": "operator",
          "type": "address"
        },
        {
          "indexed": false,
          "internalType": "bool",
          "name": "approved",
          "type": "bool"
        }
      ],
      "name": "ApprovalForAll",
      "type": "event"
    },
    {
      "anonymous": false,
      "inputs": [
        {
          "indexed": true,
          "internalType": "address",
          "name": "previousOwner",
          "type": "address"
        },
        {
          "indexed": true,
          "internalType": "address",
          "name": "newOwner",
          "type": "address"
        }
      ],
      "name": "OwnershipTransferred",
      "type": "event"
    },
    {
      "anonymous": false,
      "inputs": [
        {
          "indexed": true,
          "internalType": "address",
          "name": "operator",
          "type": "address"
        },
        {
          "indexed": true,
          "internalType": "address",
          "name": "from",
          "type": "address"
        },
        {
          "indexed": true,
          "internalType": "address",
          "name": "to",
          "type": "address"
        },
        {
          "indexed": false,
          "internalType": "uint256[]",
          "name": "ids",
          "type": "uint256[]"
        },
        {
          "indexed": false,
          "internalType": "uint256[]",
          "name": "values",
          "type": "uint256[]"
        }
      ],
      "name": "TransferBatch",
      "type": "event"
    },
    {
      "anonymous": false,
      "inputs": [
        {
          "indexed": true,
          "internalType": "address",
          "name": "operator",
          "type": "address"
        },
        {
          "indexed": true,
          "internalType": "address",
          "name": "from",
          "type": "address"
        },
        {
          "indexed": true,
          "internalType": "address",
          "name": "to",
          "type": "address"
        },
        {
          "indexed": false,
          "internalType": "uint256",
          "name": "id",
          "type": "uint256"
        },
        {
          "indexed": false,
          "internalType": "uint256",
          "name": "value",
          "type": "uint256"
        }
      ],
      "name": "TransferSingle",
      "type": "event"
    },
    {
      "anonymous": false,
      "inputs": [
        {
          "indexed": false,
          "internalType": "string",
          "name": "value",
          "type": "string"
        },
        {
          "indexed": true,
          "internalType": "uint256",
          "name": "id",
          "type": "uint256"
        }
      ],
      "name": "URI",
      "type": "event"
    },
    {
      "inputs": [
        {
          "internalType": "address",
          "name": "account",
          "type": "address"
        },
        {
          "internalType": "uint256",
          "name": "id",
          "type": "uint256"
        }
      ],
      "name": "balanceOf",
      "outputs": [
        {
          "internalType": "uint256",
          "name": "",
          "type": "uint256"
        }
      ],
      "stateMutability": "view",
      "type": "function"
    },
    {
      "inputs": [
        {
          "internalType": "address[]",
          "name": "accounts",
          "type": "address[]"
        },
        {
          "internalType": "uint256[]",
          "name": "ids",
          "type": "uint256[]"
        }
      ],
      "name": "balanceOfBatch",
      "outputs": [
        {
          "internalType": "uint256[]",
          "name": "",
          "type": "uint256[]"
        }
      ],
      "stateMutability": "view",
      "type": "function"
    },
    {
      "inputs": [
        {
          "internalType": "uint256",
          "name": "_id",
          "type": "uint256"
        },
        {
          "internalType": "uint256",
          "name": "_amount",
          "type": "uint256"
        }
      ],
      "name": "burn",
      "outputs": [],
      "stateMutability": "nonpayable",
      "type": "function"
    },
    {
      "inputs": [
        {
          "internalType": "uint256[]",
          "name": "_ids",
          "type": "uint256[]"
        },
        {
          "internalType": "uint256[]",
          "name": "_amounts",
          "type": "uint256[]"
        }
      ],
      "name": "burnBatch",
      "outputs": [],
      "stateMutability": "nonpayable",
      "type": "function"
    },
    {
      "inputs": [
        {
          "internalType": "address",
          "name": "_from",
          "type": "address"
        },
        {
          "internalType": "uint256[]",
          "name": "_burnIds",
          "type": "uint256[]"
        },
        {
          "internalType": "uint256[]",
          "name": "_burnAmounts",
          "type": "uint256[]"
        },
        {
          "internalType": "uint256[]",
          "name": "_mintIds",
          "type": "uint256[]"
        },
        {
          "internalType": "uint256[]",
          "name": "_mintAmounts",
          "type": "uint256[]"
        }
      ],
      "name": "burnForMint",
      "outputs": [],
      "stateMutability": "nonpayable",
      "type": "function"
    },
    {
      "inputs": [
        {
          "internalType": "address",
          "name": "account",
          "type": "address"
        },
        {
          "internalType": "address",
          "name": "operator",
          "type": "address"
        }
      ],
      "name": "isApprovedForAll",
      "outputs": [
        {
          "internalType": "bool",
          "name": "",
          "type": "bool"
        }
      ],
      "stateMutability": "view",
      "type": "function"
    },
    {
      "inputs": [],
      "name": "name",
      "outputs": [
        {
          "internalType": "string",
          "name": "",
          "type": "string"
        }
      ],
      "stateMutability": "view",
      "type": "function"
    },
    {
      "inputs": [
        {
          "internalType": "uint256[]",
          "name": "ids",
          "type": "uint256[]"
        },
        {
          "internalType": "uint256[]",
          "name": "amounts",
          "type": "uint256[]"
        },
        {
          "internalType": "string[]",
          "name": "ipfsHashes",
          "type": "string[]"
        }
      ],
      "name": "newBatch",
      "outputs": [],
      "stateMutability": "nonpayable",
      "type": "function"
    },
    {
      "inputs": [],
      "name": "owner",
      "outputs": [
        {
          "internalType": "address",
          "name": "",
          "type": "address"
        }
      ],
      "stateMutability": "view",
      "type": "function"
    },
    {
      "inputs": [],
      "name": "renounceOwnership",
      "outputs": [],
      "stateMutability": "nonpayable",
      "type": "function"
    },
    {
      "inputs": [
        {
          "internalType": "address",
          "name": "from",
          "type": "address"
        },
        {
          "internalType": "address",
          "name": "to",
          "type": "address"
        },
        {
          "internalType": "uint256[]",
          "name": "ids",
          "type": "uint256[]"
        },
        {
          "internalType": "uint256[]",
          "name": "amounts",
          "type": "uint256[]"
        },
        {
          "internalType": "bytes",
          "name": "data",
          "type": "bytes"
        }
      ],
      "name": "safeBatchTransferFrom",
      "outputs": [],
      "stateMutability": "nonpayable",
      "type": "function"
    },
    {
      "inputs": [
        {
          "internalType": "address",
          "name": "from",
          "type": "address"
        },
        {
          "internalType": "address",
          "name": "to",
          "type": "address"
        },
        {
          "internalType": "uint256",
          "name": "id",
          "type": "uint256"
        },
        {
          "internalType": "uint256",
          "name": "amount",
          "type": "uint256"
        },
        {
          "internalType": "bytes",
          "name": "data",
          "type": "bytes"
        }
      ],
      "name": "safeTransferFrom",
      "outputs": [],
      "stateMutability": "nonpayable",
      "type": "function"
    },
    {
      "inputs": [
        {
          "internalType": "address",
          "name": "operator",
          "type": "address"
        },
        {
          "internalType": "bool",
          "name": "approved",
          "type": "bool"
        }
      ],
      "name": "setApprovalForAll",
      "outputs": [],
      "stateMutability": "nonpayable",
      "type": "function"
    },
    {
      "inputs": [
        {
          "internalType": "bytes4",
          "name": "interfaceId",
          "type": "bytes4"
        }
      ],
      "name": "supportsInterface",
      "outputs": [
        {
          "internalType": "bool",
          "name": "",
          "type": "bool"
        }
      ],
      "stateMutability": "view",
      "type": "function"
    },
    {
      "inputs": [],
      "name": "symbol",
      "outputs": [
        {
          "internalType": "string",
          "name": "",
          "type": "string"
        }
      ],
      "stateMutability": "view",
      "type": "function"
    },
    {
      "inputs": [
        {
          "internalType": "uint256",
          "name": "",
          "type": "uint256"
        }
      ],
      "name": "tokenURI",
      "outputs": [
        {
          "internalType": "string",
          "name": "",
          "type": "string"
        }
      ],
      "stateMutability": "view",
      "type": "function"
    },
    {
      "inputs": [
        {
          "internalType": "address",
          "name": "newOwner",
          "type": "address"
        }
      ],
      "name": "transferOwnership",
      "outputs": [],
      "stateMutability": "nonpayable",
      "type": "function"
    },
    {
      "inputs": [
        {
          "internalType": "uint256",
          "name": "_id",
          "type": "uint256"
        }
      ],
      "name": "uri",
      "outputs": [
        {
          "internalType": "string",
          "name": "",
          "type": "string"
        }
      ],
      "stateMutability": "view",
      "type": "function"
    }
  ],
  "bytecode": "0x60806040523480156200001157600080fd5b50604051806020016040528060008152506200003381620000e860201b60201c565b506200005462000048620000fd60201b60201c565b6200010560201b60201c565b6040518060400160405280600e81526020017f526f626f742044726f70204e4654000000000000000000000000000000000000815250600490816200009a919062000445565b506040518060400160405280600781526020017f5244284e4654290000000000000000000000000000000000000000000000000081525060059081620000e1919062000445565b506200052c565b8060029081620000f9919062000445565b5050565b600033905090565b6000600360009054906101000a900473ffffffffffffffffffffffffffffffffffffffff16905081600360006101000a81548173ffffffffffffffffffffffffffffffffffffffff021916908373ffffffffffffffffffffffffffffffffffffffff1602179055508173ffffffffffffffffffffffffffffffffffffffff168173ffffffffffffffffffffffffffffffffffffffff167f8be0079c531659141344cd1fd0a4f28419497f9722a3daafe3b4186f6b6457e060405160405180910390a35050565b600081519050919050565b7f4e487b7100000000000000000000000000000000000000000000000000000000600052604160045260246000fd5b7f4e487b7100000000000000000000000000000000000000000000000000000000600052602260045260246000fd5b600060028204905060018216806200024d57607f821691505b60208210810362000263576200026262000205565b5b50919050565b60008190508160005260206000209050919050565b60006020601f8301049050919050565b600082821b905092915050565b600060088302620002cd7fffffffffffffffffffffffffffffffffffffffffffffffffffffffffffffffff826200028e565b620002d986836200028e565b95508019841693508086168417925050509392505050565b6000819050919050565b6000819050919050565b600062000326620003206200031a84620002f1565b620002fb565b620002f1565b9050919050565b6000819050919050565b620003428362000305565b6200035a62000351826200032d565b8484546200029b565b825550505050565b600090565b6200037162000362565b6200037e81848462000337565b505050565b5b81811015620003a6576200039a60008262000367565b60018101905062000384565b5050565b601f821115620003f557620003bf8162000269565b620003ca846200027e565b81016020851015620003da578190505b620003f2620003e9856200027e565b83018262000383565b50505b505050565b600082821c905092915050565b60006200041a60001984600802620003fa565b1980831691505092915050565b600062000435838362000407565b9150826002028217905092915050565b6200045082620001cb565b67ffffffffffffffff8111156200046c576200046b620001d6565b5b62000478825462000234565b62000485828285620003aa565b600060209050601f831160018114620004bd5760008415620004a8578287015190505b620004b4858262000427565b86555062000524565b601f198416620004cd8662000269565b60005b82811015620004f757848901518255600182019150602085019450602081019050620004d0565b8683101562000517578489015162000513601f89168262000407565b8355505b6001600288020188555050505b505050505050565b613c47806200053c6000396000f3fe608060405234801561001057600080fd5b50600436106101155760003560e01c80638da5cb5b116100a2578063c87b56dd11610071578063c87b56dd146102ca578063e985e9c5146102fa578063ebb7e1121461032a578063f242432a14610346578063f2fde38b1461036257610115565b80638da5cb5b1461025657806395d89b4114610274578063a22cb46514610292578063b390c0ab146102ae57610115565b80632eb2c2d6116100e95780632eb2c2d6146101c85780634e1273f4146101e4578063510f410414610214578063715018a61461023057806383ca4b6f1461023a57610115565b8062fdd58e1461011a57806301ffc9a71461014a57806306fdde031461017a5780630e89341c14610198575b600080fd5b610134600480360381019061012f91906121ba565b61037e565b6040516101419190612209565b60405180910390f35b610164600480360381019061015f919061227c565b610446565b60405161017191906122c4565b60405180910390f35b610182610528565b60405161018f919061236f565b60405180910390f35b6101b260048036038101906101ad9190612391565b6105b6565b6040516101bf919061236f565b60405180910390f35b6101e260048036038101906101dd91906125bb565b61065b565b005b6101fe60048036038101906101f9919061274d565b6106fc565b60405161020b9190612883565b60405180910390f35b61022e600480360381019061022991906128a5565b610815565b005b61023861084a565b005b610254600480360381019061024f9190612990565b61085e565b005b61025e61086d565b60405161026b9190612a17565b60405180910390f35b61027c610897565b604051610289919061236f565b60405180910390f35b6102ac60048036038101906102a79190612a5e565b610925565b005b6102c860048036038101906102c39190612a9e565b61093b565b005b6102e460048036038101906102df9190612391565b61094a565b6040516102f1919061236f565b60405180910390f35b610314600480360381019061030f9190612ade565b6109ea565b60405161032191906122c4565b60405180910390f35b610344600480360381019061033f9190612ca0565b610a7e565b005b610360600480360381019061035b9190612d47565b610b07565b005b61037c60048036038101906103779190612dde565b610ba8565b005b60008073ffffffffffffffffffffffffffffffffffffffff168373ffffffffffffffffffffffffffffffffffffffff16036103ee576040517f08c379a00000000000000000000000000000000000000000000000000000000081526004016103e590612e7d565b60405180910390fd5b60008083815260200190815260200160002060008473ffffffffffffffffffffffffffffffffffffffff1673ffffffffffffffffffffffffffffffffffffffff16815260200190815260200160002054905092915050565b60007fd9b67a26000000000000000000000000000000000000000000000000000000007bffffffffffffffffffffffffffffffffffffffffffffffffffffffff1916827bffffffffffffffffffffffffffffffffffffffffffffffffffffffff1916148061051157507f0e89341c000000000000000000000000000000000000000000000000000000007bffffffffffffffffffffffffffffffffffffffffffffffffffffffff1916827bffffffffffffffffffffffffffffffffffffffffffffffffffffffff1916145b80610521575061052082610c2b565b5b9050919050565b6004805461053590612ecc565b80601f016020809104026020016040519081016040528092919081815260200182805461056190612ecc565b80156105ae5780601f10610583576101008083540402835291602001916105ae565b820191906000526020600020905b81548152906001019060200180831161059157829003601f168201915b505050505081565b60606006600083815260200190815260200160002080546105d690612ecc565b80601f016020809104026020016040519081016040528092919081815260200182805461060290612ecc565b801561064f5780601f106106245761010080835404028352916020019161064f565b820191906000526020600020905b81548152906001019060200180831161063257829003601f168201915b50505050509050919050565b610663610c95565b73ffffffffffffffffffffffffffffffffffffffff168573ffffffffffffffffffffffffffffffffffffffff1614806106a957506106a8856106a3610c95565b6109ea565b5b6106e8576040517f08c379a00000000000000000000000000000000000000000000000000000000081526004016106df90612f6f565b60405180910390fd5b6106f58585858585610c9d565b5050505050565b60608151835114610742576040517f08c379a000000000000000000000000000000000000000000000000000000000815260040161073990613001565b60405180910390fd5b6000835167ffffffffffffffff81111561075f5761075e6123c3565b5b60405190808252806020026020018201604052801561078d5781602001602082028036833780820191505090505b50905060005b845181101561080a576107da8582815181106107b2576107b1613021565b5b60200260200101518583815181106107cd576107cc613021565b5b602002602001015161037e565b8282815181106107ed576107ec613021565b5b602002602001018181525050806108039061307f565b9050610793565b508091505092915050565b61081d610fbe565b61082885858561103c565b6108438583836040518060200160405280600081525061130a565b5050505050565b610852610fbe565b61085c6000611536565b565b61086933838361103c565b5050565b6000600360009054906101000a900473ffffffffffffffffffffffffffffffffffffffff16905090565b600580546108a490612ecc565b80601f01602080910402602001604051908101604052809291908181526020018280546108d090612ecc565b801561091d5780601f106108f25761010080835404028352916020019161091d565b820191906000526020600020905b81548152906001019060200180831161090057829003601f168201915b505050505081565b610937610930610c95565b83836115fc565b5050565b610946338383611768565b5050565b6006602052806000526040600020600091509050805461096990612ecc565b80601f016020809104026020016040519081016040528092919081815260200182805461099590612ecc565b80156109e25780601f106109b7576101008083540402835291602001916109e2565b820191906000526020600020905b8154815290600101906020018083116109c557829003601f168201915b505050505081565b6000600160008473ffffffffffffffffffffffffffffffffffffffff1673ffffffffffffffffffffffffffffffffffffffff16815260200190815260200160002060008373ffffffffffffffffffffffffffffffffffffffff1673ffffffffffffffffffffffffffffffffffffffff16815260200190815260200160002060009054906101000a900460ff16905092915050565b610a988383604051806020016040528060008152506119ae565b60005b8351811015610b01576000848281518110610ab957610ab8613021565b5b602002602001015190506000838381518110610ad857610ad7613021565b5b60200260200101519050610aec82826119bf565b50508080610af99061307f565b915050610a9b565b50505050565b610b0f610c95565b73ffffffffffffffffffffffffffffffffffffffff168573ffffffffffffffffffffffffffffffffffffffff161480610b555750610b5485610b4f610c95565b6109ea565b5b610b94576040517f08c379a0000000000000000000000000000000000000000000000000000000008152600401610b8b90612f6f565b60405180910390fd5b610ba18585858585611a1c565b5050505050565b610bb0610fbe565b600073ffffffffffffffffffffffffffffffffffffffff168173ffffffffffffffffffffffffffffffffffffffff1603610c1f576040517f08c379a0000000000000000000000000000000000000000000000000000000008152600401610c1690613139565b60405180910390fd5b610c2881611536565b50565b60007f01ffc9a7000000000000000000000000000000000000000000000000000000007bffffffffffffffffffffffffffffffffffffffffffffffffffffffff1916827bffffffffffffffffffffffffffffffffffffffffffffffffffffffff1916149050919050565b600033905090565b8151835114610ce1576040517f08c379a0000000000000000000000000000000000000000000000000000000008152600401610cd8906131cb565b60405180910390fd5b600073ffffffffffffffffffffffffffffffffffffffff168473ffffffffffffffffffffffffffffffffffffffff1603610d50576040517f08c379a0000000000000000000000000000000000000000000000000000000008152600401610d479061325d565b60405180910390fd5b6000610d5a610c95565b9050610d6a818787878787611cb7565b60005b8451811015610f1b576000858281518110610d8b57610d8a613021565b5b602002602001015190506000858381518110610daa57610da9613021565b5b60200260200101519050600080600084815260200190815260200160002060008b73ffffffffffffffffffffffffffffffffffffffff1673ffffffffffffffffffffffffffffffffffffffff16815260200190815260200160002054905081811015610e4b576040517f08c379a0000000000000000000000000000000000000000000000000000000008152600401610e42906132ef565b60405180910390fd5b81810360008085815260200190815260200160002060008c73ffffffffffffffffffffffffffffffffffffffff1673ffffffffffffffffffffffffffffffffffffffff168152602001908152602001600020819055508160008085815260200190815260200160002060008b73ffffffffffffffffffffffffffffffffffffffff1673ffffffffffffffffffffffffffffffffffffffff1681526020019081526020016000206000828254610f00919061330f565b9250508190555050505080610f149061307f565b9050610d6d565b508473ffffffffffffffffffffffffffffffffffffffff168673ffffffffffffffffffffffffffffffffffffffff168273ffffffffffffffffffffffffffffffffffffffff167f4a39dc06d4c0dbc64b70af90fd698a233a518aa5d07e595d983b8c0526c8f7fb8787604051610f92929190613343565b60405180910390a4610fa8818787878787611cbf565b610fb6818787878787611cc7565b505050505050565b610fc6610c95565b73ffffffffffffffffffffffffffffffffffffffff16610fe461086d565b73ffffffffffffffffffffffffffffffffffffffff161461103a576040517f08c379a0000000000000000000000000000000000000000000000000000000008152600401611031906133c6565b60405180910390fd5b565b600073ffffffffffffffffffffffffffffffffffffffff168373ffffffffffffffffffffffffffffffffffffffff16036110ab576040517f08c379a00000000000000000000000000000000000000000000000000000000081526004016110a290613458565b60405180910390fd5b80518251146110ef576040517f08c379a00000000000000000000000000000000000000000000000000000000081526004016110e6906131cb565b60405180910390fd5b60006110f9610c95565b905061111981856000868660405180602001604052806000815250611cb7565b60005b835181101561126657600084828151811061113a57611139613021565b5b60200260200101519050600084838151811061115957611158613021565b5b60200260200101519050600080600084815260200190815260200160002060008973ffffffffffffffffffffffffffffffffffffffff1673ffffffffffffffffffffffffffffffffffffffff168152602001908152602001600020549050818110156111fa576040517f08c379a00000000000000000000000000000000000000000000000000000000081526004016111f1906134ea565b60405180910390fd5b81810360008085815260200190815260200160002060008a73ffffffffffffffffffffffffffffffffffffffff1673ffffffffffffffffffffffffffffffffffffffff16815260200190815260200160002081905550505050808061125e9061307f565b91505061111c565b50600073ffffffffffffffffffffffffffffffffffffffff168473ffffffffffffffffffffffffffffffffffffffff168273ffffffffffffffffffffffffffffffffffffffff167f4a39dc06d4c0dbc64b70af90fd698a233a518aa5d07e595d983b8c0526c8f7fb86866040516112de929190613343565b60405180910390a461130481856000868660405180602001604052806000815250611cbf565b50505050565b600073ffffffffffffffffffffffffffffffffffffffff168473ffffffffffffffffffffffffffffffffffffffff1603611379576040517f08c379a00000000000000000000000000000000000000000000000000000000081526004016113709061357c565b60405180910390fd5b81518351146113bd576040517f08c379a00000000000000000000000000000000000000000000000000000000081526004016113b4906131cb565b60405180910390fd5b60006113c7610c95565b90506113d881600087878787611cb7565b60005b8451811015611491578381815181106113f7576113f6613021565b5b602002602001015160008087848151811061141557611414613021565b5b6020026020010151815260200190815260200160002060008873ffffffffffffffffffffffffffffffffffffffff1673ffffffffffffffffffffffffffffffffffffffff1681526020019081526020016000206000828254611477919061330f565b9250508190555080806114899061307f565b9150506113db565b508473ffffffffffffffffffffffffffffffffffffffff16600073ffffffffffffffffffffffffffffffffffffffff168273ffffffffffffffffffffffffffffffffffffffff167f4a39dc06d4c0dbc64b70af90fd698a233a518aa5d07e595d983b8c0526c8f7fb8787604051611509929190613343565b60405180910390a461152081600087878787611cbf565b61152f81600087878787611cc7565b5050505050565b6000600360009054906101000a900473ffffffffffffffffffffffffffffffffffffffff16905081600360006101000a81548173ffffffffffffffffffffffffffffffffffffffff021916908373ffffffffffffffffffffffffffffffffffffffff1602179055508173ffffffffffffffffffffffffffffffffffffffff168173ffffffffffffffffffffffffffffffffffffffff167f8be0079c531659141344cd1fd0a4f28419497f9722a3daafe3b4186f6b6457e060405160405180910390a35050565b8173ffffffffffffffffffffffffffffffffffffffff168373ffffffffffffffffffffffffffffffffffffffff160361166a576040517f08c379a00000000000000000000000000000000000000000000000000000000081526004016116619061360e565b60405180910390fd5b80600160008573ffffffffffffffffffffffffffffffffffffffff1673ffffffffffffffffffffffffffffffffffffffff16815260200190815260200160002060008473ffffffffffffffffffffffffffffffffffffffff1673ffffffffffffffffffffffffffffffffffffffff16815260200190815260200160002060006101000a81548160ff0219169083151502179055508173ffffffffffffffffffffffffffffffffffffffff168373ffffffffffffffffffffffffffffffffffffffff167f17307eab39ab6107e8899845ad3d59bd9653f200f220920489ca2b5937696c318360405161175b91906122c4565b60405180910390a3505050565b600073ffffffffffffffffffffffffffffffffffffffff168373ffffffffffffffffffffffffffffffffffffffff16036117d7576040517f08c379a00000000000000000000000000000000000000000000000000000000081526004016117ce90613458565b60405180910390fd5b60006117e1610c95565b905060006117ee84611e9e565b905060006117fb84611e9e565b905061181b83876000858560405180602001604052806000815250611cb7565b600080600087815260200190815260200160002060008873ffffffffffffffffffffffffffffffffffffffff1673ffffffffffffffffffffffffffffffffffffffff168152602001908152602001600020549050848110156118b2576040517f08c379a00000000000000000000000000000000000000000000000000000000081526004016118a9906134ea565b60405180910390fd5b84810360008088815260200190815260200160002060008973ffffffffffffffffffffffffffffffffffffffff1673ffffffffffffffffffffffffffffffffffffffff16815260200190815260200160002081905550600073ffffffffffffffffffffffffffffffffffffffff168773ffffffffffffffffffffffffffffffffffffffff168573ffffffffffffffffffffffffffffffffffffffff167fc3d58168c5ae7397731d063d5bbf3d657854427343f4c083240f7aacaa2d0f62898960405161197f92919061362e565b60405180910390a46119a584886000868660405180602001604052806000815250611cbf565b50505050505050565b6119ba3384848461130a565b505050565b806006600084815260200190815260200160002090816119df9190613803565b50817f6bb7ff708619ba0610cba295a58592e0451dee2622938c8755667688daf3529b82604051611a10919061236f565b60405180910390a25050565b600073ffffffffffffffffffffffffffffffffffffffff168473ffffffffffffffffffffffffffffffffffffffff1603611a8b576040517f08c379a0000000000000000000000000000000000000000000000000000000008152600401611a829061325d565b60405180910390fd5b6000611a95610c95565b90506000611aa285611e9e565b90506000611aaf85611e9e565b9050611abf838989858589611cb7565b600080600088815260200190815260200160002060008a73ffffffffffffffffffffffffffffffffffffffff1673ffffffffffffffffffffffffffffffffffffffff16815260200190815260200160002054905085811015611b56576040517f08c379a0000000000000000000000000000000000000000000000000000000008152600401611b4d906132ef565b60405180910390fd5b85810360008089815260200190815260200160002060008b73ffffffffffffffffffffffffffffffffffffffff1673ffffffffffffffffffffffffffffffffffffffff168152602001908152602001600020819055508560008089815260200190815260200160002060008a73ffffffffffffffffffffffffffffffffffffffff1673ffffffffffffffffffffffffffffffffffffffff1681526020019081526020016000206000828254611c0b919061330f565b925050819055508773ffffffffffffffffffffffffffffffffffffffff168973ffffffffffffffffffffffffffffffffffffffff168573ffffffffffffffffffffffffffffffffffffffff167fc3d58168c5ae7397731d063d5bbf3d657854427343f4c083240f7aacaa2d0f628a8a604051611c8892919061362e565b60405180910390a4611c9e848a8a86868a611cbf565b611cac848a8a8a8a8a611f18565b505050505050505050565b505050505050565b505050505050565b611ce68473ffffffffffffffffffffffffffffffffffffffff166120ef565b15611e96578373ffffffffffffffffffffffffffffffffffffffff1663bc197c8187878686866040518663ffffffff1660e01b8152600401611d2c95949392919061392a565b6020604051808303816000875af1925050508015611d6857506040513d601f19601f82011682018060405250810190611d6591906139a7565b60015b611e0d57611d746139e1565b806308c379a003611dd05750611d88613a03565b80611d935750611dd2565b806040517f08c379a0000000000000000000000000000000000000000000000000000000008152600401611dc7919061236f565b60405180910390fd5b505b6040517f08c379a0000000000000000000000000000000000000000000000000000000008152600401611e0490613b05565b60405180910390fd5b63bc197c8160e01b7bffffffffffffffffffffffffffffffffffffffffffffffffffffffff1916817bffffffffffffffffffffffffffffffffffffffffffffffffffffffff191614611e94576040517f08c379a0000000000000000000000000000000000000000000000000000000008152600401611e8b90613b97565b60405180910390fd5b505b505050505050565b60606000600167ffffffffffffffff811115611ebd57611ebc6123c3565b5b604051908082528060200260200182016040528015611eeb5781602001602082028036833780820191505090505b5090508281600081518110611f0357611f02613021565b5b60200260200101818152505080915050919050565b611f378473ffffffffffffffffffffffffffffffffffffffff166120ef565b156120e7578373ffffffffffffffffffffffffffffffffffffffff1663f23a6e6187878686866040518663ffffffff1660e01b8152600401611f7d959493929190613bb7565b6020604051808303816000875af1925050508015611fb957506040513d601f19601f82011682018060405250810190611fb691906139a7565b60015b61205e57611fc56139e1565b806308c379a0036120215750611fd9613a03565b80611fe45750612023565b806040517f08c379a0000000000000000000000000000000000000000000000000000000008152600401612018919061236f565b60405180910390fd5b505b6040517f08c379a000000000000000000000000000000000000000000000000000000000815260040161205590613b05565b60405180910390fd5b63f23a6e6160e01b7bffffffffffffffffffffffffffffffffffffffffffffffffffffffff1916817bffffffffffffffffffffffffffffffffffffffffffffffffffffffff1916146120e5576040517f08c379a00000000000000000000000000000000000000000000000000000000081526004016120dc90613b97565b60405180910390fd5b505b505050505050565b6000808273ffffffffffffffffffffffffffffffffffffffff163b119050919050565b6000604051905090565b600080fd5b600080fd5b600073ffffffffffffffffffffffffffffffffffffffff82169050919050565b600061215182612126565b9050919050565b61216181612146565b811461216c57600080fd5b50565b60008135905061217e81612158565b92915050565b6000819050919050565b61219781612184565b81146121a257600080fd5b50565b6000813590506121b48161218e565b92915050565b600080604083850312156121d1576121d061211c565b5b60006121df8582860161216f565b92505060206121f0858286016121a5565b9150509250929050565b61220381612184565b82525050565b600060208201905061221e60008301846121fa565b92915050565b60007fffffffff0000000000000000000000000000000000000000000000000000000082169050919050565b61225981612224565b811461226457600080fd5b50565b60008135905061227681612250565b92915050565b6000602082840312156122925761229161211c565b5b60006122a084828501612267565b91505092915050565b60008115159050919050565b6122be816122a9565b82525050565b60006020820190506122d960008301846122b5565b92915050565b600081519050919050565b600082825260208201905092915050565b60005b838110156123195780820151818401526020810190506122fe565b60008484015250505050565b6000601f19601f8301169050919050565b6000612341826122df565b61234b81856122ea565b935061235b8185602086016122fb565b61236481612325565b840191505092915050565b600060208201905081810360008301526123898184612336565b905092915050565b6000602082840312156123a7576123a661211c565b5b60006123b5848285016121a5565b91505092915050565b600080fd5b7f4e487b7100000000000000000000000000000000000000000000000000000000600052604160045260246000fd5b6123fb82612325565b810181811067ffffffffffffffff8211171561241a576124196123c3565b5b80604052505050565b600061242d612112565b905061243982826123f2565b919050565b600067ffffffffffffffff821115612459576124586123c3565b5b602082029050602081019050919050565b600080fd5b600061248261247d8461243e565b612423565b905080838252602082019050602084028301858111156124a5576124a461246a565b5b835b818110156124ce57806124ba88826121a5565b8452602084019350506020810190506124a7565b5050509392505050565b600082601f8301126124ed576124ec6123be565b5b81356124fd84826020860161246f565b91505092915050565b600080fd5b600067ffffffffffffffff821115612526576125256123c3565b5b61252f82612325565b9050602081019050919050565b82818337600083830152505050565b600061255e6125598461250b565b612423565b90508281526020810184848401111561257a57612579612506565b5b61258584828561253c565b509392505050565b600082601f8301126125a2576125a16123be565b5b81356125b284826020860161254b565b91505092915050565b600080600080600060a086880312156125d7576125d661211c565b5b60006125e58882890161216f565b95505060206125f68882890161216f565b945050604086013567ffffffffffffffff81111561261757612616612121565b5b612623888289016124d8565b935050606086013567ffffffffffffffff81111561264457612643612121565b5b612650888289016124d8565b925050608086013567ffffffffffffffff81111561267157612670612121565b5b61267d8882890161258d565b9150509295509295909350565b600067ffffffffffffffff8211156126a5576126a46123c3565b5b602082029050602081019050919050565b60006126c96126c48461268a565b612423565b905080838252602082019050602084028301858111156126ec576126eb61246a565b5b835b818110156127155780612701888261216f565b8452602084019350506020810190506126ee565b5050509392505050565b600082601f830112612734576127336123be565b5b81356127448482602086016126b6565b91505092915050565b600080604083850312156127645761276361211c565b5b600083013567ffffffffffffffff81111561278257612781612121565b5b61278e8582860161271f565b925050602083013567ffffffffffffffff8111156127af576127ae612121565b5b6127bb858286016124d8565b9150509250929050565b600081519050919050565b600082825260208201905092915050565b6000819050602082019050919050565b6127fa81612184565b82525050565b600061280c83836127f1565b60208301905092915050565b6000602082019050919050565b6000612830826127c5565b61283a81856127d0565b9350612845836127e1565b8060005b8381101561287657815161285d8882612800565b975061286883612818565b925050600181019050612849565b5085935050505092915050565b6000602082019050818103600083015261289d8184612825565b905092915050565b600080600080600060a086880312156128c1576128c061211c565b5b60006128cf8882890161216f565b955050602086013567ffffffffffffffff8111156128f0576128ef612121565b5b6128fc888289016124d8565b945050604086013567ffffffffffffffff81111561291d5761291c612121565b5b612929888289016124d8565b935050606086013567ffffffffffffffff81111561294a57612949612121565b5b612956888289016124d8565b925050608086013567ffffffffffffffff81111561297757612976612121565b5b612983888289016124d8565b9150509295509295909350565b600080604083850312156129a7576129a661211c565b5b600083013567ffffffffffffffff8111156129c5576129c4612121565b5b6129d1858286016124d8565b925050602083013567ffffffffffffffff8111156129f2576129f1612121565b5b6129fe858286016124d8565b9150509250929050565b612a1181612146565b82525050565b6000602082019050612a2c6000830184612a08565b92915050565b612a3b816122a9565b8114612a4657600080fd5b50565b600081359050612a5881612a32565b92915050565b60008060408385031215612a7557612a7461211c565b5b6000612a838582860161216f565b9250506020612a9485828601612a49565b9150509250929050565b60008060408385031215612ab557612ab461211c565b5b6000612ac3858286016121a5565b9250506020612ad4858286016121a5565b9150509250929050565b60008060408385031215612af557612af461211c565b5b6000612b038582860161216f565b9250506020612b148582860161216f565b9150509250929050565b600067ffffffffffffffff821115612b3957612b386123c3565b5b602082029050602081019050919050565b600067ffffffffffffffff821115612b6557612b646123c3565b5b612b6e82612325565b9050602081019050919050565b6000612b8e612b8984612b4a565b612423565b905082815260208101848484011115612baa57612ba9612506565b5b612bb584828561253c565b509392505050565b600082601f830112612bd257612bd16123be565b5b8135612be2848260208601612b7b565b91505092915050565b6000612bfe612bf984612b1e565b612423565b90508083825260208201905060208402830185811115612c2157612c2061246a565b5b835b81811015612c6857803567ffffffffffffffff811115612c4657612c456123be565b5b808601612c538982612bbd565b85526020850194505050602081019050612c23565b5050509392505050565b600082601f830112612c8757612c866123be565b5b8135612c97848260208601612beb565b91505092915050565b600080600060608486031215612cb957612cb861211c565b5b600084013567ffffffffffffffff811115612cd757612cd6612121565b5b612ce3868287016124d8565b935050602084013567ffffffffffffffff811115612d0457612d03612121565b5b612d10868287016124d8565b925050604084013567ffffffffffffffff811115612d3157612d30612121565b5b612d3d86828701612c72565b9150509250925092565b600080600080600060a08688031215612d6357612d6261211c565b5b6000612d718882890161216f565b9550506020612d828882890161216f565b9450506040612d93888289016121a5565b9350506060612da4888289016121a5565b925050608086013567ffffffffffffffff811115612dc557612dc4612121565b5b612dd18882890161258d565b9150509295509295909350565b600060208284031215612df457612df361211c565b5b6000612e028482850161216f565b91505092915050565b7f455243313135353a2061646472657373207a65726f206973206e6f742061207660008201527f616c6964206f776e657200000000000000000000000000000000000000000000602082015250565b6000612e67602a836122ea565b9150612e7282612e0b565b604082019050919050565b60006020820190508181036000830152612e9681612e5a565b9050919050565b7f4e487b7100000000000000000000000000000000000000000000000000000000600052602260045260246000fd5b60006002820490506001821680612ee457607f821691505b602082108103612ef757612ef6612e9d565b5b50919050565b7f455243313135353a2063616c6c6572206973206e6f7420746f6b656e206f776e60008201527f6572206f7220617070726f766564000000000000000000000000000000000000602082015250565b6000612f59602e836122ea565b9150612f6482612efd565b604082019050919050565b60006020820190508181036000830152612f8881612f4c565b9050919050565b7f455243313135353a206163636f756e747320616e6420696473206c656e67746860008201527f206d69736d617463680000000000000000000000000000000000000000000000602082015250565b6000612feb6029836122ea565b9150612ff682612f8f565b604082019050919050565b6000602082019050818103600083015261301a81612fde565b9050919050565b7f4e487b7100000000000000000000000000000000000000000000000000000000600052603260045260246000fd5b7f4e487b7100000000000000000000000000000000000000000000000000000000600052601160045260246000fd5b600061308a82612184565b91507fffffffffffffffffffffffffffffffffffffffffffffffffffffffffffffffff82036130bc576130bb613050565b5b600182019050919050565b7f4f776e61626c653a206e6577206f776e657220697320746865207a65726f206160008201527f6464726573730000000000000000000000000000000000000000000000000000602082015250565b60006131236026836122ea565b915061312e826130c7565b604082019050919050565b6000602082019050818103600083015261315281613116565b9050919050565b7f455243313135353a2069647320616e6420616d6f756e7473206c656e6774682060008201527f6d69736d61746368000000000000000000000000000000000000000000000000602082015250565b60006131b56028836122ea565b91506131c082613159565b604082019050919050565b600060208201905081810360008301526131e4816131a8565b9050919050565b7f455243313135353a207472616e7366657220746f20746865207a65726f20616460008201527f6472657373000000000000000000000000000000000000000000000000000000602082015250565b60006132476025836122ea565b9150613252826131eb565b604082019050919050565b600060208201905081810360008301526132768161323a565b9050919050565b7f455243313135353a20696e73756666696369656e742062616c616e636520666f60008201527f72207472616e7366657200000000000000000000000000000000000000000000602082015250565b60006132d9602a836122ea565b91506132e48261327d565b604082019050919050565b60006020820190508181036000830152613308816132cc565b9050919050565b600061331a82612184565b915061332583612184565b925082820190508082111561333d5761333c613050565b5b92915050565b6000604082019050818103600083015261335d8185612825565b905081810360208301526133718184612825565b90509392505050565b7f4f776e61626c653a2063616c6c6572206973206e6f7420746865206f776e6572600082015250565b60006133b06020836122ea565b91506133bb8261337a565b602082019050919050565b600060208201905081810360008301526133df816133a3565b9050919050565b7f455243313135353a206275726e2066726f6d20746865207a65726f206164647260008201527f6573730000000000000000000000000000000000000000000000000000000000602082015250565b60006134426023836122ea565b915061344d826133e6565b604082019050919050565b6000602082019050818103600083015261347181613435565b9050919050565b7f455243313135353a206275726e20616d6f756e7420657863656564732062616c60008201527f616e636500000000000000000000000000000000000000000000000000000000602082015250565b60006134d46024836122ea565b91506134df82613478565b604082019050919050565b60006020820190508181036000830152613503816134c7565b9050919050565b7f455243313135353a206d696e7420746f20746865207a65726f2061646472657360008201527f7300000000000000000000000000000000000000000000000000000000000000602082015250565b60006135666021836122ea565b91506135718261350a565b604082019050919050565b6000602082019050818103600083015261359581613559565b9050919050565b7f455243313135353a2073657474696e6720617070726f76616c2073746174757360008201527f20666f722073656c660000000000000000000000000000000000000000000000602082015250565b60006135f86029836122ea565b91506136038261359c565b604082019050919050565b60006020820190508181036000830152613627816135eb565b9050919050565b600060408201905061364360008301856121fa565b61365060208301846121fa565b9392505050565b60008190508160005260206000209050919050565b60006020601f8301049050919050565b600082821b905092915050565b6000600883026136b97fffffffffffffffffffffffffffffffffffffffffffffffffffffffffffffffff8261367c565b6136c3868361367c565b95508019841693508086168417925050509392505050565b6000819050919050565b60006137006136fb6136f684612184565b6136db565b612184565b9050919050565b6000819050919050565b61371a836136e5565b61372e61372682613707565b848454613689565b825550505050565b600090565b613743613736565b61374e818484613711565b505050565b5b818110156137725761376760008261373b565b600181019050613754565b5050565b601f8211156137b75761378881613657565b6137918461366c565b810160208510156137a0578190505b6137b46137ac8561366c565b830182613753565b50505b505050565b600082821c905092915050565b60006137da600019846008026137bc565b1980831691505092915050565b60006137f383836137c9565b9150826002028217905092915050565b61380c826122df565b67ffffffffffffffff811115613825576138246123c3565b5b61382f8254612ecc565b61383a828285613776565b600060209050601f83116001811461386d576000841561385b578287015190505b61386585826137e7565b8655506138cd565b601f19841661387b86613657565b60005b828110156138a35784890151825560018201915060208501945060208101905061387e565b868310156138c057848901516138bc601f8916826137c9565b8355505b6001600288020188555050505b505050505050565b600081519050919050565b600082825260208201905092915050565b60006138fc826138d5565b61390681856138e0565b93506139168185602086016122fb565b61391f81612325565b840191505092915050565b600060a08201905061393f6000830188612a08565b61394c6020830187612a08565b818103604083015261395e8186612825565b905081810360608301526139728185612825565b9050818103608083015261398681846138f1565b90509695505050505050565b6000815190506139a181612250565b92915050565b6000602082840312156139bd576139bc61211c565b5b60006139cb84828501613992565b91505092915050565b60008160e01c9050919050565b600060033d1115613a005760046000803e6139fd6000516139d4565b90505b90565b600060443d10613a9057613a15612112565b60043d036004823e80513d602482011167ffffffffffffffff82111715613a3d575050613a90565b808201805167ffffffffffffffff811115613a5b5750505050613a90565b80602083010160043d038501811115613a78575050505050613a90565b613a87826020018501866123f2565b82955050505050505b90565b7f455243313135353a207472616e7366657220746f206e6f6e2d4552433131353560008201527f526563656976657220696d706c656d656e746572000000000000000000000000602082015250565b6000613aef6034836122ea565b9150613afa82613a93565b604082019050919050565b60006020820190508181036000830152613b1e81613ae2565b9050919050565b7f455243313135353a204552433131353552656365697665722072656a6563746560008201527f6420746f6b656e73000000000000000000000000000000000000000000000000602082015250565b6000613b816028836122ea565b9150613b8c82613b25565b604082019050919050565b60006020820190508181036000830152613bb081613b74565b9050919050565b600060a082019050613bcc6000830188612a08565b613bd96020830187612a08565b613be660408301866121fa565b613bf360608301856121fa565b8181036080830152613c0581846138f1565b9050969550505050505056fea26469706673582212206fc851f2c8bc7f1ac0327f0aa47a414dc5a6edf6cf9e234ff6f8dfed2ead9e3864736f6c63430008110033",
  "linkReferences": {},
  "deployedLinkReferences": {}
}