{
  "_format": "hh-sol-artifact-1",
  "contractName": "createAuctionContract",
  "sourceName": "contracts/CreateAuctionContract.sol",
  "abi": [
    {
      "inputs": [
        {
          "internalType": "string",
          "name": "_name",
          "type": "string"
        }
      ],
      "stateMutability": "nonpayable",
      "type": "constructor"
    },
    {
      "anonymous": false,
      "inputs": [
        {
          "indexed": false,
          "internalType": "uint256",
          "name": "auctionIndex",
          "type": "uint256"
        },
        {
          "indexed": false,
          "internalType": "uint256",
          "name": "nftId",
          "type": "uint256"
        },
        {
          "indexed": false,
          "internalType": "address",
          "name": "auctioneer",
          "type": "address"
        }
      ],
      "name": "claimedFunds",
      "type": "event"
    },
    {
      "anonymous": false,
      "inputs": [
        {
          "indexed": false,
          "internalType": "uint256",
          "name": "auctionIndex",
          "type": "uint256"
        },
        {
          "indexed": false,
          "internalType": "uint256",
          "name": "nftId",
          "type": "uint256"
        },
        {
          "indexed": false,
          "internalType": "address",
          "name": "winner",
          "type": "address"
        }
      ],
      "name": "claimedNFT",
      "type": "event"
    },
    {
      "anonymous": false,
      "inputs": [
        {
          "indexed": false,
          "internalType": "uint256",
          "name": "index",
          "type": "uint256"
        },
        {
          "indexed": false,
          "internalType": "address",
          "name": "createCubeContract",
          "type": "address"
        },
        {
          "indexed": false,
          "internalType": "address",
          "name": "weth9",
          "type": "address"
        },
        {
          "indexed": false,
          "internalType": "uint256",
          "name": "nftId",
          "type": "uint256"
        },
        {
          "indexed": false,
          "internalType": "address",
          "name": "auctioneer",
          "type": "address"
        },
        {
          "indexed": false,
          "internalType": "address",
          "name": "currentBidOwner",
          "type": "address"
        },
        {
          "indexed": false,
          "internalType": "uint256",
          "name": "currentBidPrice",
          "type": "uint256"
        },
        {
          "indexed": false,
          "internalType": "uint256",
          "name": "startAuctionTimestamp",
          "type": "uint256"
        },
        {
          "indexed": false,
          "internalType": "uint256",
          "name": "endAuctionTimestamp",
          "type": "uint256"
        },
        {
          "indexed": false,
          "internalType": "uint256",
          "name": "bidCount",
          "type": "uint256"
        }
      ],
      "name": "newAuctions",
      "type": "event"
    },
    {
      "anonymous": false,
      "inputs": [
        {
          "indexed": false,
          "internalType": "uint256",
          "name": "auctionIndex",
          "type": "uint256"
        },
        {
          "indexed": false,
          "internalType": "address",
          "name": "bidder",
          "type": "address"
        },
        {
          "indexed": false,
          "internalType": "uint256",
          "name": "newBid",
          "type": "uint256"
        }
      ],
      "name": "newBidonAuction",
      "type": "event"
    },
    {
      "anonymous": false,
      "inputs": [
        {
          "indexed": false,
          "internalType": "uint256",
          "name": "auctionIndex",
          "type": "uint256"
        },
        {
          "indexed": false,
          "internalType": "uint256",
          "name": "nftId",
          "type": "uint256"
        },
        {
          "indexed": false,
          "internalType": "address",
          "name": "auctioneer",
          "type": "address"
        }
      ],
      "name": "refundedNFT",
      "type": "event"
    },
    {
      "inputs": [
        {
          "internalType": "uint256",
          "name": "_auctionIndex",
          "type": "uint256"
        },
        {
          "internalType": "uint256",
          "name": "_newBid",
          "type": "uint256"
        }
      ],
      "name": "bid",
      "outputs": [
        {
          "internalType": "bool",
          "name": "",
          "type": "bool"
        }
      ],
      "stateMutability": "nonpayable",
      "type": "function"
    },
    {
      "inputs": [
        {
          "internalType": "uint256",
          "name": "_auctionIndex",
          "type": "uint256"
        }
      ],
      "name": "claimFunds",
      "outputs": [],
      "stateMutability": "nonpayable",
      "type": "function"
    },
    {
      "inputs": [
        {
          "internalType": "uint256",
          "name": "_auctionIndex",
          "type": "uint256"
        }
      ],
      "name": "claimNFT",
      "outputs": [],
      "stateMutability": "nonpayable",
      "type": "function"
    },
    {
      "inputs": [
        {
          "internalType": "uint256",
          "name": "_auctionIndex",
          "type": "uint256"
        }
      ],
      "name": "getCurrentBid",
      "outputs": [
        {
          "internalType": "uint256",
          "name": "",
          "type": "uint256"
        }
      ],
      "stateMutability": "view",
      "type": "function"
    },
    {
      "inputs": [
        {
          "internalType": "uint256",
          "name": "_auctionIndex",
          "type": "uint256"
        }
      ],
      "name": "getCurrentBidOwner",
      "outputs": [
        {
          "internalType": "address",
          "name": "",
          "type": "address"
        }
      ],
      "stateMutability": "view",
      "type": "function"
    },
    {
      "inputs": [],
      "name": "index",
      "outputs": [
        {
          "internalType": "uint256",
          "name": "",
          "type": "uint256"
        }
      ],
      "stateMutability": "view",
      "type": "function"
    },
    {
      "inputs": [
        {
          "internalType": "uint256",
          "name": "_auctionIndex",
          "type": "uint256"
        }
      ],
      "name": "isOpen",
      "outputs": [
        {
          "internalType": "bool",
          "name": "",
          "type": "bool"
        }
      ],
      "stateMutability": "view",
      "type": "function"
    },
    {
      "inputs": [],
      "name": "name",
      "outputs": [
        {
          "internalType": "string",
          "name": "",
          "type": "string"
        }
      ],
      "stateMutability": "view",
      "type": "function"
    },
    {
      "inputs": [
        {
          "internalType": "address",
          "name": "_createCubeContract",
          "type": "address"
        },
        {
          "internalType": "address",
          "name": "_weth9",
          "type": "address"
        },
        {
          "internalType": "uint256",
          "name": "_nftId",
          "type": "uint256"
        },
        {
          "internalType": "uint256",
          "name": "_minBid",
          "type": "uint256"
        },
        {
          "internalType": "uint256",
          "name": "_startAuction",
          "type": "uint256"
        },
        {
          "internalType": "uint256",
          "name": "_endAuction",
          "type": "uint256"
        }
      ],
      "name": "newAuction",
      "outputs": [
        {
          "internalType": "uint256",
          "name": "",
          "type": "uint256"
        }
      ],
      "stateMutability": "nonpayable",
      "type": "function"
    },
    {
      "inputs": [
        {
          "internalType": "address",
          "name": "",
          "type": "address"
        },
        {
          "internalType": "address",
          "name": "",
          "type": "address"
        },
        {
          "internalType": "uint256",
          "name": "",
          "type": "uint256"
        },
        {
          "internalType": "bytes",
          "name": "",
          "type": "bytes"
        }
      ],
      "name": "onERC721Received",
      "outputs": [
        {
          "internalType": "bytes4",
          "name": "",
          "type": "bytes4"
        }
      ],
      "stateMutability": "nonpayable",
      "type": "function"
    },
    {
      "inputs": [
        {
          "internalType": "uint256",
          "name": "_auctionIndex",
          "type": "uint256"
        }
      ],
      "name": "refundNFT",
      "outputs": [],
      "stateMutability": "nonpayable",
      "type": "function"
    }
  ],
  "bytecode": "0x608060405260006001553480156200001657600080fd5b5060405162002c0438038062002c0483398181016040528101906200003c9190620001e8565b80600090816200004d919062000484565b50506200056b565b6000604051905090565b600080fd5b600080fd5b600080fd5b600080fd5b6000601f19601f8301169050919050565b7f4e487b7100000000000000000000000000000000000000000000000000000000600052604160045260246000fd5b620000be8262000073565b810181811067ffffffffffffffff82111715620000e057620000df62000084565b5b80604052505050565b6000620000f562000055565b9050620001038282620000b3565b919050565b600067ffffffffffffffff82111562000126576200012562000084565b5b620001318262000073565b9050602081019050919050565b60005b838110156200015e57808201518184015260208101905062000141565b60008484015250505050565b6000620001816200017b8462000108565b620000e9565b905082815260208101848484011115620001a0576200019f6200006e565b5b620001ad8482856200013e565b509392505050565b600082601f830112620001cd57620001cc62000069565b5b8151620001df8482602086016200016a565b91505092915050565b6000602082840312156200020157620002006200005f565b5b600082015167ffffffffffffffff81111562000222576200022162000064565b5b6200023084828501620001b5565b91505092915050565b600081519050919050565b7f4e487b7100000000000000000000000000000000000000000000000000000000600052602260045260246000fd5b600060028204905060018216806200028c57607f821691505b602082108103620002a257620002a162000244565b5b50919050565b60008190508160005260206000209050919050565b60006020601f8301049050919050565b600082821b905092915050565b6000600883026200030c7fffffffffffffffffffffffffffffffffffffffffffffffffffffffffffffffff82620002cd565b620003188683620002cd565b95508019841693508086168417925050509392505050565b6000819050919050565b6000819050919050565b6000620003656200035f620003598462000330565b6200033a565b62000330565b9050919050565b6000819050919050565b620003818362000344565b6200039962000390826200036c565b848454620002da565b825550505050565b600090565b620003b0620003a1565b620003bd81848462000376565b505050565b5b81811015620003e557620003d9600082620003a6565b600181019050620003c3565b5050565b601f8211156200043457620003fe81620002a8565b6200040984620002bd565b8101602085101562000419578190505b620004316200042885620002bd565b830182620003c2565b50505b505050565b600082821c905092915050565b6000620004596000198460080262000439565b1980831691505092915050565b600062000474838362000446565b9150826002028217905092915050565b6200048f8262000239565b67ffffffffffffffff811115620004ab57620004aa62000084565b5b620004b7825462000273565b620004c4828285620003e9565b600060209050601f831160018114620004fc5760008415620004e7578287015190505b620004f3858262000466565b86555062000563565b601f1984166200050c86620002a8565b60005b8281101562000536578489015182556001820191506020850194506020810190506200050f565b8683101562000556578489015162000552601f89168262000446565b8355505b6001600288020188555050505b505050505050565b612689806200057b6000396000f3fe608060405234801561001057600080fd5b50600436106100a95760003560e01c8063598647f811610071578063598647f8146101665780635db6984e1461019657806366c97d2c146101b257806386b46073146101e2578063da4e364f14610212578063fe5c873a14610242576100a9565b806306fdde03146100ae578063150b7a02146100cc5780631b55e338146100fc5780632986c0e5146101185780634d6861a614610136575b600080fd5b6100b661025e565b6040516100c391906116e0565b60405180910390f35b6100e660048036038101906100e191906118df565b6102ec565b6040516100f3919061199d565b60405180910390f35b610116600480360381019061011191906119b8565b610300565b005b6101206106ba565b60405161012d91906119f4565b60405180910390f35b610150600480360381019061014b91906119b8565b6106c0565b60405161015d9190611a2a565b60405180910390f35b610180600480360381019061017b9190611a45565b610707565b60405161018d9190611a2a565b60405180910390f35b6101b060048036038101906101ab91906119b8565b610aad565b005b6101cc60048036038101906101c79190611a85565b610d8c565b6040516101d991906119f4565b60405180910390f35b6101fc60048036038101906101f791906119b8565b6112e5565b6040516102099190611b21565b60405180910390f35b61022c600480360381019061022791906119b8565b61137b565b60405161023991906119f4565b60405180910390f35b61025c600480360381019061025791906119b8565b6113f1565b005b6000805461026b90611b6b565b80601f016020809104026020016040519081016040528092919081815260200182805461029790611b6b565b80156102e45780601f106102b9576101008083540402835291602001916102e4565b820191906000526020600020905b8154815290600101906020018083116102c757829003601f168201915b505050505081565b600063150b7a0260e01b9050949350505050565b6002805490508110610347576040517f08c379a000000000000000000000000000000000000000000000000000000000815260040161033e90611be8565b60405180910390fd5b610350816106c0565b15610390576040517f08c379a000000000000000000000000000000000000000000000000000000000815260040161038790611c54565b60405180910390fd5b6000600282815481106103a6576103a5611c74565b5b90600052602060002090600a020190503373ffffffffffffffffffffffffffffffffffffffff168160040160009054906101000a900473ffffffffffffffffffffffffffffffffffffffff1673ffffffffffffffffffffffffffffffffffffffff1614610448576040517f08c379a000000000000000000000000000000000000000000000000000000000815260040161043f90611d15565b60405180910390fd5b600073ffffffffffffffffffffffffffffffffffffffff168160050160009054906101000a900473ffffffffffffffffffffffffffffffffffffffff1673ffffffffffffffffffffffffffffffffffffffff16036105a55760008160010160009054906101000a900473ffffffffffffffffffffffffffffffffffffffff1690508073ffffffffffffffffffffffffffffffffffffffff166323b872dd308460040160009054906101000a900473ffffffffffffffffffffffffffffffffffffffff1685600301546040518463ffffffff1660e01b815260040161052e93929190611d35565b600060405180830381600087803b15801561054857600080fd5b505af115801561055c573d6000803e3d6000fd5b505050507fbc217c4476eb5450fcff153b12a3dc90c68f443236970ed96f85918c65694bbb8383600301543360405161059793929190611d6c565b60405180910390a1506106b6565b60008160020160009054906101000a900473ffffffffffffffffffffffffffffffffffffffff1690508073ffffffffffffffffffffffffffffffffffffffff1663a9059cbb8360040160009054906101000a900473ffffffffffffffffffffffffffffffffffffffff1684600601546040518363ffffffff1660e01b8152600401610631929190611da3565b6020604051808303816000875af1158015610650573d6000803e3d6000fd5b505050506040513d601f19601f820116820180604052508101906106749190611df8565b507ffbce8b6fd9a761d9abc22627182400126fe4e5e73abb7cdeb9a76bb0d991ca2d838360030154336040516106ac93929190611d6c565b60405180910390a1505b5050565b60015481565b600080600283815481106106d7576106d6611c74565b5b90600052602060002090600a02019050806008015442106106fc576000915050610702565b60019150505b919050565b60006002805490508310610750576040517f08c379a000000000000000000000000000000000000000000000000000000000815260040161074790611be8565b60405180910390fd5b60006002848154811061076657610765611c74565b5b90600052602060002090600a0201905061077f846106c0565b6107be576040517f08c379a00000000000000000000000000000000000000000000000000000000081526004016107b590611e71565b60405180910390fd5b80600601548311610804576040517f08c379a00000000000000000000000000000000000000000000000000000000081526004016107fb90611f03565b60405180910390fd5b8060040160009054906101000a900473ffffffffffffffffffffffffffffffffffffffff1673ffffffffffffffffffffffffffffffffffffffff163373ffffffffffffffffffffffffffffffffffffffff1603610896576040517f08c379a000000000000000000000000000000000000000000000000000000000815260040161088d90611f95565b60405180910390fd5b60008160020160009054906101000a900473ffffffffffffffffffffffffffffffffffffffff1690508073ffffffffffffffffffffffffffffffffffffffff166323b872dd3330876040518463ffffffff1660e01b81526004016108fc93929190611d35565b6020604051808303816000875af115801561091b573d6000803e3d6000fd5b505050506040513d601f19601f8201168201806040525081019061093f9190611df8565b506000826009015411156109f9578073ffffffffffffffffffffffffffffffffffffffff1663a9059cbb8360050160009054906101000a900473ffffffffffffffffffffffffffffffffffffffff1684600601546040518363ffffffff1660e01b81526004016109b0929190612014565b6020604051808303816000875af11580156109cf573d6000803e3d6000fd5b505050506040513d601f19601f820116820180604052508101906109f39190611df8565b50610aa1565b6000339050808360050160006101000a81548173ffffffffffffffffffffffffffffffffffffffff021916908373ffffffffffffffffffffffffffffffffffffffff160217905550848360060181905550826009016000815480929190610a5f9061206c565b91905055507f8de9f297a296fe6e55bb36ac261b0633e997261ec73adcb2718d4f4c8e969ed0863387604051610a97939291906120b4565b60405180910390a1505b60019250505092915050565b6002805490508110610af4576040517f08c379a0000000000000000000000000000000000000000000000000000000008152600401610aeb90611be8565b60405180910390fd5b610afd816106c0565b15610b3d576040517f08c379a0000000000000000000000000000000000000000000000000000000008152600401610b3490611c54565b60405180910390fd5b600060028281548110610b5357610b52611c74565b5b90600052602060002090600a020190503373ffffffffffffffffffffffffffffffffffffffff168160040160009054906101000a900473ffffffffffffffffffffffffffffffffffffffff1673ffffffffffffffffffffffffffffffffffffffff1614610bf5576040517f08c379a0000000000000000000000000000000000000000000000000000000008152600401610bec9061215d565b60405180910390fd5b600073ffffffffffffffffffffffffffffffffffffffff168160050160009054906101000a900473ffffffffffffffffffffffffffffffffffffffff1673ffffffffffffffffffffffffffffffffffffffff1614610c88576040517f08c379a0000000000000000000000000000000000000000000000000000000008152600401610c7f906121c9565b60405180910390fd5b60008160010160009054906101000a900473ffffffffffffffffffffffffffffffffffffffff1690508073ffffffffffffffffffffffffffffffffffffffff166323b872dd308460040160009054906101000a900473ffffffffffffffffffffffffffffffffffffffff1685600301546040518463ffffffff1660e01b8152600401610d1693929190611d35565b600060405180830381600087803b158015610d3057600080fd5b505af1158015610d44573d6000803e3d6000fd5b505050507fbc217c4476eb5450fcff153b12a3dc90c68f443236970ed96f85918c65694bbb83836003015433604051610d7f93929190611d6c565b60405180910390a1505050565b6000610d978761163d565b610dd6576040517f08c379a0000000000000000000000000000000000000000000000000000000008152600401610dcd90612235565b60405180910390fd5b610ddf8661163d565b610e1e576040517f08c379a0000000000000000000000000000000000000000000000000000000008152600401610e15906122a1565b60405180910390fd5b60008411610e61576040517f08c379a0000000000000000000000000000000000000000000000000000000008152600401610e589061230d565b60405180910390fd5b42831115610ea4576040517f08c379a0000000000000000000000000000000000000000000000000000000008152600401610e9b90612379565b60405180910390fd5b428211610ee6576040517f08c379a0000000000000000000000000000000000000000000000000000000008152600401610edd906123e5565b60405180910390fd5b60008790503373ffffffffffffffffffffffffffffffffffffffff168173ffffffffffffffffffffffffffffffffffffffff16636352211e886040518263ffffffff1660e01b8152600401610f3b91906119f4565b602060405180830381865afa158015610f58573d6000803e3d6000fd5b505050506040513d601f19601f82011682018060405250810190610f7c919061241a565b73ffffffffffffffffffffffffffffffffffffffff1614610fd2576040517f08c379a0000000000000000000000000000000000000000000000000000000008152600401610fc990612493565b60405180910390fd5b8073ffffffffffffffffffffffffffffffffffffffff166323b872dd3330896040518463ffffffff1660e01b815260040161100f93929190611d35565b600060405180830381600087803b15801561102957600080fd5b505af115801561103d573d6000803e3d6000fd5b5050505060008060405180610140016040528060015481526020018b73ffffffffffffffffffffffffffffffffffffffff1681526020018a73ffffffffffffffffffffffffffffffffffffffff1681526020018981526020013373ffffffffffffffffffffffffffffffffffffffff1681526020018373ffffffffffffffffffffffffffffffffffffffff1681526020018881526020018781526020018681526020016000815250905060028190806001815401808255809150506001900390600052602060002090600a02016000909190919091506000820151816000015560208201518160010160006101000a81548173ffffffffffffffffffffffffffffffffffffffff021916908373ffffffffffffffffffffffffffffffffffffffff16021790555060408201518160020160006101000a81548173ffffffffffffffffffffffffffffffffffffffff021916908373ffffffffffffffffffffffffffffffffffffffff1602179055506060820151816003015560808201518160040160006101000a81548173ffffffffffffffffffffffffffffffffffffffff021916908373ffffffffffffffffffffffffffffffffffffffff16021790555060a08201518160050160006101000a81548173ffffffffffffffffffffffffffffffffffffffff021916908373ffffffffffffffffffffffffffffffffffffffff16021790555060c0820151816006015560e08201518160070155610100820151816008015561012082015181600901555050600160008154809291906112829061206c565b91905055507facfedbe6b4bc5efc8b75d58e889aedba1881ccd1e94045e060089cec4d9d8e926001548b8b8b33878d8d8d60006040516112cb9a999897969594939291906124ee565b60405180910390a160015493505050509695505050505050565b6000600280549050821061132e576040517f08c379a000000000000000000000000000000000000000000000000000000000815260040161132590611be8565b60405180910390fd5b6002828154811061134257611341611c74565b5b90600052602060002090600a020160050160009054906101000a900473ffffffffffffffffffffffffffffffffffffffff169050919050565b600060028054905082106113c4576040517f08c379a00000000000000000000000000000000000000000000000000000000081526004016113bb90611be8565b60405180910390fd5b600282815481106113d8576113d7611c74565b5b90600052602060002090600a0201600601549050919050565b6002805490508110611438576040517f08c379a000000000000000000000000000000000000000000000000000000000815260040161142f90611be8565b60405180910390fd5b611441816106c0565b15611481576040517f08c379a000000000000000000000000000000000000000000000000000000000815260040161147890611c54565b60405180910390fd5b60006002828154811061149757611496611c74565b5b90600052602060002090600a020190503373ffffffffffffffffffffffffffffffffffffffff168160050160009054906101000a900473ffffffffffffffffffffffffffffffffffffffff1673ffffffffffffffffffffffffffffffffffffffff1614611539576040517f08c379a0000000000000000000000000000000000000000000000000000000008152600401611530906125fc565b60405180910390fd5b60008160010160009054906101000a900473ffffffffffffffffffffffffffffffffffffffff1690508073ffffffffffffffffffffffffffffffffffffffff166323b872dd308460050160009054906101000a900473ffffffffffffffffffffffffffffffffffffffff1685600301546040518463ffffffff1660e01b81526004016115c79392919061261c565b600060405180830381600087803b1580156115e157600080fd5b505af11580156115f5573d6000803e3d6000fd5b505050507fc50a06ca126163792c7b343bdc65ad6c84b1f48337abd276d6d8dd0f9bbeb1f78383600301543360405161163093929190611d6c565b60405180910390a1505050565b600080823b905060008111915050919050565b600081519050919050565b600082825260208201905092915050565b60005b8381101561168a57808201518184015260208101905061166f565b60008484015250505050565b6000601f19601f8301169050919050565b60006116b282611650565b6116bc818561165b565b93506116cc81856020860161166c565b6116d581611696565b840191505092915050565b600060208201905081810360008301526116fa81846116a7565b905092915050565b6000604051905090565b600080fd5b600080fd5b600073ffffffffffffffffffffffffffffffffffffffff82169050919050565b600061174182611716565b9050919050565b61175181611736565b811461175c57600080fd5b50565b60008135905061176e81611748565b92915050565b6000819050919050565b61178781611774565b811461179257600080fd5b50565b6000813590506117a48161177e565b92915050565b600080fd5b600080fd5b7f4e487b7100000000000000000000000000000000000000000000000000000000600052604160045260246000fd5b6117ec82611696565b810181811067ffffffffffffffff8211171561180b5761180a6117b4565b5b80604052505050565b600061181e611702565b905061182a82826117e3565b919050565b600067ffffffffffffffff82111561184a576118496117b4565b5b61185382611696565b9050602081019050919050565b82818337600083830152505050565b600061188261187d8461182f565b611814565b90508281526020810184848401111561189e5761189d6117af565b5b6118a9848285611860565b509392505050565b600082601f8301126118c6576118c56117aa565b5b81356118d684826020860161186f565b91505092915050565b600080600080608085870312156118f9576118f861170c565b5b60006119078782880161175f565b94505060206119188782880161175f565b935050604061192987828801611795565b925050606085013567ffffffffffffffff81111561194a57611949611711565b5b611956878288016118b1565b91505092959194509250565b60007fffffffff0000000000000000000000000000000000000000000000000000000082169050919050565b61199781611962565b82525050565b60006020820190506119b2600083018461198e565b92915050565b6000602082840312156119ce576119cd61170c565b5b60006119dc84828501611795565b91505092915050565b6119ee81611774565b82525050565b6000602082019050611a0960008301846119e5565b92915050565b60008115159050919050565b611a2481611a0f565b82525050565b6000602082019050611a3f6000830184611a1b565b92915050565b60008060408385031215611a5c57611a5b61170c565b5b6000611a6a85828601611795565b9250506020611a7b85828601611795565b9150509250929050565b60008060008060008060c08789031215611aa257611aa161170c565b5b6000611ab089828a0161175f565b9650506020611ac189828a0161175f565b9550506040611ad289828a01611795565b9450506060611ae389828a01611795565b9350506080611af489828a01611795565b92505060a0611b0589828a01611795565b9150509295509295509295565b611b1b81611736565b82525050565b6000602082019050611b366000830184611b12565b92915050565b7f4e487b7100000000000000000000000000000000000000000000000000000000600052602260045260246000fd5b60006002820490506001821680611b8357607f821691505b602082108103611b9657611b95611b3c565b5b50919050565b7f496e76616c69642061756374696f6e20696e6465780000000000000000000000600082015250565b6000611bd260158361165b565b9150611bdd82611b9c565b602082019050919050565b60006020820190508181036000830152611c0181611bc5565b9050919050565b7f41756374696f6e206973207374696c6c206f70656e0000000000000000000000600082015250565b6000611c3e60158361165b565b9150611c4982611c08565b602082019050919050565b60006020820190508181036000830152611c6d81611c31565b9050919050565b7f4e487b7100000000000000000000000000000000000000000000000000000000600052603260045260246000fd5b7f4f6e6c792041756374696f6e2063726561746f722063616e20636c61696d206660008201527f756e647300000000000000000000000000000000000000000000000000000000602082015250565b6000611cff60248361165b565b9150611d0a82611ca3565b604082019050919050565b60006020820190508181036000830152611d2e81611cf2565b9050919050565b6000606082019050611d4a6000830186611b12565b611d576020830185611b12565b611d6460408301846119e5565b949350505050565b6000606082019050611d8160008301866119e5565b611d8e60208301856119e5565b611d9b6040830184611b12565b949350505050565b6000604082019050611db86000830185611b12565b611dc560208301846119e5565b9392505050565b611dd581611a0f565b8114611de057600080fd5b50565b600081519050611df281611dcc565b92915050565b600060208284031215611e0e57611e0d61170c565b5b6000611e1c84828501611de3565b91505092915050565b7f41756374696f6e206973206e6f74206f70656e00000000000000000000000000600082015250565b6000611e5b60138361165b565b9150611e6682611e25565b602082019050919050565b60006020820190508181036000830152611e8a81611e4e565b9050919050565b7f4e657720626964207072696365206d757374206265206869676865722074686160008201527f6e207468652063757272656e7420626964000000000000000000000000000000602082015250565b6000611eed60318361165b565b9150611ef882611e91565b604082019050919050565b60006020820190508181036000830152611f1c81611ee0565b9050919050565b7f43726561746f72206f66207468652061756374696f6e2063616e6e6f7420706c60008201527f616365206e657720626964000000000000000000000000000000000000000000602082015250565b6000611f7f602b8361165b565b9150611f8a82611f23565b604082019050919050565b60006020820190508181036000830152611fae81611f72565b9050919050565b6000819050919050565b6000611fda611fd5611fd084611716565b611fb5565b611716565b9050919050565b6000611fec82611fbf565b9050919050565b6000611ffe82611fe1565b9050919050565b61200e81611ff3565b82525050565b60006040820190506120296000830185612005565b61203660208301846119e5565b9392505050565b7f4e487b7100000000000000000000000000000000000000000000000000000000600052601160045260246000fd5b600061207782611774565b91507fffffffffffffffffffffffffffffffffffffffffffffffffffffffffffffffff82036120a9576120a861203d565b5b600182019050919050565b60006060820190506120c960008301866119e5565b6120d66020830185611b12565b6120e360408301846119e5565b949350505050565b7f546f6b656e732063616e20626520636c61696d6564206f6e6c7920627920746860008201527f652063726561746f72206f66207468652061756374696f6e0000000000000000602082015250565b600061214760388361165b565b9150612152826120eb565b604082019050919050565b600060208201905081810360008301526121768161213a565b9050919050565b7f4578697374696e6720626964657220666f7220746869732061756374696f6e00600082015250565b60006121b3601f8361165b565b91506121be8261217d565b602082019050919050565b600060208201905081810360008301526121e2816121a6565b9050919050565b7f496e76616c696420636f6e747261637420616464726573730000000000000000600082015250565b600061221f60188361165b565b915061222a826121e9565b602082019050919050565b6000602082019050818103600083015261224e81612212565b9050919050565b7f496e7661696c6420636f6e747261637420616464726573730000000000000000600082015250565b600061228b60188361165b565b915061229682612255565b602082019050919050565b600060208201905081810360008301526122ba8161227e565b9050919050565b7f496e76616c6964206d696e696d756d2062696400000000000000000000000000600082015250565b60006122f760138361165b565b9150612302826122c1565b602082019050919050565b60006020820190508181036000830152612326816122ea565b9050919050565b7f496e76616c69642073746172742061756374696f6e2074696d657374616d7000600082015250565b6000612363601f8361165b565b915061236e8261232d565b602082019050919050565b6000602082019050818103600083015261239281612356565b9050919050565b7f496e7661696420656e642061756374696f6e2074696d657374616d7000000000600082015250565b60006123cf601c8361165b565b91506123da82612399565b602082019050919050565b600060208201905081810360008301526123fe816123c2565b9050919050565b60008151905061241481611748565b92915050565b6000602082840312156124305761242f61170c565b5b600061243e84828501612405565b91505092915050565b7f596f7520617265206e6f7420746865206f776e6572206f6620746865204e4654600082015250565b600061247d60208361165b565b915061248882612447565b602082019050919050565b600060208201905081810360008301526124ac81612470565b9050919050565b6000819050919050565b60006124d86124d36124ce846124b3565b611fb5565b611774565b9050919050565b6124e8816124bd565b82525050565b600061014082019050612504600083018d6119e5565b612511602083018c611b12565b61251e604083018b611b12565b61252b606083018a6119e5565b6125386080830189611b12565b61254560a0830188612005565b61255260c08301876119e5565b61255f60e08301866119e5565b61256d6101008301856119e5565b61257b6101208301846124df565b9b9a5050505050505050505050565b7f4f6e6c7920686967686573742063757272656e74206269646465722063616e2060008201527f636c61696d204e46540000000000000000000000000000000000000000000000602082015250565b60006125e660298361165b565b91506125f18261258a565b604082019050919050565b60006020820190508181036000830152612615816125d9565b9050919050565b60006060820190506126316000830186611b12565b61263e6020830185612005565b61264b60408301846119e5565b94935050505056fea26469706673582212209e3ba6a56e0eb4fdeecefb524369151ea5458581b5ddc94ac2c1ec94cd4de7cb64736f6c63430008110033",
  "linkReferences": {},
  "deployedLinkReferences": {}
}