{
  "_format": "hh-sol-artifact-1",
  "contractName": "CreateCubeContract",
  "sourceName": "contracts/CreateCubeContract.sol",
  "abi": [
    {
      "inputs": [],
      "stateMutability": "nonpayable",
      "type": "constructor"
    },
    {
      "anonymous": false,
      "inputs": [
        {
          "indexed": true,
          "internalType": "address",
          "name": "owner",
          "type": "address"
        },
        {
          "indexed": true,
          "internalType": "address",
          "name": "approved",
          "type": "address"
        },
        {
          "indexed": true,
          "internalType": "uint256",
          "name": "tokenId",
          "type": "uint256"
        }
      ],
      "name": "Approval",
      "type": "event"
    },
    {
      "anonymous": false,
      "inputs": [
        {
          "indexed": true,
          "internalType": "address",
          "name": "owner",
          "type": "address"
        },
        {
          "indexed": true,
          "internalType": "address",
          "name": "operator",
          "type": "address"
        },
        {
          "indexed": false,
          "internalType": "bool",
          "name": "approved",
          "type": "bool"
        }
      ],
      "name": "ApprovalForAll",
      "type": "event"
    },
    {
      "anonymous": false,
      "inputs": [
        {
          "indexed": true,
          "internalType": "address",
          "name": "previousOwner",
          "type": "address"
        },
        {
          "indexed": true,
          "internalType": "address",
          "name": "newOwner",
          "type": "address"
        }
      ],
      "name": "OwnershipTransferred",
      "type": "event"
    },
    {
      "anonymous": false,
      "inputs": [
        {
          "indexed": true,
          "internalType": "address",
          "name": "from",
          "type": "address"
        },
        {
          "indexed": true,
          "internalType": "address",
          "name": "to",
          "type": "address"
        },
        {
          "indexed": true,
          "internalType": "uint256",
          "name": "tokenId",
          "type": "uint256"
        }
      ],
      "name": "Transfer",
      "type": "event"
    },
    {
      "inputs": [
        {
          "internalType": "address",
          "name": "to",
          "type": "address"
        },
        {
          "internalType": "uint256",
          "name": "tokenId",
          "type": "uint256"
        }
      ],
      "name": "approve",
      "outputs": [],
      "stateMutability": "nonpayable",
      "type": "function"
    },
    {
      "inputs": [
        {
          "internalType": "address",
          "name": "owner",
          "type": "address"
        }
      ],
      "name": "balanceOf",
      "outputs": [
        {
          "internalType": "uint256",
          "name": "",
          "type": "uint256"
        }
      ],
      "stateMutability": "view",
      "type": "function"
    },
    {
      "inputs": [
        {
          "internalType": "string",
          "name": "uri",
          "type": "string"
        }
      ],
      "name": "createCube",
      "outputs": [
        {
          "internalType": "uint256",
          "name": "",
          "type": "uint256"
        }
      ],
      "stateMutability": "nonpayable",
      "type": "function"
    },
    {
      "inputs": [
        {
          "internalType": "uint256",
          "name": "tokenId",
          "type": "uint256"
        }
      ],
      "name": "getApproved",
      "outputs": [
        {
          "internalType": "address",
          "name": "",
          "type": "address"
        }
      ],
      "stateMutability": "view",
      "type": "function"
    },
    {
      "inputs": [
        {
          "internalType": "address",
          "name": "owner",
          "type": "address"
        },
        {
          "internalType": "address",
          "name": "operator",
          "type": "address"
        }
      ],
      "name": "isApprovedForAll",
      "outputs": [
        {
          "internalType": "bool",
          "name": "",
          "type": "bool"
        }
      ],
      "stateMutability": "view",
      "type": "function"
    },
    {
      "inputs": [],
      "name": "name",
      "outputs": [
        {
          "internalType": "string",
          "name": "",
          "type": "string"
        }
      ],
      "stateMutability": "view",
      "type": "function"
    },
    {
      "inputs": [],
      "name": "owner",
      "outputs": [
        {
          "internalType": "address",
          "name": "",
          "type": "address"
        }
      ],
      "stateMutability": "view",
      "type": "function"
    },
    {
      "inputs": [
        {
          "internalType": "uint256",
          "name": "tokenId",
          "type": "uint256"
        }
      ],
      "name": "ownerOf",
      "outputs": [
        {
          "internalType": "address",
          "name": "",
          "type": "address"
        }
      ],
      "stateMutability": "view",
      "type": "function"
    },
    {
      "inputs": [],
      "name": "renounceOwnership",
      "outputs": [],
      "stateMutability": "nonpayable",
      "type": "function"
    },
    {
      "inputs": [
        {
          "internalType": "address",
          "name": "from",
          "type": "address"
        },
        {
          "internalType": "address",
          "name": "to",
          "type": "address"
        },
        {
          "internalType": "uint256",
          "name": "tokenId",
          "type": "uint256"
        }
      ],
      "name": "safeTransferFrom",
      "outputs": [],
      "stateMutability": "nonpayable",
      "type": "function"
    },
    {
      "inputs": [
        {
          "internalType": "address",
          "name": "from",
          "type": "address"
        },
        {
          "internalType": "address",
          "name": "to",
          "type": "address"
        },
        {
          "internalType": "uint256",
          "name": "tokenId",
          "type": "uint256"
        },
        {
          "internalType": "bytes",
          "name": "data",
          "type": "bytes"
        }
      ],
      "name": "safeTransferFrom",
      "outputs": [],
      "stateMutability": "nonpayable",
      "type": "function"
    },
    {
      "inputs": [
        {
          "internalType": "address",
          "name": "operator",
          "type": "address"
        },
        {
          "internalType": "bool",
          "name": "approved",
          "type": "bool"
        }
      ],
      "name": "setApprovalForAll",
      "outputs": [],
      "stateMutability": "nonpayable",
      "type": "function"
    },
    {
      "inputs": [
        {
          "internalType": "bytes4",
          "name": "interfaceId",
          "type": "bytes4"
        }
      ],
      "name": "supportsInterface",
      "outputs": [
        {
          "internalType": "bool",
          "name": "",
          "type": "bool"
        }
      ],
      "stateMutability": "view",
      "type": "function"
    },
    {
      "inputs": [],
      "name": "symbol",
      "outputs": [
        {
          "internalType": "string",
          "name": "",
          "type": "string"
        }
      ],
      "stateMutability": "view",
      "type": "function"
    },
    {
      "inputs": [
        {
          "internalType": "uint256",
          "name": "index",
          "type": "uint256"
        }
      ],
      "name": "tokenByIndex",
      "outputs": [
        {
          "internalType": "uint256",
          "name": "",
          "type": "uint256"
        }
      ],
      "stateMutability": "view",
      "type": "function"
    },
    {
      "inputs": [
        {
          "internalType": "address",
          "name": "owner",
          "type": "address"
        },
        {
          "internalType": "uint256",
          "name": "index",
          "type": "uint256"
        }
      ],
      "name": "tokenOfOwnerByIndex",
      "outputs": [
        {
          "internalType": "uint256",
          "name": "",
          "type": "uint256"
        }
      ],
      "stateMutability": "view",
      "type": "function"
    },
    {
      "inputs": [
        {
          "internalType": "uint256",
          "name": "tokenId",
          "type": "uint256"
        }
      ],
      "name": "tokenURI",
      "outputs": [
        {
          "internalType": "string",
          "name": "",
          "type": "string"
        }
      ],
      "stateMutability": "view",
      "type": "function"
    },
    {
      "inputs": [],
      "name": "totalSupply",
      "outputs": [
        {
          "internalType": "uint256",
          "name": "",
          "type": "uint256"
        }
      ],
      "stateMutability": "view",
      "type": "function"
    },
    {
      "inputs": [
        {
          "internalType": "address",
          "name": "from",
          "type": "address"
        },
        {
          "internalType": "address",
          "name": "to",
          "type": "address"
        },
        {
          "internalType": "uint256",
          "name": "tokenId",
          "type": "uint256"
        }
      ],
      "name": "transferCube",
      "outputs": [
        {
          "internalType": "bool",
          "name": "",
          "type": "bool"
        }
      ],
      "stateMutability": "nonpayable",
      "type": "function"
    },
    {
      "inputs": [
        {
          "internalType": "address",
          "name": "from",
          "type": "address"
        },
        {
          "internalType": "address",
          "name": "to",
          "type": "address"
        },
        {
          "internalType": "uint256",
          "name": "tokenId",
          "type": "uint256"
        }
      ],
      "name": "transferFrom",
      "outputs": [],
      "stateMutability": "nonpayable",
      "type": "function"
    },
    {
      "inputs": [
        {
          "internalType": "address",
          "name": "newOwner",
          "type": "address"
        }
      ],
      "name": "transferOwnership",
      "outputs": [],
      "stateMutability": "nonpayable",
      "type": "function"
    }
  ],
  "bytecode": "0x60806040523480156200001157600080fd5b506040518060400160405280600981526020017f43554245284e46542900000000000000000000000000000000000000000000008152506040518060400160405280600381526020017f434e54000000000000000000000000000000000000000000000000000000000081525081600090816200008f919062000412565b508060019081620000a1919062000412565b505050620000c4620000b8620000ca60201b60201c565b620000d260201b60201c565b620004f9565b600033905090565b6000600b60009054906101000a900473ffffffffffffffffffffffffffffffffffffffff16905081600b60006101000a81548173ffffffffffffffffffffffffffffffffffffffff021916908373ffffffffffffffffffffffffffffffffffffffff1602179055508173ffffffffffffffffffffffffffffffffffffffff168173ffffffffffffffffffffffffffffffffffffffff167f8be0079c531659141344cd1fd0a4f28419497f9722a3daafe3b4186f6b6457e060405160405180910390a35050565b600081519050919050565b7f4e487b7100000000000000000000000000000000000000000000000000000000600052604160045260246000fd5b7f4e487b7100000000000000000000000000000000000000000000000000000000600052602260045260246000fd5b600060028204905060018216806200021a57607f821691505b60208210810362000230576200022f620001d2565b5b50919050565b60008190508160005260206000209050919050565b60006020601f8301049050919050565b600082821b905092915050565b6000600883026200029a7fffffffffffffffffffffffffffffffffffffffffffffffffffffffffffffffff826200025b565b620002a686836200025b565b95508019841693508086168417925050509392505050565b6000819050919050565b6000819050919050565b6000620002f3620002ed620002e784620002be565b620002c8565b620002be565b9050919050565b6000819050919050565b6200030f83620002d2565b620003276200031e82620002fa565b84845462000268565b825550505050565b600090565b6200033e6200032f565b6200034b81848462000304565b505050565b5b8181101562000373576200036760008262000334565b60018101905062000351565b5050565b601f821115620003c2576200038c8162000236565b62000397846200024b565b81016020851015620003a7578190505b620003bf620003b6856200024b565b83018262000350565b50505b505050565b600082821c905092915050565b6000620003e760001984600802620003c7565b1980831691505092915050565b6000620004028383620003d4565b9150826002028217905092915050565b6200041d8262000198565b67ffffffffffffffff811115620004395762000438620001a3565b5b62000445825462000201565b6200045282828562000377565b600060209050601f8311600181146200048a576000841562000475578287015190505b620004818582620003f4565b865550620004f1565b601f1984166200049a8662000236565b60005b82811015620004c4578489015182556001820191506020850194506020810190506200049d565b86831015620004e45784890151620004e0601f891682620003d4565b8355505b6001600288020188555050505b505050505050565b61390880620005096000396000f3fe608060405234801561001057600080fd5b50600436106101375760003560e01c80636352211e116100b8578063a22cb4651161007c578063a22cb46514610362578063b88d4fde1461037e578063c87b56dd1461039a578063e92f0041146103ca578063e985e9c5146103fa578063f2fde38b1461042a57610137565b80636352211e146102bc57806370a08231146102ec578063715018a61461031c5780638da5cb5b1461032657806395d89b411461034457610137565b806318160ddd116100ff57806318160ddd1461020657806323b872dd146102245780632f745c591461024057806342842e0e146102705780634f6ccce71461028c57610137565b806301ffc9a71461013c578063040789c51461016c57806306fdde031461019c578063081812fc146101ba578063095ea7b3146101ea575b600080fd5b61015660048036038101906101519190612461565b610446565b60405161016391906124a9565b60405180910390f35b61018660048036038101906101819190612558565b610458565b60405161019391906124a9565b60405180910390f35b6101a4610470565b6040516101b1919061263b565b60405180910390f35b6101d460048036038101906101cf919061265d565b610502565b6040516101e19190612699565b60405180910390f35b61020460048036038101906101ff91906126b4565b610548565b005b61020e61065f565b60405161021b9190612703565b60405180910390f35b61023e60048036038101906102399190612558565b61066c565b005b61025a600480360381019061025591906126b4565b6106cc565b6040516102679190612703565b60405180910390f35b61028a60048036038101906102859190612558565b610771565b005b6102a660048036038101906102a1919061265d565b610791565b6040516102b39190612703565b60405180910390f35b6102d660048036038101906102d1919061265d565b610802565b6040516102e39190612699565b60405180910390f35b6103066004803603810190610301919061271e565b610888565b6040516103139190612703565b60405180910390f35b61032461093f565b005b61032e610953565b60405161033b9190612699565b60405180910390f35b61034c61097d565b604051610359919061263b565b60405180910390f35b61037c60048036038101906103779190612777565b610a0f565b005b610398600480360381019061039391906128ec565b610a25565b005b6103b460048036038101906103af919061265d565b610a87565b6040516103c1919061263b565b60405180910390f35b6103e460048036038101906103df9190612a10565b610a99565b6040516103f19190612703565b60405180910390f35b610414600480360381019061040f9190612a59565b610acf565b60405161042191906124a9565b60405180910390f35b610444600480360381019061043f919061271e565b610b63565b005b600061045182610be6565b9050919050565b6000610465848484610771565b600190509392505050565b60606000805461047f90612ac8565b80601f01602080910402602001604051908101604052809291908181526020018280546104ab90612ac8565b80156104f85780601f106104cd576101008083540402835291602001916104f8565b820191906000526020600020905b8154815290600101906020018083116104db57829003601f168201915b5050505050905090565b600061050d82610c60565b6004600083815260200190815260200160002060009054906101000a900473ffffffffffffffffffffffffffffffffffffffff169050919050565b600061055382610802565b90508073ffffffffffffffffffffffffffffffffffffffff168373ffffffffffffffffffffffffffffffffffffffff16036105c3576040517f08c379a00000000000000000000000000000000000000000000000000000000081526004016105ba90612b6b565b60405180910390fd5b8073ffffffffffffffffffffffffffffffffffffffff166105e2610cab565b73ffffffffffffffffffffffffffffffffffffffff16148061061157506106108161060b610cab565b610acf565b5b610650576040517f08c379a000000000000000000000000000000000000000000000000000000000815260040161064790612bfd565b60405180910390fd5b61065a8383610cb3565b505050565b6000600880549050905090565b61067d610677610cab565b82610d6c565b6106bc576040517f08c379a00000000000000000000000000000000000000000000000000000000081526004016106b390612c8f565b60405180910390fd5b6106c7838383610e01565b505050565b60006106d783610888565b8210610718576040517f08c379a000000000000000000000000000000000000000000000000000000000815260040161070f90612d21565b60405180910390fd5b600660008473ffffffffffffffffffffffffffffffffffffffff1673ffffffffffffffffffffffffffffffffffffffff168152602001908152602001600020600083815260200190815260200160002054905092915050565b61078c83838360405180602001604052806000815250610a25565b505050565b600061079b61065f565b82106107dc576040517f08c379a00000000000000000000000000000000000000000000000000000000081526004016107d390612db3565b60405180910390fd5b600882815481106107f0576107ef612dd3565b5b90600052602060002001549050919050565b60008061080e836110fa565b9050600073ffffffffffffffffffffffffffffffffffffffff168173ffffffffffffffffffffffffffffffffffffffff160361087f576040517f08c379a000000000000000000000000000000000000000000000000000000000815260040161087690612e4e565b60405180910390fd5b80915050919050565b60008073ffffffffffffffffffffffffffffffffffffffff168273ffffffffffffffffffffffffffffffffffffffff16036108f8576040517f08c379a00000000000000000000000000000000000000000000000000000000081526004016108ef90612ee0565b60405180910390fd5b600360008373ffffffffffffffffffffffffffffffffffffffff1673ffffffffffffffffffffffffffffffffffffffff168152602001908152602001600020549050919050565b610947611137565b61095160006111b5565b565b6000600b60009054906101000a900473ffffffffffffffffffffffffffffffffffffffff16905090565b60606001805461098c90612ac8565b80601f01602080910402602001604051908101604052809291908181526020018280546109b890612ac8565b8015610a055780601f106109da57610100808354040283529160200191610a05565b820191906000526020600020905b8154815290600101906020018083116109e857829003601f168201915b5050505050905090565b610a21610a1a610cab565b838361127b565b5050565b610a36610a30610cab565b83610d6c565b610a75576040517f08c379a0000000000000000000000000000000000000000000000000000000008152600401610a6c90612c8f565b60405180910390fd5b610a81848484846113e7565b50505050565b6060610a9282611443565b9050919050565b600080610aa6600c611555565b9050610ab2600c611563565b610abc3382611579565b610ac68184611597565b80915050919050565b6000600560008473ffffffffffffffffffffffffffffffffffffffff1673ffffffffffffffffffffffffffffffffffffffff16815260200190815260200160002060008373ffffffffffffffffffffffffffffffffffffffff1673ffffffffffffffffffffffffffffffffffffffff16815260200190815260200160002060009054906101000a900460ff16905092915050565b610b6b611137565b600073ffffffffffffffffffffffffffffffffffffffff168173ffffffffffffffffffffffffffffffffffffffff1603610bda576040517f08c379a0000000000000000000000000000000000000000000000000000000008152600401610bd190612f72565b60405180910390fd5b610be3816111b5565b50565b60007f780e9d63000000000000000000000000000000000000000000000000000000007bffffffffffffffffffffffffffffffffffffffffffffffffffffffff1916827bffffffffffffffffffffffffffffffffffffffffffffffffffffffff19161480610c595750610c5882611604565b5b9050919050565b610c69816116e6565b610ca8576040517f08c379a0000000000000000000000000000000000000000000000000000000008152600401610c9f90612e4e565b60405180910390fd5b50565b600033905090565b816004600083815260200190815260200160002060006101000a81548173ffffffffffffffffffffffffffffffffffffffff021916908373ffffffffffffffffffffffffffffffffffffffff160217905550808273ffffffffffffffffffffffffffffffffffffffff16610d2683610802565b73ffffffffffffffffffffffffffffffffffffffff167f8c5be1e5ebec7d5bd14f71427d1e84f3dd0314c0f7b2291e5b200ac8c7c3b92560405160405180910390a45050565b600080610d7883610802565b90508073ffffffffffffffffffffffffffffffffffffffff168473ffffffffffffffffffffffffffffffffffffffff161480610dba5750610db98185610acf565b5b80610df857508373ffffffffffffffffffffffffffffffffffffffff16610de084610502565b73ffffffffffffffffffffffffffffffffffffffff16145b91505092915050565b8273ffffffffffffffffffffffffffffffffffffffff16610e2182610802565b73ffffffffffffffffffffffffffffffffffffffff1614610e77576040517f08c379a0000000000000000000000000000000000000000000000000000000008152600401610e6e90613004565b60405180910390fd5b600073ffffffffffffffffffffffffffffffffffffffff168273ffffffffffffffffffffffffffffffffffffffff1603610ee6576040517f08c379a0000000000000000000000000000000000000000000000000000000008152600401610edd90613096565b60405180910390fd5b610ef38383836001611727565b8273ffffffffffffffffffffffffffffffffffffffff16610f1382610802565b73ffffffffffffffffffffffffffffffffffffffff1614610f69576040517f08c379a0000000000000000000000000000000000000000000000000000000008152600401610f6090613004565b60405180910390fd5b6004600082815260200190815260200160002060006101000a81549073ffffffffffffffffffffffffffffffffffffffff02191690556001600360008573ffffffffffffffffffffffffffffffffffffffff1673ffffffffffffffffffffffffffffffffffffffff168152602001908152602001600020600082825403925050819055506001600360008473ffffffffffffffffffffffffffffffffffffffff1673ffffffffffffffffffffffffffffffffffffffff16815260200190815260200160002060008282540192505081905550816002600083815260200190815260200160002060006101000a81548173ffffffffffffffffffffffffffffffffffffffff021916908373ffffffffffffffffffffffffffffffffffffffff160217905550808273ffffffffffffffffffffffffffffffffffffffff168473ffffffffffffffffffffffffffffffffffffffff167fddf252ad1be2c89b69c2b068fc378daa952ba7f163c4a11628f55a4df523b3ef60405160405180910390a46110f58383836001611739565b505050565b60006002600083815260200190815260200160002060009054906101000a900473ffffffffffffffffffffffffffffffffffffffff169050919050565b61113f610cab565b73ffffffffffffffffffffffffffffffffffffffff1661115d610953565b73ffffffffffffffffffffffffffffffffffffffff16146111b3576040517f08c379a00000000000000000000000000000000000000000000000000000000081526004016111aa90613102565b60405180910390fd5b565b6000600b60009054906101000a900473ffffffffffffffffffffffffffffffffffffffff16905081600b60006101000a81548173ffffffffffffffffffffffffffffffffffffffff021916908373ffffffffffffffffffffffffffffffffffffffff1602179055508173ffffffffffffffffffffffffffffffffffffffff168173ffffffffffffffffffffffffffffffffffffffff167f8be0079c531659141344cd1fd0a4f28419497f9722a3daafe3b4186f6b6457e060405160405180910390a35050565b8173ffffffffffffffffffffffffffffffffffffffff168373ffffffffffffffffffffffffffffffffffffffff16036112e9576040517f08c379a00000000000000000000000000000000000000000000000000000000081526004016112e09061316e565b60405180910390fd5b80600560008573ffffffffffffffffffffffffffffffffffffffff1673ffffffffffffffffffffffffffffffffffffffff16815260200190815260200160002060008473ffffffffffffffffffffffffffffffffffffffff1673ffffffffffffffffffffffffffffffffffffffff16815260200190815260200160002060006101000a81548160ff0219169083151502179055508173ffffffffffffffffffffffffffffffffffffffff168373ffffffffffffffffffffffffffffffffffffffff167f17307eab39ab6107e8899845ad3d59bd9653f200f220920489ca2b5937696c31836040516113da91906124a9565b60405180910390a3505050565b6113f2848484610e01565b6113fe8484848461173f565b61143d576040517f08c379a000000000000000000000000000000000000000000000000000000000815260040161143490613200565b60405180910390fd5b50505050565b606061144e82610c60565b6000600a6000848152602001908152602001600020805461146e90612ac8565b80601f016020809104026020016040519081016040528092919081815260200182805461149a90612ac8565b80156114e75780601f106114bc576101008083540402835291602001916114e7565b820191906000526020600020905b8154815290600101906020018083116114ca57829003601f168201915b5050505050905060006114f86118c6565b9050600081510361150d578192505050611550565b60008251111561154257808260405160200161152a92919061325c565b60405160208183030381529060405292505050611550565b61154b846118dd565b925050505b919050565b600081600001549050919050565b6001816000016000828254019250508190555050565b611593828260405180602001604052806000815250611945565b5050565b6115a0826116e6565b6115df576040517f08c379a00000000000000000000000000000000000000000000000000000000081526004016115d6906132f2565b60405180910390fd5b80600a600084815260200190815260200160002090816115ff91906134be565b505050565b60007f80ac58cd000000000000000000000000000000000000000000000000000000007bffffffffffffffffffffffffffffffffffffffffffffffffffffffff1916827bffffffffffffffffffffffffffffffffffffffffffffffffffffffff191614806116cf57507f5b5e139f000000000000000000000000000000000000000000000000000000007bffffffffffffffffffffffffffffffffffffffffffffffffffffffff1916827bffffffffffffffffffffffffffffffffffffffffffffffffffffffff1916145b806116df57506116de826119a0565b5b9050919050565b60008073ffffffffffffffffffffffffffffffffffffffff16611708836110fa565b73ffffffffffffffffffffffffffffffffffffffff1614159050919050565b61173384848484611a0a565b50505050565b50505050565b60006117608473ffffffffffffffffffffffffffffffffffffffff16611b68565b156118b9578373ffffffffffffffffffffffffffffffffffffffff1663150b7a02611789610cab565b8786866040518563ffffffff1660e01b81526004016117ab94939291906135e5565b6020604051808303816000875af19250505080156117e757506040513d601f19601f820116820180604052508101906117e49190613646565b60015b611869573d8060008114611817576040519150601f19603f3d011682016040523d82523d6000602084013e61181c565b606091505b506000815103611861576040517f08c379a000000000000000000000000000000000000000000000000000000000815260040161185890613200565b60405180910390fd5b805181602001fd5b63150b7a0260e01b7bffffffffffffffffffffffffffffffffffffffffffffffffffffffff1916817bffffffffffffffffffffffffffffffffffffffffffffffffffffffff1916149150506118be565b600190505b949350505050565b606060405180602001604052806000815250905090565b60606118e882610c60565b60006118f26118c6565b90506000815111611912576040518060200160405280600081525061193d565b8061191c84611b8b565b60405160200161192d92919061325c565b6040516020818303038152906040525b915050919050565b61194f8383611c59565b61195c600084848461173f565b61199b576040517f08c379a000000000000000000000000000000000000000000000000000000000815260040161199290613200565b60405180910390fd5b505050565b60007f01ffc9a7000000000000000000000000000000000000000000000000000000007bffffffffffffffffffffffffffffffffffffffffffffffffffffffff1916827bffffffffffffffffffffffffffffffffffffffffffffffffffffffff1916149050919050565b611a1684848484611e76565b6001811115611a5a576040517f08c379a0000000000000000000000000000000000000000000000000000000008152600401611a51906136e5565b60405180910390fd5b6000829050600073ffffffffffffffffffffffffffffffffffffffff168573ffffffffffffffffffffffffffffffffffffffff1603611aa157611a9c81611f9c565b611ae0565b8373ffffffffffffffffffffffffffffffffffffffff168573ffffffffffffffffffffffffffffffffffffffff1614611adf57611ade8582611fe5565b5b5b600073ffffffffffffffffffffffffffffffffffffffff168473ffffffffffffffffffffffffffffffffffffffff1603611b2257611b1d81612152565b611b61565b8473ffffffffffffffffffffffffffffffffffffffff168473ffffffffffffffffffffffffffffffffffffffff1614611b6057611b5f8482612223565b5b5b5050505050565b6000808273ffffffffffffffffffffffffffffffffffffffff163b119050919050565b606060006001611b9a846122a2565b01905060008167ffffffffffffffff811115611bb957611bb86127c1565b5b6040519080825280601f01601f191660200182016040528015611beb5781602001600182028036833780820191505090505b509050600082602001820190505b600115611c4e578080600190039150507f3031323334353637383961626364656600000000000000000000000000000000600a86061a8153600a8581611c4257611c41613705565b5b04945060008503611bf9575b819350505050919050565b600073ffffffffffffffffffffffffffffffffffffffff168273ffffffffffffffffffffffffffffffffffffffff1603611cc8576040517f08c379a0000000000000000000000000000000000000000000000000000000008152600401611cbf90613780565b60405180910390fd5b611cd1816116e6565b15611d11576040517f08c379a0000000000000000000000000000000000000000000000000000000008152600401611d08906137ec565b60405180910390fd5b611d1f600083836001611727565b611d28816116e6565b15611d68576040517f08c379a0000000000000000000000000000000000000000000000000000000008152600401611d5f906137ec565b60405180910390fd5b6001600360008473ffffffffffffffffffffffffffffffffffffffff1673ffffffffffffffffffffffffffffffffffffffff16815260200190815260200160002060008282540192505081905550816002600083815260200190815260200160002060006101000a81548173ffffffffffffffffffffffffffffffffffffffff021916908373ffffffffffffffffffffffffffffffffffffffff160217905550808273ffffffffffffffffffffffffffffffffffffffff16600073ffffffffffffffffffffffffffffffffffffffff167fddf252ad1be2c89b69c2b068fc378daa952ba7f163c4a11628f55a4df523b3ef60405160405180910390a4611e72600083836001611739565b5050565b6001811115611f9657600073ffffffffffffffffffffffffffffffffffffffff168473ffffffffffffffffffffffffffffffffffffffff1614611f0a5780600360008673ffffffffffffffffffffffffffffffffffffffff1673ffffffffffffffffffffffffffffffffffffffff1681526020019081526020016000206000828254611f02919061383b565b925050819055505b600073ffffffffffffffffffffffffffffffffffffffff168373ffffffffffffffffffffffffffffffffffffffff1614611f955780600360008573ffffffffffffffffffffffffffffffffffffffff1673ffffffffffffffffffffffffffffffffffffffff1681526020019081526020016000206000828254611f8d919061386f565b925050819055505b5b50505050565b6008805490506009600083815260200190815260200160002081905550600881908060018154018082558091505060019003906000526020600020016000909190919091505550565b60006001611ff284610888565b611ffc919061383b565b90506000600760008481526020019081526020016000205490508181146120e1576000600660008673ffffffffffffffffffffffffffffffffffffffff1673ffffffffffffffffffffffffffffffffffffffff168152602001908152602001600020600084815260200190815260200160002054905080600660008773ffffffffffffffffffffffffffffffffffffffff1673ffffffffffffffffffffffffffffffffffffffff168152602001908152602001600020600084815260200190815260200160002081905550816007600083815260200190815260200160002081905550505b6007600084815260200190815260200160002060009055600660008573ffffffffffffffffffffffffffffffffffffffff1673ffffffffffffffffffffffffffffffffffffffff16815260200190815260200160002060008381526020019081526020016000206000905550505050565b60006001600880549050612166919061383b565b905060006009600084815260200190815260200160002054905060006008838154811061219657612195612dd3565b5b9060005260206000200154905080600883815481106121b8576121b7612dd3565b5b906000526020600020018190555081600960008381526020019081526020016000208190555060096000858152602001908152602001600020600090556008805480612207576122066138a3565b5b6001900381819060005260206000200160009055905550505050565b600061222e83610888565b905081600660008573ffffffffffffffffffffffffffffffffffffffff1673ffffffffffffffffffffffffffffffffffffffff168152602001908152602001600020600083815260200190815260200160002081905550806007600084815260200190815260200160002081905550505050565b600080600090507a184f03e93ff9f4daa797ed6e38ed64bf6a1f0100000000000000008310612300577a184f03e93ff9f4daa797ed6e38ed64bf6a1f01000000000000000083816122f6576122f5613705565b5b0492506040810190505b6d04ee2d6d415b85acef8100000000831061233d576d04ee2d6d415b85acef8100000000838161233357612332613705565b5b0492506020810190505b662386f26fc10000831061236c57662386f26fc10000838161236257612361613705565b5b0492506010810190505b6305f5e1008310612395576305f5e100838161238b5761238a613705565b5b0492506008810190505b61271083106123ba5761271083816123b0576123af613705565b5b0492506004810190505b606483106123dd57606483816123d3576123d2613705565b5b0492506002810190505b600a83106123ec576001810190505b80915050919050565b6000604051905090565b600080fd5b600080fd5b60007fffffffff0000000000000000000000000000000000000000000000000000000082169050919050565b61243e81612409565b811461244957600080fd5b50565b60008135905061245b81612435565b92915050565b600060208284031215612477576124766123ff565b5b60006124858482850161244c565b91505092915050565b60008115159050919050565b6124a38161248e565b82525050565b60006020820190506124be600083018461249a565b92915050565b600073ffffffffffffffffffffffffffffffffffffffff82169050919050565b60006124ef826124c4565b9050919050565b6124ff816124e4565b811461250a57600080fd5b50565b60008135905061251c816124f6565b92915050565b6000819050919050565b61253581612522565b811461254057600080fd5b50565b6000813590506125528161252c565b92915050565b600080600060608486031215612571576125706123ff565b5b600061257f8682870161250d565b93505060206125908682870161250d565b92505060406125a186828701612543565b9150509250925092565b600081519050919050565b600082825260208201905092915050565b60005b838110156125e55780820151818401526020810190506125ca565b60008484015250505050565b6000601f19601f8301169050919050565b600061260d826125ab565b61261781856125b6565b93506126278185602086016125c7565b612630816125f1565b840191505092915050565b600060208201905081810360008301526126558184612602565b905092915050565b600060208284031215612673576126726123ff565b5b600061268184828501612543565b91505092915050565b612693816124e4565b82525050565b60006020820190506126ae600083018461268a565b92915050565b600080604083850312156126cb576126ca6123ff565b5b60006126d98582860161250d565b92505060206126ea85828601612543565b9150509250929050565b6126fd81612522565b82525050565b600060208201905061271860008301846126f4565b92915050565b600060208284031215612734576127336123ff565b5b60006127428482850161250d565b91505092915050565b6127548161248e565b811461275f57600080fd5b50565b6000813590506127718161274b565b92915050565b6000806040838503121561278e5761278d6123ff565b5b600061279c8582860161250d565b92505060206127ad85828601612762565b9150509250929050565b600080fd5b600080fd5b7f4e487b7100000000000000000000000000000000000000000000000000000000600052604160045260246000fd5b6127f9826125f1565b810181811067ffffffffffffffff82111715612818576128176127c1565b5b80604052505050565b600061282b6123f5565b905061283782826127f0565b919050565b600067ffffffffffffffff821115612857576128566127c1565b5b612860826125f1565b9050602081019050919050565b82818337600083830152505050565b600061288f61288a8461283c565b612821565b9050828152602081018484840111156128ab576128aa6127bc565b5b6128b684828561286d565b509392505050565b600082601f8301126128d3576128d26127b7565b5b81356128e384826020860161287c565b91505092915050565b60008060008060808587031215612906576129056123ff565b5b60006129148782880161250d565b94505060206129258782880161250d565b935050604061293687828801612543565b925050606085013567ffffffffffffffff81111561295757612956612404565b5b612963878288016128be565b91505092959194509250565b600067ffffffffffffffff82111561298a576129896127c1565b5b612993826125f1565b9050602081019050919050565b60006129b36129ae8461296f565b612821565b9050828152602081018484840111156129cf576129ce6127bc565b5b6129da84828561286d565b509392505050565b600082601f8301126129f7576129f66127b7565b5b8135612a078482602086016129a0565b91505092915050565b600060208284031215612a2657612a256123ff565b5b600082013567ffffffffffffffff811115612a4457612a43612404565b5b612a50848285016129e2565b91505092915050565b60008060408385031215612a7057612a6f6123ff565b5b6000612a7e8582860161250d565b9250506020612a8f8582860161250d565b9150509250929050565b7f4e487b7100000000000000000000000000000000000000000000000000000000600052602260045260246000fd5b60006002820490506001821680612ae057607f821691505b602082108103612af357612af2612a99565b5b50919050565b7f4552433732313a20617070726f76616c20746f2063757272656e74206f776e6560008201527f7200000000000000000000000000000000000000000000000000000000000000602082015250565b6000612b556021836125b6565b9150612b6082612af9565b604082019050919050565b60006020820190508181036000830152612b8481612b48565b9050919050565b7f4552433732313a20617070726f76652063616c6c6572206973206e6f7420746f60008201527f6b656e206f776e6572206f7220617070726f76656420666f7220616c6c000000602082015250565b6000612be7603d836125b6565b9150612bf282612b8b565b604082019050919050565b60006020820190508181036000830152612c1681612bda565b9050919050565b7f4552433732313a2063616c6c6572206973206e6f7420746f6b656e206f776e6560008201527f72206f7220617070726f76656400000000000000000000000000000000000000602082015250565b6000612c79602d836125b6565b9150612c8482612c1d565b604082019050919050565b60006020820190508181036000830152612ca881612c6c565b9050919050565b7f455243373231456e756d657261626c653a206f776e657220696e646578206f7560008201527f74206f6620626f756e6473000000000000000000000000000000000000000000602082015250565b6000612d0b602b836125b6565b9150612d1682612caf565b604082019050919050565b60006020820190508181036000830152612d3a81612cfe565b9050919050565b7f455243373231456e756d657261626c653a20676c6f62616c20696e646578206f60008201527f7574206f6620626f756e64730000000000000000000000000000000000000000602082015250565b6000612d9d602c836125b6565b9150612da882612d41565b604082019050919050565b60006020820190508181036000830152612dcc81612d90565b9050919050565b7f4e487b7100000000000000000000000000000000000000000000000000000000600052603260045260246000fd5b7f4552433732313a20696e76616c696420746f6b656e2049440000000000000000600082015250565b6000612e386018836125b6565b9150612e4382612e02565b602082019050919050565b60006020820190508181036000830152612e6781612e2b565b9050919050565b7f4552433732313a2061646472657373207a65726f206973206e6f74206120766160008201527f6c6964206f776e65720000000000000000000000000000000000000000000000602082015250565b6000612eca6029836125b6565b9150612ed582612e6e565b604082019050919050565b60006020820190508181036000830152612ef981612ebd565b9050919050565b7f4f776e61626c653a206e6577206f776e657220697320746865207a65726f206160008201527f6464726573730000000000000000000000000000000000000000000000000000602082015250565b6000612f5c6026836125b6565b9150612f6782612f00565b604082019050919050565b60006020820190508181036000830152612f8b81612f4f565b9050919050565b7f4552433732313a207472616e736665722066726f6d20696e636f72726563742060008201527f6f776e6572000000000000000000000000000000000000000000000000000000602082015250565b6000612fee6025836125b6565b9150612ff982612f92565b604082019050919050565b6000602082019050818103600083015261301d81612fe1565b9050919050565b7f4552433732313a207472616e7366657220746f20746865207a65726f2061646460008201527f7265737300000000000000000000000000000000000000000000000000000000602082015250565b60006130806024836125b6565b915061308b82613024565b604082019050919050565b600060208201905081810360008301526130af81613073565b9050919050565b7f4f776e61626c653a2063616c6c6572206973206e6f7420746865206f776e6572600082015250565b60006130ec6020836125b6565b91506130f7826130b6565b602082019050919050565b6000602082019050818103600083015261311b816130df565b9050919050565b7f4552433732313a20617070726f766520746f2063616c6c657200000000000000600082015250565b60006131586019836125b6565b915061316382613122565b602082019050919050565b600060208201905081810360008301526131878161314b565b9050919050565b7f4552433732313a207472616e7366657220746f206e6f6e20455243373231526560008201527f63656976657220696d706c656d656e7465720000000000000000000000000000602082015250565b60006131ea6032836125b6565b91506131f58261318e565b604082019050919050565b60006020820190508181036000830152613219816131dd565b9050919050565b600081905092915050565b6000613236826125ab565b6132408185613220565b93506132508185602086016125c7565b80840191505092915050565b6000613268828561322b565b9150613274828461322b565b91508190509392505050565b7f45524337323155524953746f726167653a2055524920736574206f66206e6f6e60008201527f6578697374656e7420746f6b656e000000000000000000000000000000000000602082015250565b60006132dc602e836125b6565b91506132e782613280565b604082019050919050565b6000602082019050818103600083015261330b816132cf565b9050919050565b60008190508160005260206000209050919050565b60006020601f8301049050919050565b600082821b905092915050565b6000600883026133747fffffffffffffffffffffffffffffffffffffffffffffffffffffffffffffffff82613337565b61337e8683613337565b95508019841693508086168417925050509392505050565b6000819050919050565b60006133bb6133b66133b184612522565b613396565b612522565b9050919050565b6000819050919050565b6133d5836133a0565b6133e96133e1826133c2565b848454613344565b825550505050565b600090565b6133fe6133f1565b6134098184846133cc565b505050565b5b8181101561342d576134226000826133f6565b60018101905061340f565b5050565b601f8211156134725761344381613312565b61344c84613327565b8101602085101561345b578190505b61346f61346785613327565b83018261340e565b50505b505050565b600082821c905092915050565b600061349560001984600802613477565b1980831691505092915050565b60006134ae8383613484565b9150826002028217905092915050565b6134c7826125ab565b67ffffffffffffffff8111156134e0576134df6127c1565b5b6134ea8254612ac8565b6134f5828285613431565b600060209050601f8311600181146135285760008415613516578287015190505b61352085826134a2565b865550613588565b601f19841661353686613312565b60005b8281101561355e57848901518255600182019150602085019450602081019050613539565b8683101561357b5784890151613577601f891682613484565b8355505b6001600288020188555050505b505050505050565b600081519050919050565b600082825260208201905092915050565b60006135b782613590565b6135c1818561359b565b93506135d18185602086016125c7565b6135da816125f1565b840191505092915050565b60006080820190506135fa600083018761268a565b613607602083018661268a565b61361460408301856126f4565b818103606083015261362681846135ac565b905095945050505050565b60008151905061364081612435565b92915050565b60006020828403121561365c5761365b6123ff565b5b600061366a84828501613631565b91505092915050565b7f455243373231456e756d657261626c653a20636f6e736563757469766520747260008201527f616e7366657273206e6f7420737570706f727465640000000000000000000000602082015250565b60006136cf6035836125b6565b91506136da82613673565b604082019050919050565b600060208201905081810360008301526136fe816136c2565b9050919050565b7f4e487b7100000000000000000000000000000000000000000000000000000000600052601260045260246000fd5b7f4552433732313a206d696e7420746f20746865207a65726f2061646472657373600082015250565b600061376a6020836125b6565b915061377582613734565b602082019050919050565b600060208201905081810360008301526137998161375d565b9050919050565b7f4552433732313a20746f6b656e20616c7265616479206d696e74656400000000600082015250565b60006137d6601c836125b6565b91506137e1826137a0565b602082019050919050565b60006020820190508181036000830152613805816137c9565b9050919050565b7f4e487b7100000000000000000000000000000000000000000000000000000000600052601160045260246000fd5b600061384682612522565b915061385183612522565b92508282039050818111156138695761386861380c565b5b92915050565b600061387a82612522565b915061388583612522565b925082820190508082111561389d5761389c61380c565b5b92915050565b7f4e487b7100000000000000000000000000000000000000000000000000000000600052603160045260246000fdfea26469706673582212204f3470b47c9d2185dfa1d35f3147597eb68642cc637c6ae0ec227dac00d5a16564736f6c63430008110033",
  "linkReferences": {},
  "deployedLinkReferences": {}
}