{
  "_format": "hh-sol-artifact-1",
  "contractName": "CreateNFTContract",
  "sourceName": "contracts/CreateNFTContract.sol",
  "abi": [
    {
      "inputs": [
        {
          "internalType": "string",
          "name": "_name",
          "type": "string"
        },
        {
          "internalType": "string",
          "name": "_symbol",
          "type": "string"
        }
      ],
      "stateMutability": "nonpayable",
      "type": "constructor"
    },
    {
      "anonymous": false,
      "inputs": [
        {
          "indexed": true,
          "internalType": "address",
          "name": "account",
          "type": "address"
        },
        {
          "indexed": true,
          "internalType": "address",
          "name": "operator",
          "type": "address"
        },
        {
          "indexed": false,
          "internalType": "bool",
          "name": "approved",
          "type": "bool"
        }
      ],
      "name": "ApprovalForAll",
      "type": "event"
    },
    {
      "anonymous": false,
      "inputs": [
        {
          "indexed": true,
          "internalType": "address",
          "name": "previousOwner",
          "type": "address"
        },
        {
          "indexed": true,
          "internalType": "address",
          "name": "newOwner",
          "type": "address"
        }
      ],
      "name": "OwnershipTransferred",
      "type": "event"
    },
    {
      "anonymous": false,
      "inputs": [
        {
          "indexed": true,
          "internalType": "address",
          "name": "operator",
          "type": "address"
        },
        {
          "indexed": true,
          "internalType": "address",
          "name": "from",
          "type": "address"
        },
        {
          "indexed": true,
          "internalType": "address",
          "name": "to",
          "type": "address"
        },
        {
          "indexed": false,
          "internalType": "uint256[]",
          "name": "ids",
          "type": "uint256[]"
        },
        {
          "indexed": false,
          "internalType": "uint256[]",
          "name": "values",
          "type": "uint256[]"
        }
      ],
      "name": "TransferBatch",
      "type": "event"
    },
    {
      "anonymous": false,
      "inputs": [
        {
          "indexed": true,
          "internalType": "address",
          "name": "operator",
          "type": "address"
        },
        {
          "indexed": true,
          "internalType": "address",
          "name": "from",
          "type": "address"
        },
        {
          "indexed": true,
          "internalType": "address",
          "name": "to",
          "type": "address"
        },
        {
          "indexed": false,
          "internalType": "uint256",
          "name": "id",
          "type": "uint256"
        },
        {
          "indexed": false,
          "internalType": "uint256",
          "name": "value",
          "type": "uint256"
        }
      ],
      "name": "TransferSingle",
      "type": "event"
    },
    {
      "anonymous": false,
      "inputs": [
        {
          "indexed": false,
          "internalType": "string",
          "name": "value",
          "type": "string"
        },
        {
          "indexed": true,
          "internalType": "uint256",
          "name": "id",
          "type": "uint256"
        }
      ],
      "name": "URI",
      "type": "event"
    },
    {
      "inputs": [],
      "name": "Common",
      "outputs": [
        {
          "internalType": "uint256",
          "name": "",
          "type": "uint256"
        }
      ],
      "stateMutability": "view",
      "type": "function"
    },
    {
      "inputs": [],
      "name": "Epic",
      "outputs": [
        {
          "internalType": "uint256",
          "name": "",
          "type": "uint256"
        }
      ],
      "stateMutability": "view",
      "type": "function"
    },
    {
      "inputs": [],
      "name": "Legendary",
      "outputs": [
        {
          "internalType": "uint256",
          "name": "",
          "type": "uint256"
        }
      ],
      "stateMutability": "view",
      "type": "function"
    },
    {
      "inputs": [],
      "name": "Mastercraft",
      "outputs": [
        {
          "internalType": "uint256",
          "name": "",
          "type": "uint256"
        }
      ],
      "stateMutability": "view",
      "type": "function"
    },
    {
      "inputs": [],
      "name": "Rare",
      "outputs": [
        {
          "internalType": "uint256",
          "name": "",
          "type": "uint256"
        }
      ],
      "stateMutability": "view",
      "type": "function"
    },
    {
      "inputs": [],
      "name": "Uncommon",
      "outputs": [
        {
          "internalType": "uint256",
          "name": "",
          "type": "uint256"
        }
      ],
      "stateMutability": "view",
      "type": "function"
    },
    {
      "inputs": [
        {
          "internalType": "address",
          "name": "account",
          "type": "address"
        },
        {
          "internalType": "uint256",
          "name": "id",
          "type": "uint256"
        }
      ],
      "name": "balanceOf",
      "outputs": [
        {
          "internalType": "uint256",
          "name": "",
          "type": "uint256"
        }
      ],
      "stateMutability": "view",
      "type": "function"
    },
    {
      "inputs": [
        {
          "internalType": "address[]",
          "name": "accounts",
          "type": "address[]"
        },
        {
          "internalType": "uint256[]",
          "name": "ids",
          "type": "uint256[]"
        }
      ],
      "name": "balanceOfBatch",
      "outputs": [
        {
          "internalType": "uint256[]",
          "name": "",
          "type": "uint256[]"
        }
      ],
      "stateMutability": "view",
      "type": "function"
    },
    {
      "inputs": [
        {
          "internalType": "uint256[]",
          "name": "ids",
          "type": "uint256[]"
        },
        {
          "internalType": "uint256[]",
          "name": "amounts",
          "type": "uint256[]"
        },
        {
          "internalType": "bytes[]",
          "name": "data",
          "type": "bytes[]"
        }
      ],
      "name": "batchMinting",
      "outputs": [],
      "stateMutability": "nonpayable",
      "type": "function"
    },
    {
      "inputs": [
        {
          "internalType": "uint256",
          "name": "id",
          "type": "uint256"
        }
      ],
      "name": "exists",
      "outputs": [
        {
          "internalType": "bool",
          "name": "",
          "type": "bool"
        }
      ],
      "stateMutability": "view",
      "type": "function"
    },
    {
      "inputs": [
        {
          "internalType": "address",
          "name": "account",
          "type": "address"
        },
        {
          "internalType": "address",
          "name": "operator",
          "type": "address"
        }
      ],
      "name": "isApprovedForAll",
      "outputs": [
        {
          "internalType": "bool",
          "name": "",
          "type": "bool"
        }
      ],
      "stateMutability": "view",
      "type": "function"
    },
    {
      "inputs": [],
      "name": "name",
      "outputs": [
        {
          "internalType": "string",
          "name": "",
          "type": "string"
        }
      ],
      "stateMutability": "view",
      "type": "function"
    },
    {
      "inputs": [
        {
          "internalType": "uint256[]",
          "name": "ids",
          "type": "uint256[]"
        },
        {
          "internalType": "uint256[]",
          "name": "amounts",
          "type": "uint256[]"
        },
        {
          "internalType": "bytes",
          "name": "data",
          "type": "bytes"
        }
      ],
      "name": "newBatch",
      "outputs": [],
      "stateMutability": "nonpayable",
      "type": "function"
    },
    {
      "inputs": [],
      "name": "owner",
      "outputs": [
        {
          "internalType": "address",
          "name": "",
          "type": "address"
        }
      ],
      "stateMutability": "view",
      "type": "function"
    },
    {
      "inputs": [],
      "name": "renounceOwnership",
      "outputs": [],
      "stateMutability": "nonpayable",
      "type": "function"
    },
    {
      "inputs": [
        {
          "internalType": "address",
          "name": "from",
          "type": "address"
        },
        {
          "internalType": "address",
          "name": "to",
          "type": "address"
        },
        {
          "internalType": "uint256[]",
          "name": "ids",
          "type": "uint256[]"
        },
        {
          "internalType": "uint256[]",
          "name": "amounts",
          "type": "uint256[]"
        },
        {
          "internalType": "bytes",
          "name": "data",
          "type": "bytes"
        }
      ],
      "name": "safeBatchTransferFrom",
      "outputs": [],
      "stateMutability": "nonpayable",
      "type": "function"
    },
    {
      "inputs": [
        {
          "internalType": "address",
          "name": "from",
          "type": "address"
        },
        {
          "internalType": "address",
          "name": "to",
          "type": "address"
        },
        {
          "internalType": "uint256",
          "name": "id",
          "type": "uint256"
        },
        {
          "internalType": "uint256",
          "name": "amount",
          "type": "uint256"
        },
        {
          "internalType": "bytes",
          "name": "data",
          "type": "bytes"
        }
      ],
      "name": "safeTransferFrom",
      "outputs": [],
      "stateMutability": "nonpayable",
      "type": "function"
    },
    {
      "inputs": [
        {
          "internalType": "address",
          "name": "operator",
          "type": "address"
        },
        {
          "internalType": "bool",
          "name": "approved",
          "type": "bool"
        }
      ],
      "name": "setApprovalForAll",
      "outputs": [],
      "stateMutability": "nonpayable",
      "type": "function"
    },
    {
      "inputs": [
        {
          "internalType": "string",
          "name": "newuri",
          "type": "string"
        }
      ],
      "name": "setURI",
      "outputs": [],
      "stateMutability": "nonpayable",
      "type": "function"
    },
    {
      "inputs": [
        {
          "internalType": "bytes4",
          "name": "interfaceId",
          "type": "bytes4"
        }
      ],
      "name": "supportsInterface",
      "outputs": [
        {
          "internalType": "bool",
          "name": "",
          "type": "bool"
        }
      ],
      "stateMutability": "view",
      "type": "function"
    },
    {
      "inputs": [],
      "name": "symbol",
      "outputs": [
        {
          "internalType": "string",
          "name": "",
          "type": "string"
        }
      ],
      "stateMutability": "view",
      "type": "function"
    },
    {
      "inputs": [
        {
          "internalType": "uint256",
          "name": "id",
          "type": "uint256"
        }
      ],
      "name": "totalSupply",
      "outputs": [
        {
          "internalType": "uint256",
          "name": "",
          "type": "uint256"
        }
      ],
      "stateMutability": "view",
      "type": "function"
    },
    {
      "inputs": [
        {
          "internalType": "address",
          "name": "newOwner",
          "type": "address"
        }
      ],
      "name": "transferOwnership",
      "outputs": [],
      "stateMutability": "nonpayable",
      "type": "function"
    },
    {
      "inputs": [
        {
          "internalType": "uint256",
          "name": "tokenId",
          "type": "uint256"
        }
      ],
      "name": "uri",
      "outputs": [
        {
          "internalType": "string",
          "name": "",
          "type": "string"
        }
      ],
      "stateMutability": "pure",
      "type": "function"
    }
  ],
  "bytecode": "0x60806040523480156200001157600080fd5b50604051620043ca380380620043ca83398181016040528101906200003791906200031b565b604051806020016040528060008152506200005881620000a560201b60201c565b50620000796200006d620000ba60201b60201c565b620000c260201b60201c565b81600590816200008a9190620005eb565b5080600690816200009c9190620005eb565b505050620006d2565b8060029081620000b69190620005eb565b5050565b600033905090565b6000600360009054906101000a900473ffffffffffffffffffffffffffffffffffffffff16905081600360006101000a81548173ffffffffffffffffffffffffffffffffffffffff021916908373ffffffffffffffffffffffffffffffffffffffff1602179055508173ffffffffffffffffffffffffffffffffffffffff168173ffffffffffffffffffffffffffffffffffffffff167f8be0079c531659141344cd1fd0a4f28419497f9722a3daafe3b4186f6b6457e060405160405180910390a35050565b6000604051905090565b600080fd5b600080fd5b600080fd5b600080fd5b6000601f19601f8301169050919050565b7f4e487b7100000000000000000000000000000000000000000000000000000000600052604160045260246000fd5b620001f182620001a6565b810181811067ffffffffffffffff82111715620002135762000212620001b7565b5b80604052505050565b60006200022862000188565b9050620002368282620001e6565b919050565b600067ffffffffffffffff821115620002595762000258620001b7565b5b6200026482620001a6565b9050602081019050919050565b60005b838110156200029157808201518184015260208101905062000274565b60008484015250505050565b6000620002b4620002ae846200023b565b6200021c565b905082815260208101848484011115620002d357620002d2620001a1565b5b620002e084828562000271565b509392505050565b600082601f8301126200030057620002ff6200019c565b5b8151620003128482602086016200029d565b91505092915050565b6000806040838503121562000335576200033462000192565b5b600083015167ffffffffffffffff81111562000356576200035562000197565b5b6200036485828601620002e8565b925050602083015167ffffffffffffffff81111562000388576200038762000197565b5b6200039685828601620002e8565b9150509250929050565b600081519050919050565b7f4e487b7100000000000000000000000000000000000000000000000000000000600052602260045260246000fd5b60006002820490506001821680620003f357607f821691505b602082108103620004095762000408620003ab565b5b50919050565b60008190508160005260206000209050919050565b60006020601f8301049050919050565b600082821b905092915050565b600060088302620004737fffffffffffffffffffffffffffffffffffffffffffffffffffffffffffffffff8262000434565b6200047f868362000434565b95508019841693508086168417925050509392505050565b6000819050919050565b6000819050919050565b6000620004cc620004c6620004c08462000497565b620004a1565b62000497565b9050919050565b6000819050919050565b620004e883620004ab565b62000500620004f782620004d3565b84845462000441565b825550505050565b600090565b6200051762000508565b62000524818484620004dd565b505050565b5b818110156200054c57620005406000826200050d565b6001810190506200052a565b5050565b601f8211156200059b5762000565816200040f565b620005708462000424565b8101602085101562000580578190505b620005986200058f8562000424565b83018262000529565b50505b505050565b600082821c905092915050565b6000620005c060001984600802620005a0565b1980831691505092915050565b6000620005db8383620005ad565b9150826002028217905092915050565b620005f682620003a0565b67ffffffffffffffff811115620006125762000611620001b7565b5b6200061e8254620003da565b6200062b82828562000550565b600060209050601f8311600181146200066357600084156200064e578287015190505b6200065a8582620005cd565b865550620006ca565b601f19841662000673866200040f565b60005b828110156200069d5784890151825560018201915060208501945060208101905062000676565b86831015620006bd5784890151620006b9601f891682620005ad565b8355505b6001600288020188555050505b505050505050565b613ce880620006e26000396000f3fe608060405234801561001057600080fd5b50600436106101575760003560e01c8063715018a6116100c3578063bd85b0391161007c578063bd85b039146103b6578063c5764910146103e6578063d0bc806c14610402578063e985e9c514610420578063f242432a14610450578063f2fde38b1461046c57610157565b8063715018a6146103185780638da5cb5b1461032257806395d89b4114610340578063a22cb4651461035e578063a31498651461037a578063ab4fdef71461039857610157565b80632c05a06a116101155780632c05a06a146102445780632eb2c2d614610262578063323c59c41461027e57806340ef73641461029c5780634e1273f4146102b85780634f558e79146102e857610157565b8062fdd58e1461015c57806301ffc9a71461018c57806302fe5305146101bc57806306fdde03146101d85780630e89341c146101f657806315ce629114610226575b600080fd5b61017660048036038101906101719190612296565b610488565b60405161018391906122e5565b60405180910390f35b6101a660048036038101906101a19190612358565b610550565b6040516101b391906123a0565b60405180910390f35b6101d660048036038101906101d19190612501565b610632565b005b6101e0610646565b6040516101ed91906125c9565b60405180910390f35b610210600480360381019061020b91906125eb565b6106d4565b60405161021d91906125c9565b60405180910390f35b61022e610705565b60405161023b91906122e5565b60405180910390f35b61024c61070a565b60405161025991906122e5565b60405180910390f35b61027c60048036038101906102779190612781565b61070f565b005b6102866107b0565b60405161029391906122e5565b60405180910390f35b6102b660048036038101906102b19190612931565b6107b5565b005b6102d260048036038101906102cd9190612a9b565b610846565b6040516102df9190612bd1565b60405180910390f35b61030260048036038101906102fd91906125eb565b61095f565b60405161030f91906123a0565b60405180910390f35b610320610973565b005b61032a610987565b6040516103379190612c02565b60405180910390f35b6103486109b1565b60405161035591906125c9565b60405180910390f35b61037860048036038101906103739190612c49565b610a3f565b005b610382610a55565b60405161038f91906122e5565b60405180910390f35b6103a0610a5a565b6040516103ad91906122e5565b60405180910390f35b6103d060048036038101906103cb91906125eb565b610a5f565b6040516103dd91906122e5565b60405180910390f35b61040060048036038101906103fb9190612c89565b610a7c565b005b61040a610ade565b60405161041791906122e5565b60405180910390f35b61043a60048036038101906104359190612d30565b610ae3565b60405161044791906123a0565b60405180910390f35b61046a60048036038101906104659190612d70565b610b77565b005b61048660048036038101906104819190612e07565b610c18565b005b60008073ffffffffffffffffffffffffffffffffffffffff168373ffffffffffffffffffffffffffffffffffffffff16036104f8576040517f08c379a00000000000000000000000000000000000000000000000000000000081526004016104ef90612ea6565b60405180910390fd5b60008083815260200190815260200160002060008473ffffffffffffffffffffffffffffffffffffffff1673ffffffffffffffffffffffffffffffffffffffff16815260200190815260200160002054905092915050565b60007fd9b67a26000000000000000000000000000000000000000000000000000000007bffffffffffffffffffffffffffffffffffffffffffffffffffffffff1916827bffffffffffffffffffffffffffffffffffffffffffffffffffffffff1916148061061b57507f0e89341c000000000000000000000000000000000000000000000000000000007bffffffffffffffffffffffffffffffffffffffffffffffffffffffff1916827bffffffffffffffffffffffffffffffffffffffffffffffffffffffff1916145b8061062b575061062a82610c9b565b5b9050919050565b61063a610d05565b61064381610d83565b50565b6005805461065390612ef5565b80601f016020809104026020016040519081016040528092919081815260200182805461067f90612ef5565b80156106cc5780601f106106a1576101008083540402835291602001916106cc565b820191906000526020600020905b8154815290600101906020018083116106af57829003601f168201915b505050505081565b60606106df82610d96565b6040516020016106ef9190612fd4565b6040516020818303038152906040529050919050565b600181565b600381565b610717610e64565b73ffffffffffffffffffffffffffffffffffffffff168573ffffffffffffffffffffffffffffffffffffffff16148061075d575061075c85610757610e64565b610ae3565b5b61079c576040517f08c379a000000000000000000000000000000000000000000000000000000000815260040161079390613073565b60405180910390fd5b6107a98585858585610e6c565b5050505050565b600581565b60005b83518110156108405760008482815181106107d6576107d5613093565b5b6020026020010151905060008483815181106107f5576107f4613093565b5b60200260200101519050600084848151811061081457610813613093565b5b6020026020010151905061082a3384848461118d565b5050508080610838906130f1565b9150506107b8565b50505050565b6060815183511461088c576040517f08c379a0000000000000000000000000000000000000000000000000000000008152600401610883906131ab565b60405180910390fd5b6000835167ffffffffffffffff8111156108a9576108a86123d6565b5b6040519080825280602002602001820160405280156108d75781602001602082028036833780820191505090505b50905060005b8451811015610954576109248582815181106108fc576108fb613093565b5b602002602001015185838151811061091757610916613093565b5b6020026020010151610488565b82828151811061093757610936613093565b5b6020026020010181815250508061094d906130f1565b90506108dd565b508091505092915050565b60008061096b83610a5f565b119050919050565b61097b610d05565b610985600061119f565b565b6000600360009054906101000a900473ffffffffffffffffffffffffffffffffffffffff16905090565b600680546109be90612ef5565b80601f01602080910402602001604051908101604052809291908181526020018280546109ea90612ef5565b8015610a375780601f10610a0c57610100808354040283529160200191610a37565b820191906000526020600020905b815481529060010190602001808311610a1a57829003601f168201915b505050505081565b610a51610a4a610e64565b8383611265565b5050565b600281565b600481565b600060046000838152602001908152602001600020549050919050565b6001835103610acc57610ac73384600081518110610a9d57610a9c613093565b5b602002602001015184600081518110610ab957610ab8613093565b5b60200260200101518461118d565b610ad9565b610ad8338484846113d1565b5b505050565b600081565b6000600160008473ffffffffffffffffffffffffffffffffffffffff1673ffffffffffffffffffffffffffffffffffffffff16815260200190815260200160002060008373ffffffffffffffffffffffffffffffffffffffff1673ffffffffffffffffffffffffffffffffffffffff16815260200190815260200160002060009054906101000a900460ff16905092915050565b610b7f610e64565b73ffffffffffffffffffffffffffffffffffffffff168573ffffffffffffffffffffffffffffffffffffffff161480610bc55750610bc485610bbf610e64565b610ae3565b5b610c04576040517f08c379a0000000000000000000000000000000000000000000000000000000008152600401610bfb90613073565b60405180910390fd5b610c1185858585856113e3565b5050505050565b610c20610d05565b600073ffffffffffffffffffffffffffffffffffffffff168173ffffffffffffffffffffffffffffffffffffffff1603610c8f576040517f08c379a0000000000000000000000000000000000000000000000000000000008152600401610c869061323d565b60405180910390fd5b610c988161119f565b50565b60007f01ffc9a7000000000000000000000000000000000000000000000000000000007bffffffffffffffffffffffffffffffffffffffffffffffffffffffff1916827bffffffffffffffffffffffffffffffffffffffffffffffffffffffff1916149050919050565b610d0d610e64565b73ffffffffffffffffffffffffffffffffffffffff16610d2b610987565b73ffffffffffffffffffffffffffffffffffffffff1614610d81576040517f08c379a0000000000000000000000000000000000000000000000000000000008152600401610d78906132a9565b60405180910390fd5b565b8060029081610d929190613475565b5050565b606060006001610da58461167e565b01905060008167ffffffffffffffff811115610dc457610dc36123d6565b5b6040519080825280601f01601f191660200182016040528015610df65781602001600182028036833780820191505090505b509050600082602001820190505b600115610e59578080600190039150507f3031323334353637383961626364656600000000000000000000000000000000600a86061a8153600a8581610e4d57610e4c613547565b5b04945060008503610e04575b819350505050919050565b600033905090565b8151835114610eb0576040517f08c379a0000000000000000000000000000000000000000000000000000000008152600401610ea7906135e8565b60405180910390fd5b600073ffffffffffffffffffffffffffffffffffffffff168473ffffffffffffffffffffffffffffffffffffffff1603610f1f576040517f08c379a0000000000000000000000000000000000000000000000000000000008152600401610f169061367a565b60405180910390fd5b6000610f29610e64565b9050610f398187878787876117d1565b60005b84518110156110ea576000858281518110610f5a57610f59613093565b5b602002602001015190506000858381518110610f7957610f78613093565b5b60200260200101519050600080600084815260200190815260200160002060008b73ffffffffffffffffffffffffffffffffffffffff1673ffffffffffffffffffffffffffffffffffffffff1681526020019081526020016000205490508181101561101a576040517f08c379a00000000000000000000000000000000000000000000000000000000081526004016110119061370c565b60405180910390fd5b81810360008085815260200190815260200160002060008c73ffffffffffffffffffffffffffffffffffffffff1673ffffffffffffffffffffffffffffffffffffffff168152602001908152602001600020819055508160008085815260200190815260200160002060008b73ffffffffffffffffffffffffffffffffffffffff1673ffffffffffffffffffffffffffffffffffffffff16815260200190815260200160002060008282546110cf919061372c565b92505081905550505050806110e3906130f1565b9050610f3c565b508473ffffffffffffffffffffffffffffffffffffffff168673ffffffffffffffffffffffffffffffffffffffff168273ffffffffffffffffffffffffffffffffffffffff167f4a39dc06d4c0dbc64b70af90fd698a233a518aa5d07e595d983b8c0526c8f7fb8787604051611161929190613760565b60405180910390a46111778187878787876117e7565b6111858187878787876117ef565b505050505050565b611199848484846119c6565b50505050565b6000600360009054906101000a900473ffffffffffffffffffffffffffffffffffffffff16905081600360006101000a81548173ffffffffffffffffffffffffffffffffffffffff021916908373ffffffffffffffffffffffffffffffffffffffff1602179055508173ffffffffffffffffffffffffffffffffffffffff168173ffffffffffffffffffffffffffffffffffffffff167f8be0079c531659141344cd1fd0a4f28419497f9722a3daafe3b4186f6b6457e060405160405180910390a35050565b8173ffffffffffffffffffffffffffffffffffffffff168373ffffffffffffffffffffffffffffffffffffffff16036112d3576040517f08c379a00000000000000000000000000000000000000000000000000000000081526004016112ca90613809565b60405180910390fd5b80600160008573ffffffffffffffffffffffffffffffffffffffff1673ffffffffffffffffffffffffffffffffffffffff16815260200190815260200160002060008473ffffffffffffffffffffffffffffffffffffffff1673ffffffffffffffffffffffffffffffffffffffff16815260200190815260200160002060006101000a81548160ff0219169083151502179055508173ffffffffffffffffffffffffffffffffffffffff168373ffffffffffffffffffffffffffffffffffffffff167f17307eab39ab6107e8899845ad3d59bd9653f200f220920489ca2b5937696c31836040516113c491906123a0565b60405180910390a3505050565b6113dd84848484611b76565b50505050565b600073ffffffffffffffffffffffffffffffffffffffff168473ffffffffffffffffffffffffffffffffffffffff1603611452576040517f08c379a00000000000000000000000000000000000000000000000000000000081526004016114499061367a565b60405180910390fd5b600061145c610e64565b9050600061146985611da2565b9050600061147685611da2565b90506114868389898585896117d1565b600080600088815260200190815260200160002060008a73ffffffffffffffffffffffffffffffffffffffff1673ffffffffffffffffffffffffffffffffffffffff1681526020019081526020016000205490508581101561151d576040517f08c379a00000000000000000000000000000000000000000000000000000000081526004016115149061370c565b60405180910390fd5b85810360008089815260200190815260200160002060008b73ffffffffffffffffffffffffffffffffffffffff1673ffffffffffffffffffffffffffffffffffffffff168152602001908152602001600020819055508560008089815260200190815260200160002060008a73ffffffffffffffffffffffffffffffffffffffff1673ffffffffffffffffffffffffffffffffffffffff16815260200190815260200160002060008282546115d2919061372c565b925050819055508773ffffffffffffffffffffffffffffffffffffffff168973ffffffffffffffffffffffffffffffffffffffff168573ffffffffffffffffffffffffffffffffffffffff167fc3d58168c5ae7397731d063d5bbf3d657854427343f4c083240f7aacaa2d0f628a8a60405161164f929190613829565b60405180910390a4611665848a8a86868a6117e7565b611673848a8a8a8a8a611e1c565b505050505050505050565b600080600090507a184f03e93ff9f4daa797ed6e38ed64bf6a1f01000000000000000083106116dc577a184f03e93ff9f4daa797ed6e38ed64bf6a1f01000000000000000083816116d2576116d1613547565b5b0492506040810190505b6d04ee2d6d415b85acef81000000008310611719576d04ee2d6d415b85acef8100000000838161170f5761170e613547565b5b0492506020810190505b662386f26fc10000831061174857662386f26fc10000838161173e5761173d613547565b5b0492506010810190505b6305f5e1008310611771576305f5e100838161176757611766613547565b5b0492506008810190505b612710831061179657612710838161178c5761178b613547565b5b0492506004810190505b606483106117b957606483816117af576117ae613547565b5b0492506002810190505b600a83106117c8576001810190505b80915050919050565b6117df868686868686611ff3565b505050505050565b505050505050565b61180e8473ffffffffffffffffffffffffffffffffffffffff166121c3565b156119be578373ffffffffffffffffffffffffffffffffffffffff1663bc197c8187878686866040518663ffffffff1660e01b81526004016118549594939291906138a7565b6020604051808303816000875af192505050801561189057506040513d601f19601f8201168201806040525081019061188d9190613924565b60015b6119355761189c61395e565b806308c379a0036118f857506118b0613980565b806118bb57506118fa565b806040517f08c379a00000000000000000000000000000000000000000000000000000000081526004016118ef91906125c9565b60405180910390fd5b505b6040517f08c379a000000000000000000000000000000000000000000000000000000000815260040161192c90613a82565b60405180910390fd5b63bc197c8160e01b7bffffffffffffffffffffffffffffffffffffffffffffffffffffffff1916817bffffffffffffffffffffffffffffffffffffffffffffffffffffffff1916146119bc576040517f08c379a00000000000000000000000000000000000000000000000000000000081526004016119b390613b14565b60405180910390fd5b505b505050505050565b600073ffffffffffffffffffffffffffffffffffffffff168473ffffffffffffffffffffffffffffffffffffffff1603611a35576040517f08c379a0000000000000000000000000000000000000000000000000000000008152600401611a2c90613ba6565b60405180910390fd5b6000611a3f610e64565b90506000611a4c85611da2565b90506000611a5985611da2565b9050611a6a836000898585896117d1565b8460008088815260200190815260200160002060008973ffffffffffffffffffffffffffffffffffffffff1673ffffffffffffffffffffffffffffffffffffffff1681526020019081526020016000206000828254611ac9919061372c565b925050819055508673ffffffffffffffffffffffffffffffffffffffff16600073ffffffffffffffffffffffffffffffffffffffff168473ffffffffffffffffffffffffffffffffffffffff167fc3d58168c5ae7397731d063d5bbf3d657854427343f4c083240f7aacaa2d0f628989604051611b47929190613829565b60405180910390a4611b5e836000898585896117e7565b611b6d83600089898989611e1c565b50505050505050565b600073ffffffffffffffffffffffffffffffffffffffff168473ffffffffffffffffffffffffffffffffffffffff1603611be5576040517f08c379a0000000000000000000000000000000000000000000000000000000008152600401611bdc90613ba6565b60405180910390fd5b8151835114611c29576040517f08c379a0000000000000000000000000000000000000000000000000000000008152600401611c20906135e8565b60405180910390fd5b6000611c33610e64565b9050611c44816000878787876117d1565b60005b8451811015611cfd57838181518110611c6357611c62613093565b5b6020026020010151600080878481518110611c8157611c80613093565b5b6020026020010151815260200190815260200160002060008873ffffffffffffffffffffffffffffffffffffffff1673ffffffffffffffffffffffffffffffffffffffff1681526020019081526020016000206000828254611ce3919061372c565b925050819055508080611cf5906130f1565b915050611c47565b508473ffffffffffffffffffffffffffffffffffffffff16600073ffffffffffffffffffffffffffffffffffffffff168273ffffffffffffffffffffffffffffffffffffffff167f4a39dc06d4c0dbc64b70af90fd698a233a518aa5d07e595d983b8c0526c8f7fb8787604051611d75929190613760565b60405180910390a4611d8c816000878787876117e7565b611d9b816000878787876117ef565b5050505050565b60606000600167ffffffffffffffff811115611dc157611dc06123d6565b5b604051908082528060200260200182016040528015611def5781602001602082028036833780820191505090505b5090508281600081518110611e0757611e06613093565b5b60200260200101818152505080915050919050565b611e3b8473ffffffffffffffffffffffffffffffffffffffff166121c3565b15611feb578373ffffffffffffffffffffffffffffffffffffffff1663f23a6e6187878686866040518663ffffffff1660e01b8152600401611e81959493929190613bc6565b6020604051808303816000875af1925050508015611ebd57506040513d601f19601f82011682018060405250810190611eba9190613924565b60015b611f6257611ec961395e565b806308c379a003611f255750611edd613980565b80611ee85750611f27565b806040517f08c379a0000000000000000000000000000000000000000000000000000000008152600401611f1c91906125c9565b60405180910390fd5b505b6040517f08c379a0000000000000000000000000000000000000000000000000000000008152600401611f5990613a82565b60405180910390fd5b63f23a6e6160e01b7bffffffffffffffffffffffffffffffffffffffffffffffffffffffff1916817bffffffffffffffffffffffffffffffffffffffffffffffffffffffff191614611fe9576040517f08c379a0000000000000000000000000000000000000000000000000000000008152600401611fe090613b14565b60405180910390fd5b505b505050505050565b6120018686868686866121e6565b600073ffffffffffffffffffffffffffffffffffffffff168573ffffffffffffffffffffffffffffffffffffffff16036120b25760005b83518110156120b05782818151811061205457612053613093565b5b60200260200101516004600086848151811061207357612072613093565b5b602002602001015181526020019081526020016000206000828254612098919061372c565b92505081905550806120a9906130f1565b9050612038565b505b600073ffffffffffffffffffffffffffffffffffffffff168473ffffffffffffffffffffffffffffffffffffffff16036121bb5760005b83518110156121b957600084828151811061210757612106613093565b5b60200260200101519050600084838151811061212657612125613093565b5b602002602001015190506000600460008481526020019081526020016000205490508181101561218b576040517f08c379a000000000000000000000000000000000000000000000000000000000815260040161218290613c92565b60405180910390fd5b8181036004600085815260200190815260200160002081905550505050806121b2906130f1565b90506120e9565b505b505050505050565b6000808273ffffffffffffffffffffffffffffffffffffffff163b119050919050565b505050505050565b6000604051905090565b600080fd5b600080fd5b600073ffffffffffffffffffffffffffffffffffffffff82169050919050565b600061222d82612202565b9050919050565b61223d81612222565b811461224857600080fd5b50565b60008135905061225a81612234565b92915050565b6000819050919050565b61227381612260565b811461227e57600080fd5b50565b6000813590506122908161226a565b92915050565b600080604083850312156122ad576122ac6121f8565b5b60006122bb8582860161224b565b92505060206122cc85828601612281565b9150509250929050565b6122df81612260565b82525050565b60006020820190506122fa60008301846122d6565b92915050565b60007fffffffff0000000000000000000000000000000000000000000000000000000082169050919050565b61233581612300565b811461234057600080fd5b50565b6000813590506123528161232c565b92915050565b60006020828403121561236e5761236d6121f8565b5b600061237c84828501612343565b91505092915050565b60008115159050919050565b61239a81612385565b82525050565b60006020820190506123b56000830184612391565b92915050565b600080fd5b600080fd5b6000601f19601f8301169050919050565b7f4e487b7100000000000000000000000000000000000000000000000000000000600052604160045260246000fd5b61240e826123c5565b810181811067ffffffffffffffff8211171561242d5761242c6123d6565b5b80604052505050565b60006124406121ee565b905061244c8282612405565b919050565b600067ffffffffffffffff82111561246c5761246b6123d6565b5b612475826123c5565b9050602081019050919050565b82818337600083830152505050565b60006124a461249f84612451565b612436565b9050828152602081018484840111156124c0576124bf6123c0565b5b6124cb848285612482565b509392505050565b600082601f8301126124e8576124e76123bb565b5b81356124f8848260208601612491565b91505092915050565b600060208284031215612517576125166121f8565b5b600082013567ffffffffffffffff811115612535576125346121fd565b5b612541848285016124d3565b91505092915050565b600081519050919050565b600082825260208201905092915050565b60005b83811015612584578082015181840152602081019050612569565b60008484015250505050565b600061259b8261254a565b6125a58185612555565b93506125b5818560208601612566565b6125be816123c5565b840191505092915050565b600060208201905081810360008301526125e38184612590565b905092915050565b600060208284031215612601576126006121f8565b5b600061260f84828501612281565b91505092915050565b600067ffffffffffffffff821115612633576126326123d6565b5b602082029050602081019050919050565b600080fd5b600061265c61265784612618565b612436565b9050808382526020820190506020840283018581111561267f5761267e612644565b5b835b818110156126a857806126948882612281565b845260208401935050602081019050612681565b5050509392505050565b600082601f8301126126c7576126c66123bb565b5b81356126d7848260208601612649565b91505092915050565b600067ffffffffffffffff8211156126fb576126fa6123d6565b5b612704826123c5565b9050602081019050919050565b600061272461271f846126e0565b612436565b9050828152602081018484840111156127405761273f6123c0565b5b61274b848285612482565b509392505050565b600082601f830112612768576127676123bb565b5b8135612778848260208601612711565b91505092915050565b600080600080600060a0868803121561279d5761279c6121f8565b5b60006127ab8882890161224b565b95505060206127bc8882890161224b565b945050604086013567ffffffffffffffff8111156127dd576127dc6121fd565b5b6127e9888289016126b2565b935050606086013567ffffffffffffffff81111561280a576128096121fd565b5b612816888289016126b2565b925050608086013567ffffffffffffffff811115612837576128366121fd565b5b61284388828901612753565b9150509295509295909350565b600067ffffffffffffffff82111561286b5761286a6123d6565b5b602082029050602081019050919050565b600061288f61288a84612850565b612436565b905080838252602082019050602084028301858111156128b2576128b1612644565b5b835b818110156128f957803567ffffffffffffffff8111156128d7576128d66123bb565b5b8086016128e48982612753565b855260208501945050506020810190506128b4565b5050509392505050565b600082601f830112612918576129176123bb565b5b813561292884826020860161287c565b91505092915050565b60008060006060848603121561294a576129496121f8565b5b600084013567ffffffffffffffff811115612968576129676121fd565b5b612974868287016126b2565b935050602084013567ffffffffffffffff811115612995576129946121fd565b5b6129a1868287016126b2565b925050604084013567ffffffffffffffff8111156129c2576129c16121fd565b5b6129ce86828701612903565b9150509250925092565b600067ffffffffffffffff8211156129f3576129f26123d6565b5b602082029050602081019050919050565b6000612a17612a12846129d8565b612436565b90508083825260208201905060208402830185811115612a3a57612a39612644565b5b835b81811015612a635780612a4f888261224b565b845260208401935050602081019050612a3c565b5050509392505050565b600082601f830112612a8257612a816123bb565b5b8135612a92848260208601612a04565b91505092915050565b60008060408385031215612ab257612ab16121f8565b5b600083013567ffffffffffffffff811115612ad057612acf6121fd565b5b612adc85828601612a6d565b925050602083013567ffffffffffffffff811115612afd57612afc6121fd565b5b612b09858286016126b2565b9150509250929050565b600081519050919050565b600082825260208201905092915050565b6000819050602082019050919050565b612b4881612260565b82525050565b6000612b5a8383612b3f565b60208301905092915050565b6000602082019050919050565b6000612b7e82612b13565b612b888185612b1e565b9350612b9383612b2f565b8060005b83811015612bc4578151612bab8882612b4e565b9750612bb683612b66565b925050600181019050612b97565b5085935050505092915050565b60006020820190508181036000830152612beb8184612b73565b905092915050565b612bfc81612222565b82525050565b6000602082019050612c176000830184612bf3565b92915050565b612c2681612385565b8114612c3157600080fd5b50565b600081359050612c4381612c1d565b92915050565b60008060408385031215612c6057612c5f6121f8565b5b6000612c6e8582860161224b565b9250506020612c7f85828601612c34565b9150509250929050565b600080600060608486031215612ca257612ca16121f8565b5b600084013567ffffffffffffffff811115612cc057612cbf6121fd565b5b612ccc868287016126b2565b935050602084013567ffffffffffffffff811115612ced57612cec6121fd565b5b612cf9868287016126b2565b925050604084013567ffffffffffffffff811115612d1a57612d196121fd565b5b612d2686828701612753565b9150509250925092565b60008060408385031215612d4757612d466121f8565b5b6000612d558582860161224b565b9250506020612d668582860161224b565b9150509250929050565b600080600080600060a08688031215612d8c57612d8b6121f8565b5b6000612d9a8882890161224b565b9550506020612dab8882890161224b565b9450506040612dbc88828901612281565b9350506060612dcd88828901612281565b925050608086013567ffffffffffffffff811115612dee57612ded6121fd565b5b612dfa88828901612753565b9150509295509295909350565b600060208284031215612e1d57612e1c6121f8565b5b6000612e2b8482850161224b565b91505092915050565b7f455243313135353a2061646472657373207a65726f206973206e6f742061207660008201527f616c6964206f776e657200000000000000000000000000000000000000000000602082015250565b6000612e90602a83612555565b9150612e9b82612e34565b604082019050919050565b60006020820190508181036000830152612ebf81612e83565b9050919050565b7f4e487b7100000000000000000000000000000000000000000000000000000000600052602260045260246000fd5b60006002820490506001821680612f0d57607f821691505b602082108103612f2057612f1f612ec6565b5b50919050565b600081905092915050565b50565b6000612f41600083612f26565b9150612f4c82612f31565b600082019050919050565b6000612f628261254a565b612f6c8185612f26565b9350612f7c818560208601612566565b80840191505092915050565b7f2e6a736f6e000000000000000000000000000000000000000000000000000000600082015250565b6000612fbe600583612f26565b9150612fc982612f88565b600582019050919050565b6000612fdf82612f34565b9150612feb8284612f57565b9150612ff682612fb1565b915081905092915050565b7f455243313135353a2063616c6c6572206973206e6f7420746f6b656e206f776e60008201527f6572206f7220617070726f766564000000000000000000000000000000000000602082015250565b600061305d602e83612555565b915061306882613001565b604082019050919050565b6000602082019050818103600083015261308c81613050565b9050919050565b7f4e487b7100000000000000000000000000000000000000000000000000000000600052603260045260246000fd5b7f4e487b7100000000000000000000000000000000000000000000000000000000600052601160045260246000fd5b60006130fc82612260565b91507fffffffffffffffffffffffffffffffffffffffffffffffffffffffffffffffff820361312e5761312d6130c2565b5b600182019050919050565b7f455243313135353a206163636f756e747320616e6420696473206c656e67746860008201527f206d69736d617463680000000000000000000000000000000000000000000000602082015250565b6000613195602983612555565b91506131a082613139565b604082019050919050565b600060208201905081810360008301526131c481613188565b9050919050565b7f4f776e61626c653a206e6577206f776e657220697320746865207a65726f206160008201527f6464726573730000000000000000000000000000000000000000000000000000602082015250565b6000613227602683612555565b9150613232826131cb565b604082019050919050565b600060208201905081810360008301526132568161321a565b9050919050565b7f4f776e61626c653a2063616c6c6572206973206e6f7420746865206f776e6572600082015250565b6000613293602083612555565b915061329e8261325d565b602082019050919050565b600060208201905081810360008301526132c281613286565b9050919050565b60008190508160005260206000209050919050565b60006020601f8301049050919050565b600082821b905092915050565b60006008830261332b7fffffffffffffffffffffffffffffffffffffffffffffffffffffffffffffffff826132ee565b61333586836132ee565b95508019841693508086168417925050509392505050565b6000819050919050565b600061337261336d61336884612260565b61334d565b612260565b9050919050565b6000819050919050565b61338c83613357565b6133a061339882613379565b8484546132fb565b825550505050565b600090565b6133b56133a8565b6133c0818484613383565b505050565b5b818110156133e4576133d96000826133ad565b6001810190506133c6565b5050565b601f821115613429576133fa816132c9565b613403846132de565b81016020851015613412578190505b61342661341e856132de565b8301826133c5565b50505b505050565b600082821c905092915050565b600061344c6000198460080261342e565b1980831691505092915050565b6000613465838361343b565b9150826002028217905092915050565b61347e8261254a565b67ffffffffffffffff811115613497576134966123d6565b5b6134a18254612ef5565b6134ac8282856133e8565b600060209050601f8311600181146134df57600084156134cd578287015190505b6134d78582613459565b86555061353f565b601f1984166134ed866132c9565b60005b82811015613515578489015182556001820191506020850194506020810190506134f0565b86831015613532578489015161352e601f89168261343b565b8355505b6001600288020188555050505b505050505050565b7f4e487b7100000000000000000000000000000000000000000000000000000000600052601260045260246000fd5b7f455243313135353a2069647320616e6420616d6f756e7473206c656e6774682060008201527f6d69736d61746368000000000000000000000000000000000000000000000000602082015250565b60006135d2602883612555565b91506135dd82613576565b604082019050919050565b60006020820190508181036000830152613601816135c5565b9050919050565b7f455243313135353a207472616e7366657220746f20746865207a65726f20616460008201527f6472657373000000000000000000000000000000000000000000000000000000602082015250565b6000613664602583612555565b915061366f82613608565b604082019050919050565b6000602082019050818103600083015261369381613657565b9050919050565b7f455243313135353a20696e73756666696369656e742062616c616e636520666f60008201527f72207472616e7366657200000000000000000000000000000000000000000000602082015250565b60006136f6602a83612555565b91506137018261369a565b604082019050919050565b60006020820190508181036000830152613725816136e9565b9050919050565b600061373782612260565b915061374283612260565b925082820190508082111561375a576137596130c2565b5b92915050565b6000604082019050818103600083015261377a8185612b73565b9050818103602083015261378e8184612b73565b90509392505050565b7f455243313135353a2073657474696e6720617070726f76616c2073746174757360008201527f20666f722073656c660000000000000000000000000000000000000000000000602082015250565b60006137f3602983612555565b91506137fe82613797565b604082019050919050565b60006020820190508181036000830152613822816137e6565b9050919050565b600060408201905061383e60008301856122d6565b61384b60208301846122d6565b9392505050565b600081519050919050565b600082825260208201905092915050565b600061387982613852565b613883818561385d565b9350613893818560208601612566565b61389c816123c5565b840191505092915050565b600060a0820190506138bc6000830188612bf3565b6138c96020830187612bf3565b81810360408301526138db8186612b73565b905081810360608301526138ef8185612b73565b90508181036080830152613903818461386e565b90509695505050505050565b60008151905061391e8161232c565b92915050565b60006020828403121561393a576139396121f8565b5b60006139488482850161390f565b91505092915050565b60008160e01c9050919050565b600060033d111561397d5760046000803e61397a600051613951565b90505b90565b600060443d10613a0d576139926121ee565b60043d036004823e80513d602482011167ffffffffffffffff821117156139ba575050613a0d565b808201805167ffffffffffffffff8111156139d85750505050613a0d565b80602083010160043d0385018111156139f5575050505050613a0d565b613a0482602001850186612405565b82955050505050505b90565b7f455243313135353a207472616e7366657220746f206e6f6e2d4552433131353560008201527f526563656976657220696d706c656d656e746572000000000000000000000000602082015250565b6000613a6c603483612555565b9150613a7782613a10565b604082019050919050565b60006020820190508181036000830152613a9b81613a5f565b9050919050565b7f455243313135353a204552433131353552656365697665722072656a6563746560008201527f6420746f6b656e73000000000000000000000000000000000000000000000000602082015250565b6000613afe602883612555565b9150613b0982613aa2565b604082019050919050565b60006020820190508181036000830152613b2d81613af1565b9050919050565b7f455243313135353a206d696e7420746f20746865207a65726f2061646472657360008201527f7300000000000000000000000000000000000000000000000000000000000000602082015250565b6000613b90602183612555565b9150613b9b82613b34565b604082019050919050565b60006020820190508181036000830152613bbf81613b83565b9050919050565b600060a082019050613bdb6000830188612bf3565b613be86020830187612bf3565b613bf560408301866122d6565b613c0260608301856122d6565b8181036080830152613c14818461386e565b90509695505050505050565b7f455243313135353a206275726e20616d6f756e74206578636565647320746f7460008201527f616c537570706c79000000000000000000000000000000000000000000000000602082015250565b6000613c7c602883612555565b9150613c8782613c20565b604082019050919050565b60006020820190508181036000830152613cab81613c6f565b905091905056fea2646970667358221220442298d5b934f48bf9c84fdbbf6db6b1f06bf76c40839ece662f1534ebf2dcb064736f6c63430008110033",
  "linkReferences": {},
  "deployedLinkReferences": {}
}