{
  "_format": "hh-sol-artifact-1",
  "contractName": "Staking_pool",
  "sourceName": "contracts/Staking_pool.sol",
  "abi": [
    {
      "inputs": [
        {
          "internalType": "contract MeacToken",
          "name": "_local",
          "type": "address"
        },
        {
          "internalType": "address",
          "name": "_feeAddress",
          "type": "address"
        }
      ],
      "stateMutability": "nonpayable",
      "type": "constructor"
    },
    {
      "anonymous": false,
      "inputs": [
        {
          "indexed": true,
          "internalType": "address",
          "name": "user",
          "type": "address"
        },
        {
          "indexed": true,
          "internalType": "uint256",
          "name": "pid",
          "type": "uint256"
        },
        {
          "indexed": false,
          "internalType": "uint256",
          "name": "amount",
          "type": "uint256"
        }
      ],
      "name": "Deposit",
      "type": "event"
    },
    {
      "anonymous": false,
      "inputs": [
        {
          "indexed": true,
          "internalType": "address",
          "name": "user",
          "type": "address"
        },
        {
          "indexed": true,
          "internalType": "uint256",
          "name": "pid",
          "type": "uint256"
        },
        {
          "indexed": false,
          "internalType": "uint256",
          "name": "amount",
          "type": "uint256"
        }
      ],
      "name": "EmergencyWithdraw",
      "type": "event"
    },
    {
      "anonymous": false,
      "inputs": [
        {
          "indexed": true,
          "internalType": "address",
          "name": "previousOwner",
          "type": "address"
        },
        {
          "indexed": true,
          "internalType": "address",
          "name": "newOwner",
          "type": "address"
        }
      ],
      "name": "OwnershipTransferred",
      "type": "event"
    },
    {
      "anonymous": false,
      "inputs": [
        {
          "indexed": true,
          "internalType": "address",
          "name": "user",
          "type": "address"
        },
        {
          "indexed": true,
          "internalType": "uint256",
          "name": "pid",
          "type": "uint256"
        },
        {
          "indexed": false,
          "internalType": "uint256",
          "name": "amount",
          "type": "uint256"
        }
      ],
      "name": "Withdraw",
      "type": "event"
    },
    {
      "inputs": [
        {
          "internalType": "uint256",
          "name": "_pid",
          "type": "uint256"
        },
        {
          "internalType": "address",
          "name": "account",
          "type": "address"
        },
        {
          "internalType": "uint256",
          "name": "index",
          "type": "uint256"
        }
      ],
      "name": "AuserRewardInfo",
      "outputs": [
        {
          "internalType": "uint256",
          "name": "",
          "type": "uint256"
        },
        {
          "internalType": "uint256",
          "name": "",
          "type": "uint256"
        },
        {
          "internalType": "uint256",
          "name": "",
          "type": "uint256"
        },
        {
          "internalType": "bool",
          "name": "",
          "type": "bool"
        }
      ],
      "stateMutability": "view",
      "type": "function"
    },
    {
      "inputs": [],
      "name": "BONUS_MULTIPLIER",
      "outputs": [
        {
          "internalType": "uint256",
          "name": "",
          "type": "uint256"
        }
      ],
      "stateMutability": "view",
      "type": "function"
    },
    {
      "inputs": [
        {
          "internalType": "contract IERC20",
          "name": "_lpToken",
          "type": "address"
        },
        {
          "internalType": "uint16",
          "name": "_depositFeeBP",
          "type": "uint16"
        }
      ],
      "name": "add",
      "outputs": [],
      "stateMutability": "nonpayable",
      "type": "function"
    },
    {
      "inputs": [
        {
          "internalType": "address",
          "name": "_walletAddress",
          "type": "address"
        },
        {
          "internalType": "uint256",
          "name": "_amount",
          "type": "uint256"
        },
        {
          "internalType": "uint256",
          "name": "_doneDays",
          "type": "uint256"
        },
        {
          "internalType": "uint256",
          "name": "_stakedDays",
          "type": "uint256"
        }
      ],
      "name": "addOldUser",
      "outputs": [],
      "stateMutability": "nonpayable",
      "type": "function"
    },
    {
      "inputs": [
        {
          "internalType": "address[]",
          "name": "_walletAddresses",
          "type": "address[]"
        },
        {
          "internalType": "uint256[]",
          "name": "amounts",
          "type": "uint256[]"
        },
        {
          "internalType": "uint256[]",
          "name": "doneDaysList",
          "type": "uint256[]"
        },
        {
          "internalType": "uint256[]",
          "name": "stakedDaysList",
          "type": "uint256[]"
        }
      ],
      "name": "addOldUsers",
      "outputs": [],
      "stateMutability": "nonpayable",
      "type": "function"
    },
    {
      "inputs": [
        {
          "internalType": "uint256",
          "name": "",
          "type": "uint256"
        }
      ],
      "name": "bonusRateForTime",
      "outputs": [
        {
          "internalType": "uint256",
          "name": "",
          "type": "uint256"
        }
      ],
      "stateMutability": "view",
      "type": "function"
    },
    {
      "inputs": [
        {
          "internalType": "uint256",
          "name": "_pid",
          "type": "uint256"
        },
        {
          "internalType": "uint256",
          "name": "_amount",
          "type": "uint256"
        },
        {
          "internalType": "uint256",
          "name": "_days",
          "type": "uint256"
        }
      ],
      "name": "deposit",
      "outputs": [],
      "stateMutability": "nonpayable",
      "type": "function"
    },
    {
      "inputs": [],
      "name": "feeAddress",
      "outputs": [
        {
          "internalType": "address",
          "name": "",
          "type": "address"
        }
      ],
      "stateMutability": "view",
      "type": "function"
    },
    {
      "inputs": [
        {
          "internalType": "uint256",
          "name": "_days",
          "type": "uint256"
        }
      ],
      "name": "getBonusRateFromLockedDate",
      "outputs": [
        {
          "internalType": "uint256",
          "name": "bonusRate",
          "type": "uint256"
        }
      ],
      "stateMutability": "view",
      "type": "function"
    },
    {
      "inputs": [],
      "name": "local",
      "outputs": [
        {
          "internalType": "contract MeacToken",
          "name": "",
          "type": "address"
        }
      ],
      "stateMutability": "view",
      "type": "function"
    },
    {
      "inputs": [],
      "name": "owner",
      "outputs": [
        {
          "internalType": "address",
          "name": "",
          "type": "address"
        }
      ],
      "stateMutability": "view",
      "type": "function"
    },
    {
      "inputs": [
        {
          "internalType": "uint256",
          "name": "_pid",
          "type": "uint256"
        },
        {
          "internalType": "address",
          "name": "_user",
          "type": "address"
        }
      ],
      "name": "pendingLocal",
      "outputs": [
        {
          "internalType": "uint256",
          "name": "",
          "type": "uint256"
        }
      ],
      "stateMutability": "view",
      "type": "function"
    },
    {
      "inputs": [
        {
          "internalType": "uint256",
          "name": "",
          "type": "uint256"
        }
      ],
      "name": "poolInfo",
      "outputs": [
        {
          "internalType": "contract IERC20",
          "name": "lpToken",
          "type": "address"
        },
        {
          "internalType": "uint16",
          "name": "depositFeeBP",
          "type": "uint16"
        }
      ],
      "stateMutability": "view",
      "type": "function"
    },
    {
      "inputs": [],
      "name": "poolLength",
      "outputs": [
        {
          "internalType": "uint256",
          "name": "",
          "type": "uint256"
        }
      ],
      "stateMutability": "view",
      "type": "function"
    },
    {
      "inputs": [],
      "name": "renounceOwnership",
      "outputs": [],
      "stateMutability": "nonpayable",
      "type": "function"
    },
    {
      "inputs": [
        {
          "internalType": "uint256",
          "name": "_pid",
          "type": "uint256"
        },
        {
          "internalType": "uint16",
          "name": "_depositFeeBP",
          "type": "uint16"
        }
      ],
      "name": "set",
      "outputs": [],
      "stateMutability": "nonpayable",
      "type": "function"
    },
    {
      "inputs": [
        {
          "internalType": "address",
          "name": "_feeAddress",
          "type": "address"
        }
      ],
      "name": "setFeeAddress",
      "outputs": [],
      "stateMutability": "nonpayable",
      "type": "function"
    },
    {
      "inputs": [
        {
          "internalType": "contract IERC20",
          "name": "token",
          "type": "address"
        },
        {
          "internalType": "address",
          "name": "to",
          "type": "address"
        },
        {
          "internalType": "uint256",
          "name": "amount",
          "type": "uint256"
        }
      ],
      "name": "transferERC20",
      "outputs": [
        {
          "internalType": "bool",
          "name": "",
          "type": "bool"
        }
      ],
      "stateMutability": "nonpayable",
      "type": "function"
    },
    {
      "inputs": [
        {
          "internalType": "address",
          "name": "newOwner",
          "type": "address"
        }
      ],
      "name": "transferOwnership",
      "outputs": [],
      "stateMutability": "nonpayable",
      "type": "function"
    },
    {
      "inputs": [
        {
          "internalType": "uint256",
          "name": "_pid",
          "type": "uint256"
        },
        {
          "internalType": "address",
          "name": "_user",
          "type": "address"
        }
      ],
      "name": "userDoneDays",
      "outputs": [
        {
          "internalType": "uint256",
          "name": "stakedDays",
          "type": "uint256"
        }
      ],
      "stateMutability": "view",
      "type": "function"
    },
    {
      "inputs": [
        {
          "internalType": "uint256",
          "name": "",
          "type": "uint256"
        },
        {
          "internalType": "address",
          "name": "",
          "type": "address"
        }
      ],
      "name": "userInfo",
      "outputs": [
        {
          "internalType": "uint256",
          "name": "amount",
          "type": "uint256"
        },
        {
          "internalType": "uint256",
          "name": "rewardDebt",
          "type": "uint256"
        },
        {
          "internalType": "uint256",
          "name": "doneDays",
          "type": "uint256"
        },
        {
          "internalType": "uint256",
          "name": "stakedDays",
          "type": "uint256"
        }
      ],
      "stateMutability": "view",
      "type": "function"
    },
    {
      "inputs": [
        {
          "internalType": "uint256",
          "name": "_pid",
          "type": "uint256"
        },
        {
          "internalType": "address",
          "name": "_user",
          "type": "address"
        }
      ],
      "name": "userStakedDays",
      "outputs": [
        {
          "internalType": "uint256",
          "name": "lockedDays",
          "type": "uint256"
        }
      ],
      "stateMutability": "view",
      "type": "function"
    },
    {
      "inputs": [
        {
          "internalType": "uint256",
          "name": "_pid",
          "type": "uint256"
        },
        {
          "internalType": "uint256",
          "name": "_amount",
          "type": "uint256"
        }
      ],
      "name": "withdraw",
      "outputs": [],
      "stateMutability": "nonpayable",
      "type": "function"
    }
  ],
  "bytecode": "0x60806040523480156200001157600080fd5b506040516200364d3803806200364d833981810160405260408110156200003757600080fd5b810190808051906020019092919080519060200190929190505050600062000064620002c060201b60201c565b9050806000806101000a81548173ffffffffffffffffffffffffffffffffffffffff021916908373ffffffffffffffffffffffffffffffffffffffff1602179055508073ffffffffffffffffffffffffffffffffffffffff16600073ffffffffffffffffffffffffffffffffffffffff167f8be0079c531659141344cd1fd0a4f28419497f9722a3daafe3b4186f6b6457e060405160405180910390a35081600160006101000a81548173ffffffffffffffffffffffffffffffffffffffff021916908373ffffffffffffffffffffffffffffffffffffffff16021790555080600260006101000a81548173ffffffffffffffffffffffffffffffffffffffff021916908373ffffffffffffffffffffffffffffffffffffffff160217905550600660056000603c815260200190815260200160002081905550600960056000605a81526020019081526020016000208190555060466005600061016881526020019081526020016000208190555060036040518060400160405280600160009054906101000a900473ffffffffffffffffffffffffffffffffffffffff1673ffffffffffffffffffffffffffffffffffffffff168152602001600061ffff168152509080600181540180825580915050600190039060005260206000200160009091909190915060008201518160000160006101000a81548173ffffffffffffffffffffffffffffffffffffffff021916908373ffffffffffffffffffffffffffffffffffffffff16021790555060208201518160000160146101000a81548161ffff021916908361ffff16021790555050505050620002c8565b600033905090565b61337580620002d86000396000f3fe608060405234801561001057600080fd5b506004361061014c5760003560e01c80636e774844116100c35780639db5dbe41161007c5780639db5dbe4146105a1578063a1c26daa14610625578063a7268a18146106a8578063b1d17d851461070a578063b7cff4cc1461097e578063f2fde38b146109e05761014c565b80636e77484414610428578063715018a61461048a5780638705fcd4146104945780638aa28550146104d85780638da5cb5b146104f657806393f1a40b1461052a5761014c565b80631526fe27116101155780631526fe271461027957806326b0e572146102dc57806328340cff1461031e5780634127535814610380578063441a3e70146103b4578063530d3e07146103ec5761014c565b8062aeef8a14610151578063018bbf9c14610193578063081e3eda146101e55780630e944529146102035780630f166ad414610245575b600080fd5b6101916004803603606081101561016757600080fd5b81019080803590602001909291908035906020019092919080359060200190929190505050610a24565b005b6101e3600480360360408110156101a957600080fd5b81019080803573ffffffffffffffffffffffffffffffffffffffff169060200190929190803561ffff169060200190929190505050610e5f565b005b6101ed61104c565b6040518082815260200191505060405180910390f35b61022f6004803603602081101561021957600080fd5b8101908080359060200190929190505050611059565b6040518082815260200191505060405180910390f35b61024d6110e9565b604051808273ffffffffffffffffffffffffffffffffffffffff16815260200191505060405180910390f35b6102a56004803603602081101561028f57600080fd5b810190808035906020019092919050505061110f565b604051808373ffffffffffffffffffffffffffffffffffffffff1681526020018261ffff1681526020019250505060405180910390f35b610308600480360360208110156102f257600080fd5b810190808035906020019092919050505061116a565b6040518082815260200191505060405180910390f35b61036a6004803603604081101561033457600080fd5b8101908080359060200190929190803573ffffffffffffffffffffffffffffffffffffffff169060200190929190505050611182565b6040518082815260200191505060405180910390f35b6103886112b3565b604051808273ffffffffffffffffffffffffffffffffffffffff16815260200191505060405180910390f35b6103ea600480360360408110156103ca57600080fd5b8101908080359060200190929190803590602001909291905050506112d9565b005b6104266004803603604081101561040257600080fd5b8101908080359060200190929190803561ffff1690602001909291905050506115f6565b005b6104886004803603608081101561043e57600080fd5b81019080803573ffffffffffffffffffffffffffffffffffffffff169060200190929190803590602001909291908035906020019092919080359060200190929190505050611756565b005b610492611aa9565b005b6104d6600480360360208110156104aa57600080fd5b81019080803573ffffffffffffffffffffffffffffffffffffffff169060200190929190505050611c2f565b005b6104e0611d36565b6040518082815260200191505060405180910390f35b6104fe611d3b565b604051808273ffffffffffffffffffffffffffffffffffffffff16815260200191505060405180910390f35b6105766004803603604081101561054057600080fd5b8101908080359060200190929190803573ffffffffffffffffffffffffffffffffffffffff169060200190929190505050611d64565b6040518085815260200184815260200183815260200182815260200194505050505060405180910390f35b61060d600480360360608110156105b757600080fd5b81019080803573ffffffffffffffffffffffffffffffffffffffff169060200190929190803573ffffffffffffffffffffffffffffffffffffffff16906020019092919080359060200190929190505050611da1565b60405180821515815260200191505060405180910390f35b61067b6004803603606081101561063b57600080fd5b8101908080359060200190929190803573ffffffffffffffffffffffffffffffffffffffff16906020019092919080359060200190929190505050612040565b60405180858152602001848152602001838152602001821515815260200194505050505060405180910390f35b6106f4600480360360408110156106be57600080fd5b8101908080359060200190929190803573ffffffffffffffffffffffffffffffffffffffff1690602001909291905050506120ef565b6040518082815260200191505060405180910390f35b61097c6004803603608081101561072057600080fd5b810190808035906020019064010000000081111561073d57600080fd5b82018360208201111561074f57600080fd5b8035906020019184602083028401116401000000008311171561077157600080fd5b919080806020026020016040519081016040528093929190818152602001838360200280828437600081840152601f19601f820116905080830192505050505050509192919290803590602001906401000000008111156107d157600080fd5b8201836020820111156107e357600080fd5b8035906020019184602083028401116401000000008311171561080557600080fd5b919080806020026020016040519081016040528093929190818152602001838360200280828437600081840152601f19601f8201169050808301925050505050505091929192908035906020019064010000000081111561086557600080fd5b82018360208201111561087757600080fd5b8035906020019184602083028401116401000000008311171561089957600080fd5b919080806020026020016040519081016040528093929190818152602001838360200280828437600081840152601f19601f820116905080830192505050505050509192919290803590602001906401000000008111156108f957600080fd5b82018360208201111561090b57600080fd5b8035906020019184602083028401116401000000008311171561092d57600080fd5b919080806020026020016040519081016040528093929190818152602001838360200280828437600081840152601f19601f8201169050808301925050505050505091929192905050506121b8565b005b6109ca6004803603604081101561099457600080fd5b8101908080359060200190929190803573ffffffffffffffffffffffffffffffffffffffff1690602001909291905050506126ee565b6040518082815260200191505060405180910390f35b610a22600480360360208110156109f657600080fd5b81019080803573ffffffffffffffffffffffffffffffffffffffff16906020019092919050505061279d565b005b600060038481548110610a3357fe5b90600052602060002001905060006004600086815260200190815260200160002060003373ffffffffffffffffffffffffffffffffffffffff1673ffffffffffffffffffffffffffffffffffffffff1681526020019081526020016000209050600081600001541115610bd6576000429050600080600090505b8360040180549050811015610bbe576000846004018281548110610acd57fe5b906000526020600020906005020190508060040160009054906101000a900460ff1615610afa5750610bb1565b8060020154841115610baf57600081600301549050610b61610b52610b3f6064610b318587600001546129a890919063ffffffff16565b6129e290919063ffffffff16565b8460000154612a0890919063ffffffff16565b85612a0890919063ffffffff16565b935060018260040160006101000a81548160ff02191690831515021790555060008260000181905550610ba582600001548760000154612a2790919063ffffffff16565b8660000181905550505b505b8080600101915050610aad565b506000811115610bd357610bd23382612a93565b5b50505b6000841115610e0957610c303330868560000160009054906101000a900473ffffffffffffffffffffffffffffffffffffffff1673ffffffffffffffffffffffffffffffffffffffff16612d0c909392919063ffffffff16565b600084905060008360000160149054906101000a900461ffff1661ffff161115610d1d576000610c93612710610c858660000160149054906101000a900461ffff1661ffff16896129a890919063ffffffff16565b6129e290919063ffffffff16565b9050610d06600260009054906101000a900473ffffffffffffffffffffffffffffffffffffffff16828660000160009054906101000a900473ffffffffffffffffffffffffffffffffffffffff1673ffffffffffffffffffffffffffffffffffffffff16612dcd9092919063ffffffff16565b610d198183612a2790919063ffffffff16565b9150505b610d34818360000154612a0890919063ffffffff16565b8260000181905550816004016040518060a00160405280838152602001428152602001610d6f62015180880242612a0890919063ffffffff16565b8152602001600560008881526020019081526020016000205481526020016000151581525090806001815401808255809150506001900390600052602060002090600502016000909190919091506000820151816000015560208201518160010155604082015181600201556060820151816003015560808201518160040160006101000a81548160ff0219169083151502179055505050505b843373ffffffffffffffffffffffffffffffffffffffff167f90890809c654f11d6e72a28fa60149770a0d11ec6c92319d6ceb2bb0a4ea1a15866040518082815260200191505060405180910390a35050505050565b610e67612e6f565b73ffffffffffffffffffffffffffffffffffffffff1660008054906101000a900473ffffffffffffffffffffffffffffffffffffffff1673ffffffffffffffffffffffffffffffffffffffff1614610f27576040517f08c379a00000000000000000000000000000000000000000000000000000000081526004018080602001828103825260208152602001807f4f776e61626c653a2063616c6c6572206973206e6f7420746865206f776e657281525060200191505060405180910390fd5b6127108161ffff161115610f86576040517f08c379a00000000000000000000000000000000000000000000000000000000081526004018080602001828103825260258152602001806132576025913960400191505060405180910390fd5b600360405180604001604052808473ffffffffffffffffffffffffffffffffffffffff1681526020018361ffff168152509080600181540180825580915050600190039060005260206000200160009091909190915060008201518160000160006101000a81548173ffffffffffffffffffffffffffffffffffffffff021916908373ffffffffffffffffffffffffffffffffffffffff16021790555060208201518160000160146101000a81548161ffff021916908361ffff16021790555050505050565b6000600380549050905090565b6000603c821015801561106c5750605a82105b1561108d5760056000603c81526020019081526020016000205490506110e4565b605a821015801561109f575061016882105b156110c05760056000605a81526020019081526020016000205490506110e3565b61016882106110e2576005600061016881526020019081526020016000205490505b5b5b919050565b600160009054906101000a900473ffffffffffffffffffffffffffffffffffffffff1681565b6003818154811061111c57fe5b906000526020600020016000915090508060000160009054906101000a900473ffffffffffffffffffffffffffffffffffffffff16908060000160149054906101000a900461ffff16905082565b60056020528060005260406000206000915090505481565b6000806004600085815260200190815260200160002060008473ffffffffffffffffffffffffffffffffffffffff1673ffffffffffffffffffffffffffffffffffffffff1681526020019081526020016000209050600080826000015411156112a857600042905060005b83600401805490508110156112a557600084600401828154811061120d57fe5b906000526020600020906005020190508060040160009054906101000a900460ff161561123a5750611298565b8060020154831115611296576000816003015490508160000154945061129261128360646112758486600001546129a890919063ffffffff16565b6129e290919063ffffffff16565b86612a0890919063ffffffff16565b9450505b505b80806001019150506111ed565b50505b809250505092915050565b600260009054906101000a900473ffffffffffffffffffffffffffffffffffffffff1681565b60006004600084815260200190815260200160002060003373ffffffffffffffffffffffffffffffffffffffff1673ffffffffffffffffffffffffffffffffffffffff168152602001908152602001600020905081816000015410156113a7576040517f08c379a00000000000000000000000000000000000000000000000000000000081526004018080602001828103825260128152602001807f77697468647261773a206e6f7420676f6f64000000000000000000000000000081525060200191505060405180910390fd5b6000816000015411156115f1576000429050600080600080600090505b856004018054905081101561153a5760008660040182815481106113e457fe5b906000526020600020906005020190508060040160009054906101000a900460ff1615611411575061152d565b80600201548611611422575061152d565b600081600301549050611442826000015486612a0890919063ffffffff16565b94508885116114b557611487611478606461146a8486600001546129a890919063ffffffff16565b6129e290919063ffffffff16565b87612a0890919063ffffffff16565b955060018260040160006101000a81548160ff0219169083151502179055506000826000018190555061152a565b6114c88986612a2790919063ffffffff16565b935061151861150960646114fb846114ed898860000154612a2790919063ffffffff16565b6129a890919063ffffffff16565b6129e290919063ffffffff16565b87612a0890919063ffffffff16565b9550838260000181905550505061153a565b50505b80806001019150506113c4565b50600083116115b1576040517f08c379a000000000000000000000000000000000000000000000000000000000815260040180806020018281038252601b8152602001807f66756e6473207374696c6c20696e206c6f636b20706572696f642e000000000081525060200191505060405180910390fd5b6115c8868660000154612a2790919063ffffffff16565b85600001819055506115ec336115e78589612a0890919063ffffffff16565b612a93565b505050505b505050565b6115fe612e6f565b73ffffffffffffffffffffffffffffffffffffffff1660008054906101000a900473ffffffffffffffffffffffffffffffffffffffff1673ffffffffffffffffffffffffffffffffffffffff16146116be576040517f08c379a00000000000000000000000000000000000000000000000000000000081526004018080602001828103825260208152602001807f4f776e61626c653a2063616c6c6572206973206e6f7420746865206f776e657281525060200191505060405180910390fd5b6127108161ffff16111561171d576040517f08c379a00000000000000000000000000000000000000000000000000000000081526004018080602001828103825260258152602001806132f16025913960400191505060405180910390fd5b806003838154811061172b57fe5b9060005260206000200160000160146101000a81548161ffff021916908361ffff1602179055505050565b61175e612e6f565b73ffffffffffffffffffffffffffffffffffffffff1660008054906101000a900473ffffffffffffffffffffffffffffffffffffffff1673ffffffffffffffffffffffffffffffffffffffff161461181e576040517f08c379a00000000000000000000000000000000000000000000000000000000081526004018080602001828103825260208152602001807f4f776e61626c653a2063616c6c6572206973206e6f7420746865206f776e657281525060200191505060405180910390fd5b60006004600080815260200190815260200160002060008673ffffffffffffffffffffffffffffffffffffffff1673ffffffffffffffffffffffffffffffffffffffff1681526020019081526020016000209050611889848260000154612a0890919063ffffffff16565b81600001819055506118a8838260020154612a0890919063ffffffff16565b81600201819055506118c7828260030154612a0890919063ffffffff16565b8160030181905550818311156119a757806004016040518060a0016040528086815260200161190462015180870242612a2790919063ffffffff16565b8152602001428152602001600560008681526020019081526020016000205481526020016000151581525090806001815401808255809150506001900390600052602060002090600502016000909190919091506000820151816000015560208201518160010155604082015181600201556060820151816003015560808201518160040160006101000a81548160ff0219169083151502179055505050611aa2565b60006119bc8484612a2790919063ffffffff16565b9050816004016040518060a001604052808781526020016119eb62015180880242612a2790919063ffffffff16565b8152602001611a0862015180850242612a0890919063ffffffff16565b8152602001600560008781526020019081526020016000205481526020016000151581525090806001815401808255809150506001900390600052602060002090600502016000909190919091506000820151816000015560208201518160010155604082015181600201556060820151816003015560808201518160040160006101000a81548160ff0219169083151502179055505050505b5050505050565b611ab1612e6f565b73ffffffffffffffffffffffffffffffffffffffff1660008054906101000a900473ffffffffffffffffffffffffffffffffffffffff1673ffffffffffffffffffffffffffffffffffffffff1614611b71576040517f08c379a00000000000000000000000000000000000000000000000000000000081526004018080602001828103825260208152602001807f4f776e61626c653a2063616c6c6572206973206e6f7420746865206f776e657281525060200191505060405180910390fd5b600073ffffffffffffffffffffffffffffffffffffffff1660008054906101000a900473ffffffffffffffffffffffffffffffffffffffff1673ffffffffffffffffffffffffffffffffffffffff167f8be0079c531659141344cd1fd0a4f28419497f9722a3daafe3b4186f6b6457e060405160405180910390a360008060006101000a81548173ffffffffffffffffffffffffffffffffffffffff021916908373ffffffffffffffffffffffffffffffffffffffff160217905550565b600260009054906101000a900473ffffffffffffffffffffffffffffffffffffffff1673ffffffffffffffffffffffffffffffffffffffff163373ffffffffffffffffffffffffffffffffffffffff1614611cf2576040517f08c379a00000000000000000000000000000000000000000000000000000000081526004018080602001828103825260188152602001807f736574466565416464726573733a20464f5242494444454e000000000000000081525060200191505060405180910390fd5b80600260006101000a81548173ffffffffffffffffffffffffffffffffffffffff021916908373ffffffffffffffffffffffffffffffffffffffff16021790555050565b600181565b60008060009054906101000a900473ffffffffffffffffffffffffffffffffffffffff16905090565b6004602052816000526040600020602052806000526040600020600091509150508060000154908060010154908060020154908060030154905084565b6000611dab612e6f565b73ffffffffffffffffffffffffffffffffffffffff1660008054906101000a900473ffffffffffffffffffffffffffffffffffffffff1673ffffffffffffffffffffffffffffffffffffffff1614611e6b576040517f08c379a00000000000000000000000000000000000000000000000000000000081526004018080602001828103825260208152602001807f4f776e61626c653a2063616c6c6572206973206e6f7420746865206f776e657281525060200191505060405180910390fd5b60008473ffffffffffffffffffffffffffffffffffffffff166370a08231306040518263ffffffff1660e01b8152600401808273ffffffffffffffffffffffffffffffffffffffff16815260200191505060206040518083038186803b158015611ed457600080fd5b505afa158015611ee8573d6000803e3d6000fd5b505050506040513d6020811015611efe57600080fd5b8101908080519060200190929190505050905080831115611f87576040517f08c379a000000000000000000000000000000000000000000000000000000000815260040180806020018281038252600e8152602001807f62616c616e6365206973206c6f7700000000000000000000000000000000000081525060200191505060405180910390fd5b8473ffffffffffffffffffffffffffffffffffffffff1663a9059cbb85856040518363ffffffff1660e01b8152600401808373ffffffffffffffffffffffffffffffffffffffff16815260200182815260200192505050602060405180830381600087803b158015611ff857600080fd5b505af115801561200c573d6000803e3d6000fd5b505050506040513d602081101561202257600080fd5b81019080805190602001909291905050505060019150509392505050565b60008060008060006004600089815260200190815260200160002060008873ffffffffffffffffffffffffffffffffffffffff1673ffffffffffffffffffffffffffffffffffffffff168152602001908152602001600020905060008160040187815481106120ab57fe5b906000526020600020906005020190508060000154816002015482600301548360040160009054906101000a900460ff169550955095509550505093509350935093565b6000806004600085815260200190815260200160002060008473ffffffffffffffffffffffffffffffffffffffff1673ffffffffffffffffffffffffffffffffffffffff168152602001908152602001600020905061219781600401858154811061215657fe5b90600052602060002090600502016001015482600401868154811061217757fe5b906000526020600020906005020160020154612a2790919063ffffffff16565b91506121af62015180836129e290919063ffffffff16565b91505092915050565b6121c0612e6f565b73ffffffffffffffffffffffffffffffffffffffff1660008054906101000a900473ffffffffffffffffffffffffffffffffffffffff1673ffffffffffffffffffffffffffffffffffffffff1614612280576040517f08c379a00000000000000000000000000000000000000000000000000000000081526004018080602001828103825260208152602001807f4f776e61626c653a2063616c6c6572206973206e6f7420746865206f776e657281525060200191505060405180910390fd5b82518451146122f7576040517f08c379a00000000000000000000000000000000000000000000000000000000081526004018080602001828103825260188152602001807f646966666572656e74206c656e677468206f66206c697374000000000000000081525060200191505060405180910390fd5b815184511461236e576040517f08c379a00000000000000000000000000000000000000000000000000000000081526004018080602001828103825260188152602001807f646966666572656e74206c656e677468206f66206c697374000000000000000081525060200191505060405180910390fd5b80518451146123e5576040517f08c379a00000000000000000000000000000000000000000000000000000000081526004018080602001828103825260188152602001807f646966666572656e74206c656e677468206f66206c697374000000000000000081525060200191505060405180910390fd5b60005b84518110156126e75760008582815181106123ff57fe5b6020026020010151905060006004600080815260200190815260200160002060008373ffffffffffffffffffffffffffffffffffffffff1673ffffffffffffffffffffffffffffffffffffffff1681526020019081526020016000209050600086848151811061246b57fe5b60200260200101519050600086858151811061248357fe5b60200260200101519050600086868151811061249b57fe5b602002602001015190506124bc838560000154612a0890919063ffffffff16565b84600001819055506124db828560020154612a0890919063ffffffff16565b84600201819055506124fa818560030154612a0890919063ffffffff16565b8460030181905550808211156125da57836004016040518060a0016040528085815260200161253762015180860242612a2790919063ffffffff16565b8152602001428152602001600560008581526020019081526020016000205481526020016000151581525090806001815401808255809150506001900390600052602060002090600502016000909190919091506000820151816000015560208201518160010155604082015181600201556060820151816003015560808201518160040160006101000a81548160ff02191690831515021790555050506126d5565b60006125ef8383612a2790919063ffffffff16565b9050846004016040518060a0016040528086815260200161261e62015180870242612a2790919063ffffffff16565b815260200161263b62015180850242612a0890919063ffffffff16565b8152602001600560008681526020019081526020016000205481526020016000151581525090806001815401808255809150506001900390600052602060002090600502016000909190919091506000820151816000015560208201518160010155604082015181600201556060820151816003015560808201518160040160006101000a81548160ff0219169083151502179055505050505b505050505080806001019150506123e8565b5050505050565b6000806004600085815260200190815260200160002060008473ffffffffffffffffffffffffffffffffffffffff1673ffffffffffffffffffffffffffffffffffffffff1681526020019081526020016000209050600081600401858154811061275457fe5b9060005260206000209060050201905061277b816001015442612a2790919063ffffffff16565b925061279362015180846129e290919063ffffffff16565b9250505092915050565b6127a5612e6f565b73ffffffffffffffffffffffffffffffffffffffff1660008054906101000a900473ffffffffffffffffffffffffffffffffffffffff1673ffffffffffffffffffffffffffffffffffffffff1614612865576040517f08c379a00000000000000000000000000000000000000000000000000000000081526004018080602001828103825260208152602001807f4f776e61626c653a2063616c6c6572206973206e6f7420746865206f776e657281525060200191505060405180910390fd5b600073ffffffffffffffffffffffffffffffffffffffff168173ffffffffffffffffffffffffffffffffffffffff1614156128eb576040517f08c379a000000000000000000000000000000000000000000000000000000000815260040180806020018281038252602681526020018061327c6026913960400191505060405180910390fd5b8073ffffffffffffffffffffffffffffffffffffffff1660008054906101000a900473ffffffffffffffffffffffffffffffffffffffff1673ffffffffffffffffffffffffffffffffffffffff167f8be0079c531659141344cd1fd0a4f28419497f9722a3daafe3b4186f6b6457e060405160405180910390a3806000806101000a81548173ffffffffffffffffffffffffffffffffffffffff021916908373ffffffffffffffffffffffffffffffffffffffff16021790555050565b6000808314156129bb57600090506129dc565b60008284029050828482816129cc57fe5b04146129d757600080fd5b809150505b92915050565b60008082116129f057600080fd5b60008284816129fb57fe5b0490508091505092915050565b600080828401905083811015612a1d57600080fd5b8091505092915050565b600082821115612a82576040517f08c379a00000000000000000000000000000000000000000000000000000000081526004018080602001828103825260298152602001806132a26029913960400191505060405180910390fd5b600082840390508091505092915050565b6000600160009054906101000a900473ffffffffffffffffffffffffffffffffffffffff1673ffffffffffffffffffffffffffffffffffffffff166370a08231306040518263ffffffff1660e01b8152600401808273ffffffffffffffffffffffffffffffffffffffff16815260200191505060206040518083038186803b158015612b1e57600080fd5b505afa158015612b32573d6000803e3d6000fd5b505050506040513d6020811015612b4857600080fd5b8101908080519060200190929190505050905080821115612c3757600160009054906101000a900473ffffffffffffffffffffffffffffffffffffffff1673ffffffffffffffffffffffffffffffffffffffff1663a9059cbb84836040518363ffffffff1660e01b8152600401808373ffffffffffffffffffffffffffffffffffffffff16815260200182815260200192505050602060405180830381600087803b158015612bf657600080fd5b505af1158015612c0a573d6000803e3d6000fd5b505050506040513d6020811015612c2057600080fd5b810190808051906020019092919050505050612d07565b600160009054906101000a900473ffffffffffffffffffffffffffffffffffffffff1673ffffffffffffffffffffffffffffffffffffffff1663a9059cbb84846040518363ffffffff1660e01b8152600401808373ffffffffffffffffffffffffffffffffffffffff16815260200182815260200192505050602060405180830381600087803b158015612cca57600080fd5b505af1158015612cde573d6000803e3d6000fd5b505050506040513d6020811015612cf457600080fd5b8101908080519060200190929190505050505b505050565b612dc7846323b872dd60e01b858585604051602401808473ffffffffffffffffffffffffffffffffffffffff1681526020018373ffffffffffffffffffffffffffffffffffffffff1681526020018281526020019350505050604051602081830303815290604052907bffffffffffffffffffffffffffffffffffffffffffffffffffffffff19166020820180517bffffffffffffffffffffffffffffffffffffffffffffffffffffffff8381831617835250505050612e77565b50505050565b612e6a8363a9059cbb60e01b8484604051602401808373ffffffffffffffffffffffffffffffffffffffff16815260200182815260200192505050604051602081830303815290604052907bffffffffffffffffffffffffffffffffffffffffffffffffffffffff19166020820180517bffffffffffffffffffffffffffffffffffffffffffffffffffffffff8381831617835250505050612e77565b505050565b600033905090565b6060612ed9826040518060400160405280602081526020017f5361666545524332303a206c6f772d6c6576656c2063616c6c206661696c65648152508573ffffffffffffffffffffffffffffffffffffffff16612f669092919063ffffffff16565b9050600081511115612f6157808060200190516020811015612efa57600080fd5b8101908080519060200190929190505050612f60576040517f08c379a000000000000000000000000000000000000000000000000000000000815260040180806020018281038252602a815260200180613316602a913960400191505060405180910390fd5b5b505050565b6060612f758484600085612f7e565b90509392505050565b606082471015612fd9576040517f08c379a00000000000000000000000000000000000000000000000000000000081526004018080602001828103825260268152602001806132cb6026913960400191505060405180910390fd5b600060608673ffffffffffffffffffffffffffffffffffffffff1685876040518082805190602001908083835b602083106130295780518252602082019150602081019050602083039250613006565b6001836020036101000a03801982511681845116808217855250505050505090500191505060006040518083038185875af1925050503d806000811461308b576040519150601f19603f3d011682016040523d82523d6000602084013e613090565b606091505b50915091506130a1878383876130ad565b92505050949350505050565b606083156131435760008351141561313b576130c885613156565b61313a576040517f08c379a000000000000000000000000000000000000000000000000000000000815260040180806020018281038252601d8152602001807f416464726573733a2063616c6c20746f206e6f6e2d636f6e747261637400000081525060200191505060405180910390fd5b5b82905061314e565b61314d83836131a1565b5b949350505050565b60008060007fc5d2460186f7233c927e7db2dcc703c0e500b653ca82273b7bfad8045d85a47060001b9050833f915080821415801561319857506000801b8214155b92505050919050565b6000825111156131b45781518083602001fd5b806040517f08c379a00000000000000000000000000000000000000000000000000000000081526004018080602001828103825283818151815260200191508051906020019080838360005b8381101561321b578082015181840152602081019050613200565b50505050905090810190601f1680156132485780820380516001836020036101000a031916815260200191505b509250505060405180910390fdfe6164643a20696e76616c6964206465706f7369742066656520626173697320706f696e74734f776e61626c653a206e6577206f776e657220697320746865207a65726f20616464726573735361666545524332303a2064656372656173656420616c6c6f77616e63652062656c6f77207a65726f416464726573733a20696e73756666696369656e742062616c616e636520666f722063616c6c7365743a20696e76616c6964206465706f7369742066656520626173697320706f696e74735361666545524332303a204552433230206f7065726174696f6e20646964206e6f742073756363656564a2646970667358221220525d7950b520716dfd7f05d3efa715bb1084e63f28f62c74591b23864ab49d0864736f6c634300060c0033",
  "linkReferences": {},
  "deployedLinkReferences": {}
}