{
  "_format": "hh-sol-artifact-1",
  "contractName": "Staking_pool",
  "sourceName": "contracts/Staking_pool.sol",
  "abi": [
    {
      "inputs": [
        {
          "internalType": "contract MeacToken",
          "name": "_local",
          "type": "address"
        },
        {
          "internalType": "address",
          "name": "_feeAddress",
          "type": "address"
        }
      ],
      "stateMutability": "nonpayable",
      "type": "constructor"
    },
    {
      "anonymous": false,
      "inputs": [
        {
          "indexed": true,
          "internalType": "address",
          "name": "user",
          "type": "address"
        },
        {
          "indexed": true,
          "internalType": "uint256",
          "name": "pid",
          "type": "uint256"
        },
        {
          "indexed": false,
          "internalType": "uint256",
          "name": "amount",
          "type": "uint256"
        }
      ],
      "name": "Deposit",
      "type": "event"
    },
    {
      "anonymous": false,
      "inputs": [
        {
          "indexed": true,
          "internalType": "address",
          "name": "user",
          "type": "address"
        },
        {
          "indexed": true,
          "internalType": "uint256",
          "name": "pid",
          "type": "uint256"
        },
        {
          "indexed": false,
          "internalType": "uint256",
          "name": "amount",
          "type": "uint256"
        }
      ],
      "name": "EmergencyWithdraw",
      "type": "event"
    },
    {
      "anonymous": false,
      "inputs": [
        {
          "indexed": true,
          "internalType": "address",
          "name": "previousOwner",
          "type": "address"
        },
        {
          "indexed": true,
          "internalType": "address",
          "name": "newOwner",
          "type": "address"
        }
      ],
      "name": "OwnershipTransferred",
      "type": "event"
    },
    {
      "anonymous": false,
      "inputs": [
        {
          "indexed": true,
          "internalType": "address",
          "name": "user",
          "type": "address"
        },
        {
          "indexed": true,
          "internalType": "uint256",
          "name": "pid",
          "type": "uint256"
        },
        {
          "indexed": false,
          "internalType": "uint256",
          "name": "amount",
          "type": "uint256"
        }
      ],
      "name": "Withdraw",
      "type": "event"
    },
    {
      "inputs": [
        {
          "internalType": "uint256",
          "name": "_pid",
          "type": "uint256"
        },
        {
          "internalType": "address",
          "name": "account",
          "type": "address"
        },
        {
          "internalType": "uint256",
          "name": "index",
          "type": "uint256"
        }
      ],
      "name": "AuserRewardInfo",
      "outputs": [
        {
          "internalType": "uint256",
          "name": "",
          "type": "uint256"
        },
        {
          "internalType": "uint256",
          "name": "",
          "type": "uint256"
        },
        {
          "internalType": "uint256",
          "name": "",
          "type": "uint256"
        },
        {
          "internalType": "bool",
          "name": "",
          "type": "bool"
        }
      ],
      "stateMutability": "view",
      "type": "function"
    },
    {
      "inputs": [],
      "name": "BONUS_MULTIPLIER",
      "outputs": [
        {
          "internalType": "uint256",
          "name": "",
          "type": "uint256"
        }
      ],
      "stateMutability": "view",
      "type": "function"
    },
    {
      "inputs": [
        {
          "internalType": "contract IERC20",
          "name": "_MeaceToken",
          "type": "address"
        },
        {
          "internalType": "uint16",
          "name": "_depositFeeBP",
          "type": "uint16"
        }
      ],
      "name": "add",
      "outputs": [],
      "stateMutability": "nonpayable",
      "type": "function"
    },
    {
      "inputs": [
        {
          "internalType": "address",
          "name": "_walletAddress",
          "type": "address"
        },
        {
          "internalType": "uint256",
          "name": "_amount",
          "type": "uint256"
        },
        {
          "internalType": "uint256",
          "name": "_doneDays",
          "type": "uint256"
        },
        {
          "internalType": "uint256",
          "name": "_stakedDays",
          "type": "uint256"
        }
      ],
      "name": "addOldUser",
      "outputs": [],
      "stateMutability": "nonpayable",
      "type": "function"
    },
    {
      "inputs": [
        {
          "internalType": "address[]",
          "name": "_walletAddresses",
          "type": "address[]"
        },
        {
          "internalType": "uint256[]",
          "name": "amounts",
          "type": "uint256[]"
        },
        {
          "internalType": "uint256[]",
          "name": "doneDaysList",
          "type": "uint256[]"
        },
        {
          "internalType": "uint256[]",
          "name": "stakedDaysList",
          "type": "uint256[]"
        }
      ],
      "name": "addOldUsers",
      "outputs": [],
      "stateMutability": "nonpayable",
      "type": "function"
    },
    {
      "inputs": [
        {
          "internalType": "uint256",
          "name": "",
          "type": "uint256"
        }
      ],
      "name": "bonusRateForTime",
      "outputs": [
        {
          "internalType": "uint256",
          "name": "",
          "type": "uint256"
        }
      ],
      "stateMutability": "view",
      "type": "function"
    },
    {
      "inputs": [
        {
          "internalType": "uint256",
          "name": "_pid",
          "type": "uint256"
        },
        {
          "internalType": "uint256",
          "name": "_amount",
          "type": "uint256"
        },
        {
          "internalType": "uint256",
          "name": "_days",
          "type": "uint256"
        }
      ],
      "name": "deposit",
      "outputs": [],
      "stateMutability": "nonpayable",
      "type": "function"
    },
    {
      "inputs": [],
      "name": "feeAddress",
      "outputs": [
        {
          "internalType": "address",
          "name": "",
          "type": "address"
        }
      ],
      "stateMutability": "view",
      "type": "function"
    },
    {
      "inputs": [
        {
          "internalType": "uint256",
          "name": "_days",
          "type": "uint256"
        }
      ],
      "name": "getBonusRateFromLockedDate",
      "outputs": [
        {
          "internalType": "uint256",
          "name": "bonusRate",
          "type": "uint256"
        }
      ],
      "stateMutability": "view",
      "type": "function"
    },
    {
      "inputs": [],
      "name": "local",
      "outputs": [
        {
          "internalType": "contract MeacToken",
          "name": "",
          "type": "address"
        }
      ],
      "stateMutability": "view",
      "type": "function"
    },
    {
      "inputs": [],
      "name": "owner",
      "outputs": [
        {
          "internalType": "address",
          "name": "",
          "type": "address"
        }
      ],
      "stateMutability": "view",
      "type": "function"
    },
    {
      "inputs": [
        {
          "internalType": "uint256",
          "name": "_pid",
          "type": "uint256"
        },
        {
          "internalType": "address",
          "name": "_user",
          "type": "address"
        }
      ],
      "name": "pendingMEAC",
      "outputs": [
        {
          "internalType": "uint256",
          "name": "",
          "type": "uint256"
        }
      ],
      "stateMutability": "view",
      "type": "function"
    },
    {
      "inputs": [
        {
          "internalType": "uint256",
          "name": "",
          "type": "uint256"
        }
      ],
      "name": "poolInfo",
      "outputs": [
        {
          "internalType": "contract IERC20",
          "name": "MeaceToken",
          "type": "address"
        },
        {
          "internalType": "uint16",
          "name": "depositFeeBP",
          "type": "uint16"
        }
      ],
      "stateMutability": "view",
      "type": "function"
    },
    {
      "inputs": [],
      "name": "poolLength",
      "outputs": [
        {
          "internalType": "uint256",
          "name": "",
          "type": "uint256"
        }
      ],
      "stateMutability": "view",
      "type": "function"
    },
    {
      "inputs": [],
      "name": "renounceOwnership",
      "outputs": [],
      "stateMutability": "nonpayable",
      "type": "function"
    },
    {
      "inputs": [
        {
          "internalType": "uint256",
          "name": "_pid",
          "type": "uint256"
        },
        {
          "internalType": "uint16",
          "name": "_depositFeeBP",
          "type": "uint16"
        }
      ],
      "name": "set",
      "outputs": [],
      "stateMutability": "nonpayable",
      "type": "function"
    },
    {
      "inputs": [
        {
          "internalType": "address",
          "name": "_feeAddress",
          "type": "address"
        }
      ],
      "name": "setFeeAddress",
      "outputs": [],
      "stateMutability": "nonpayable",
      "type": "function"
    },
    {
      "inputs": [
        {
          "internalType": "contract IERC20",
          "name": "token",
          "type": "address"
        },
        {
          "internalType": "address",
          "name": "to",
          "type": "address"
        },
        {
          "internalType": "uint256",
          "name": "amount",
          "type": "uint256"
        }
      ],
      "name": "transferERC20",
      "outputs": [
        {
          "internalType": "bool",
          "name": "",
          "type": "bool"
        }
      ],
      "stateMutability": "nonpayable",
      "type": "function"
    },
    {
      "inputs": [
        {
          "internalType": "address",
          "name": "newOwner",
          "type": "address"
        }
      ],
      "name": "transferOwnership",
      "outputs": [],
      "stateMutability": "nonpayable",
      "type": "function"
    },
    {
      "inputs": [
        {
          "internalType": "uint256",
          "name": "_pid",
          "type": "uint256"
        },
        {
          "internalType": "address",
          "name": "_user",
          "type": "address"
        }
      ],
      "name": "userDoneDays",
      "outputs": [
        {
          "internalType": "uint256",
          "name": "stakedDays",
          "type": "uint256"
        }
      ],
      "stateMutability": "view",
      "type": "function"
    },
    {
      "inputs": [
        {
          "internalType": "uint256",
          "name": "",
          "type": "uint256"
        },
        {
          "internalType": "address",
          "name": "",
          "type": "address"
        }
      ],
      "name": "userInfo",
      "outputs": [
        {
          "internalType": "uint256",
          "name": "amount",
          "type": "uint256"
        },
        {
          "internalType": "uint256",
          "name": "rewardDebt",
          "type": "uint256"
        },
        {
          "internalType": "uint256",
          "name": "doneDays",
          "type": "uint256"
        },
        {
          "internalType": "uint256",
          "name": "stakedDays",
          "type": "uint256"
        }
      ],
      "stateMutability": "view",
      "type": "function"
    },
    {
      "inputs": [
        {
          "internalType": "uint256",
          "name": "_pid",
          "type": "uint256"
        },
        {
          "internalType": "address",
          "name": "_user",
          "type": "address"
        }
      ],
      "name": "userStakedDays",
      "outputs": [
        {
          "internalType": "uint256",
          "name": "lockedDays",
          "type": "uint256"
        }
      ],
      "stateMutability": "view",
      "type": "function"
    },
    {
      "inputs": [
        {
          "internalType": "uint256",
          "name": "_pid",
          "type": "uint256"
        },
        {
          "internalType": "uint256",
          "name": "_amount",
          "type": "uint256"
        }
      ],
      "name": "withdraw",
      "outputs": [],
      "stateMutability": "nonpayable",
      "type": "function"
    }
  ],
  "bytecode": "0x608060405234801561001057600080fd5b506040516125123803806125128339818101604052604081101561003357600080fd5b50805160209091015160006100466101a7565b600080546001600160a01b0319166001600160a01b0383169081178255604051929350917f8be0079c531659141344cd1fd0a4f28419497f9722a3daafe3b4186f6b6457e0908290a350600180546001600160a01b03199081166001600160a01b0394851617808355600280548316948616949094179093556005602090815260067f251d9ec284fd981039307083734139a5137ee1b6185374514892855fcbc5bd9d5560097faadf04b4a1bf84e121ab68e5c1cffab5aeb9be1a024ff9944a2a0bc1674866095560467f5464d34515fb195718451914a9b5e2c4ac04dce5fd392ea5e3f190355ea2fb7e55604080518082019091529385168452600090840181815260038054948501815590915292517fc2575a0e9e593c00f959f8c92f12db2869c3395a3b0502d05e2516446f71f85b9092018054935193909116919093161761ffff60a01b1916600160a01b61ffff909216919091021790556101ab565b3390565b612358806101ba6000396000f3fe608060405234801561001057600080fd5b506004361061018c5760003560e01c80636e774844116100e35780639db5dbe41161008c578063b1d17d8511610066578063b1d17d85146104bd578063b7cff4cc146106ec578063f2fde38b146107185761018c565b80639db5dbe4146103ed578063a1c26daa14610437578063a7268a18146104915761018c565b80638aa28550116100bd5780638aa285501461038b5780638da5cb5b1461039357806393f1a40b1461039b5761018c565b80636e77484414610325578063715018a61461035d5780638705fcd4146103655761018c565b80631526fe2711610145578063441a3e701161011f578063441a3e70146102af578063530d3e07146102d25780635b3d0b96146102f95761018c565b80631526fe271461024757806326b0e5721461028a57806341275358146102a75761018c565b8063081e3eda11610176578063081e3eda146101ec5780630e944529146102065780630f166ad4146102235761018c565b8062aeef8a14610191578063018bbf9c146101bc575b600080fd5b6101ba600480360360608110156101a757600080fd5b508035906020810135906040013561073e565b005b6101ba600480360360408110156101d257600080fd5b5080356001600160a01b0316906020013561ffff166109af565b6101f4610b0d565b60408051918252519081900360200190f35b6101f46004803603602081101561021c57600080fd5b5035610b13565b61022b610be3565b604080516001600160a01b039092168252519081900360200190f35b6102646004803603602081101561025d57600080fd5b5035610bf2565b604080516001600160a01b03909316835261ffff90911660208301528051918290030190f35b6101f4600480360360208110156102a057600080fd5b5035610c25565b61022b610c37565b6101ba600480360360408110156102c557600080fd5b5080359060200135610c46565b6101ba600480360360408110156102e857600080fd5b508035906020013561ffff16610e37565b6101f46004803603604081101561030f57600080fd5b50803590602001356001600160a01b0316610f1f565b6101ba6004803603608081101561033b57600080fd5b506001600160a01b038135169060208101359060408101359060600135610fda565b6101ba611228565b6101ba6004803603602081101561037b57600080fd5b50356001600160a01b03166112e9565b6101f4611377565b61022b61137c565b6103c7600480360360408110156103b157600080fd5b50803590602001356001600160a01b031661138b565b604080519485526020850193909352838301919091526060830152519081900360800190f35b6104236004803603606081101561040357600080fd5b506001600160a01b038135811691602081013590911690604001356113bd565b604080519115158252519081900360200190f35b6104696004803603606081101561044d57600080fd5b508035906001600160a01b036020820135169060400135611589565b6040805194855260208501939093528383019190915215156060830152519081900360800190f35b6101f4600480360360408110156104a757600080fd5b50803590602001356001600160a01b03166115fb565b6101ba600480360360808110156104d357600080fd5b8101906020810181356401000000008111156104ee57600080fd5b82018360208201111561050057600080fd5b8035906020019184602083028401116401000000008311171561052257600080fd5b919080806020026020016040519081016040528093929190818152602001838360200280828437600092019190915250929594936020810193503591505064010000000081111561057257600080fd5b82018360208201111561058457600080fd5b803590602001918460208302840111640100000000831117156105a657600080fd5b91908080602002602001604051908101604052809392919081815260200183836020028082843760009201919091525092959493602081019350359150506401000000008111156105f657600080fd5b82018360208201111561060857600080fd5b8035906020019184602083028401116401000000008311171561062a57600080fd5b919080806020026020016040519081016040528093929190818152602001838360200280828437600092019190915250929594936020810193503591505064010000000081111561067a57600080fd5b82018360208201111561068c57600080fd5b803590602001918460208302840111640100000000831117156106ae57600080fd5b919080806020026020016040519081016040528093929190818152602001838360200280828437600092019190915250929550611681945050505050565b6101f46004803603604081101561070257600080fd5b50803590602001356001600160a01b0316611a59565b6101ba6004803603602081101561072e57600080fd5b50356001600160a01b0316611acc565b60006003848154811061074d57fe5b60009182526020808320878452600482526040808520338652909252922080549190920192501561084657426000805b600484015481101561083257600084600401828154811061079a57fe5b60009182526020909120600590910201600481015490915060ff16156107c0575061082a565b80600201548411156108285760038101548154610801906107fa906107f2906064906107ec9086611be3565b90611c11565b845490611c33565b8590611c33565b60048301805460ff19166001179055600080845587549195506108249190611c45565b8655505b505b60010161077d565b508015610843576108433382611c8c565b50505b8315610971578154610863906001600160a01b0316333087611e2e565b81548490600160a01b900461ffff16156108c757825460009061089a90612710906107ec908990600160a01b900461ffff16611be3565b60025485549192506108b9916001600160a01b03908116911683611ebc565b6108c38282611c45565b9150505b81546108d39082611c33565b82556040805160a0810182528281524260208201819052600485019282019061090190620151808902611c33565b8152600087815260056020818152604080842054828601529384018390528554600180820188559684529281902085519390920290910191825583015193810193909355810151600283015560608101516003830155608001516004909101805460ff1916911515919091179055505b604080518581529051869133917f90890809c654f11d6e72a28fa60149770a0d11ec6c92319d6ceb2bb0a4ea1a159181900360200190a35050505050565b6109b7611f23565b6000546001600160a01b03908116911614610a19576040805162461bcd60e51b815260206004820181905260248201527f4f776e61626c653a2063616c6c6572206973206e6f7420746865206f776e6572604482015290519081900360640190fd5b6127108161ffff161115610a5e5760405162461bcd60e51b815260040180806020018281038252602581526020018061223a6025913960400191505060405180910390fd5b604080518082019091526001600160a01b03928316815261ffff918216602082019081526003805460018101825560009190915291517fc2575a0e9e593c00f959f8c92f12db2869c3395a3b0502d05e2516446f71f85b90920180549151909316600160a01b027fffffffffffffffffffff0000ffffffffffffffffffffffffffffffffffffffff9290941673ffffffffffffffffffffffffffffffffffffffff199091161716919091179055565b60035490565b6000603c8210158015610b265750605a82105b15610b5d5750603c60005260056020527f251d9ec284fd981039307083734139a5137ee1b6185374514892855fcbc5bd9d54610bde565b605a8210158015610b6f575061016882105b15610ba65750605a60005260056020527faadf04b4a1bf84e121ab68e5c1cffab5aeb9be1a024ff9944a2a0bc16748660954610bde565b6101688210610bde575061016860005260056020527f5464d34515fb195718451914a9b5e2c4ac04dce5fd392ea5e3f190355ea2fb7e545b919050565b6001546001600160a01b031681565b60038181548110610bff57fe5b6000918252602090912001546001600160a01b0381169150600160a01b900461ffff1682565b60056020526000908152604090205481565b6002546001600160a01b031681565b600082815260046020908152604080832033845290915290208054821115610cb5576040805162461bcd60e51b815260206004820152601260248201527f77697468647261773a206e6f7420676f6f640000000000000000000000000000604482015290519081900360640190fd5b805415610e32574260008080805b6004860154811015610db6576000866004018281548110610ce057fe5b60009182526020909120600590910201600481015490915060ff1615610d065750610dae565b80600201548611610d175750610dae565b60038101548154610d29908690611c33565b9450888511610d6a578154610d5090610d49906064906107ec9085611be3565b8790611c33565b60048301805460ff19166001179055600083559550610dab565b610d74858a611c45565b9350610d9f610d4960646107ec84610d99898860000154611c4590919063ffffffff16565b90611be3565b91849055509350610db6565b50505b600101610cc3565b5060008311610e0c576040805162461bcd60e51b815260206004820152601b60248201527f66756e6473207374696c6c20696e206c6f636b20706572696f642e0000000000604482015290519081900360640190fd5b8454610e189087611c45565b8555610e2d33610e288886611c33565b611c8c565b505050505b505050565b610e3f611f23565b6000546001600160a01b03908116911614610ea1576040805162461bcd60e51b815260206004820181905260248201527f4f776e61626c653a2063616c6c6572206973206e6f7420746865206f776e6572604482015290519081900360640190fd5b6127108161ffff161115610ee65760405162461bcd60e51b81526004018080602001828103825260258152602001806122d46025913960400191505060405180910390fd5b8060038381548110610ef457fe5b9060005260206000200160000160146101000a81548161ffff021916908361ffff1602179055505050565b60008281526004602090815260408083206001600160a01b038516845290915281208054829015610fd0574260005b6004840154811015610fcd576000846004018281548110610f6b57fe5b60009182526020909120600590910201600481015490915060ff1615610f915750610fc5565b8060020154831115610fc357600381015481549450610fbf610fb860646107ec8885611be3565b8690611c33565b9450505b505b600101610f4e565b50505b9150505b92915050565b610fe2611f23565b6000546001600160a01b03908116911614611044576040805162461bcd60e51b815260206004820181905260248201527f4f776e61626c653a2063616c6c6572206973206e6f7420746865206f776e6572604482015290519081900360640190fd5b6001600160a01b03841660009081527f17ef568e3e12ab5b9c7254a8d58478811de00f9e6eb34345acd53bf8fd09d3ec6020526040902080546110879085611c33565b815560028101546110989084611c33565b600282015560038101546110ac9083611c33565b60038201558183111561116257806004016040518060a001604052808681526020016110e686620151800242611c4590919063ffffffff16565b8152426020808301919091526000868152600580835260408083205481860152606094850183905286546001808201895597845292849020865193909202909101918255918401519481019490945582015160028401558101516003830155608001516004909101805460ff1916911515919091179055611221565b600061116e8385611c45565b9050816004016040518060a0016040528087815260200161119d87620151800242611c4590919063ffffffff16565b81526020016111b142620151808602611c33565b8152600086815260056020818152604080842054828601529384018390528554600180820188559684529281902085519390920290910191825583015193810193909355810151600283015560608101516003830155608001516004909101805460ff1916911515919091179055505b5050505050565b611230611f23565b6000546001600160a01b03908116911614611292576040805162461bcd60e51b815260206004820181905260248201527f4f776e61626c653a2063616c6c6572206973206e6f7420746865206f776e6572604482015290519081900360640190fd5b600080546040516001600160a01b03909116907f8be0079c531659141344cd1fd0a4f28419497f9722a3daafe3b4186f6b6457e0908390a36000805473ffffffffffffffffffffffffffffffffffffffff19169055565b6002546001600160a01b03163314611348576040805162461bcd60e51b815260206004820152601860248201527f736574466565416464726573733a20464f5242494444454e0000000000000000604482015290519081900360640190fd5b6002805473ffffffffffffffffffffffffffffffffffffffff19166001600160a01b0392909216919091179055565b600181565b6000546001600160a01b031690565b600460209081526000928352604080842090915290825290208054600182015460028301546003909301549192909184565b60006113c7611f23565b6000546001600160a01b03908116911614611429576040805162461bcd60e51b815260206004820181905260248201527f4f776e61626c653a2063616c6c6572206973206e6f7420746865206f776e6572604482015290519081900360640190fd5b6000846001600160a01b03166370a08231306040518263ffffffff1660e01b815260040180826001600160a01b0316815260200191505060206040518083038186803b15801561147857600080fd5b505afa15801561148c573d6000803e3d6000fd5b505050506040513d60208110156114a257600080fd5b50519050808311156114fb576040805162461bcd60e51b815260206004820152600e60248201527f62616c616e6365206973206c6f77000000000000000000000000000000000000604482015290519081900360640190fd5b846001600160a01b031663a9059cbb85856040518363ffffffff1660e01b815260040180836001600160a01b0316815260200182815260200192505050602060405180830381600087803b15801561155257600080fd5b505af1158015611566573d6000803e3d6000fd5b505050506040513d602081101561157c57600080fd5b5060019695505050505050565b60008381526004602081815260408084206001600160a01b038716855290915282209081018054839283928392839190889081106115c357fe5b60009182526020909120600590910201805460028201546003830154600490930154919c909b5091995060ff16975095505050505050565b60008281526004602081815260408084206001600160a01b03861685529091528220908101805461167291908690811061163157fe5b90600052602060002090600502016001015482600401868154811061165257fe5b906000526020600020906005020160020154611c4590919063ffffffff16565b9150610fd08262015180611c11565b611689611f23565b6000546001600160a01b039081169116146116eb576040805162461bcd60e51b815260206004820181905260248201527f4f776e61626c653a2063616c6c6572206973206e6f7420746865206f776e6572604482015290519081900360640190fd5b8251845114611741576040805162461bcd60e51b815260206004820152601860248201527f646966666572656e74206c656e677468206f66206c6973740000000000000000604482015290519081900360640190fd5b8151845114611797576040805162461bcd60e51b815260206004820152601860248201527f646966666572656e74206c656e677468206f66206c6973740000000000000000604482015290519081900360640190fd5b80518451146117ed576040805162461bcd60e51b815260206004820152601860248201527f646966666572656e74206c656e677468206f66206c6973740000000000000000604482015290519081900360640190fd5b60005b845181101561122157600085828151811061180757fe5b6020908102919091018101516001600160a01b03811660009081527f17ef568e3e12ab5b9c7254a8d58478811de00f9e6eb34345acd53bf8fd09d3ec909252604082208751919350919087908590811061185d57fe5b60200260200101519050600086858151811061187557fe5b60200260200101519050600086868151811061188d57fe5b602002602001015190506118ae838560000154611c3390919063ffffffff16565b845560028401546118bf9083611c33565b600285015560038401546118d39082611c33565b60038501558082111561198957836004016040518060a0016040528085815260200161190d85620151800242611c4590919063ffffffff16565b8152426020808301919091526000858152600580835260408083205481860152606094850183905286546001808201895597845292849020865193909202909101918255918401519481019490945582015160028401558101516003830155608001516004909101805460ff1916911515919091179055611a48565b60006119958284611c45565b9050846004016040518060a001604052808681526020016119c486620151800242611c4590919063ffffffff16565b81526020016119d842620151808602611c33565b8152600085815260056020818152604080842054828601529384018390528554600180820188559684529281902085519390920290910191825583015193810193909355810151600283015560608101516003830155608001516004909101805460ff1916911515919091179055505b5050600190930192506117f0915050565b60008281526004602081815260408084206001600160a01b03861685529091528220908101805483919086908110611a8d57fe5b90600052602060002090600502019050611ab4816001015442611c4590919063ffffffff16565b9250611ac38362015180611c11565b95945050505050565b611ad4611f23565b6000546001600160a01b03908116911614611b36576040805162461bcd60e51b815260206004820181905260248201527f4f776e61626c653a2063616c6c6572206973206e6f7420746865206f776e6572604482015290519081900360640190fd5b6001600160a01b038116611b7b5760405162461bcd60e51b815260040180806020018281038252602681526020018061225f6026913960400191505060405180910390fd5b600080546040516001600160a01b03808516939216917f8be0079c531659141344cd1fd0a4f28419497f9722a3daafe3b4186f6b6457e091a36000805473ffffffffffffffffffffffffffffffffffffffff19166001600160a01b0392909216919091179055565b600082611bf257506000610fd4565b82820282848281611bff57fe5b0414611c0a57600080fd5b9392505050565b6000808211611c1f57600080fd5b6000828481611c2a57fe5b04949350505050565b600082820183811015611c0a57600080fd5b600082821115611c865760405162461bcd60e51b81526004018080602001828103825260298152602001806122856029913960400191505060405180910390fd5b50900390565b600154604080517f70a0823100000000000000000000000000000000000000000000000000000000815230600482015290516000926001600160a01b0316916370a08231916024808301926020929190829003018186803b158015611cf057600080fd5b505afa158015611d04573d6000803e3d6000fd5b505050506040513d6020811015611d1a57600080fd5b5051905080821115611dae576001546040805163a9059cbb60e01b81526001600160a01b038681166004830152602482018590529151919092169163a9059cbb9160448083019260209291908290030181600087803b158015611d7c57600080fd5b505af1158015611d90573d6000803e3d6000fd5b505050506040513d6020811015611da657600080fd5b50610e329050565b6001546040805163a9059cbb60e01b81526001600160a01b038681166004830152602482018690529151919092169163a9059cbb9160448083019260209291908290030181600087803b158015611e0457600080fd5b505af1158015611e18573d6000803e3d6000fd5b505050506040513d602081101561122157600080fd5b604080516001600160a01b0380861660248301528416604482015260648082018490528251808303909101815260849091019091526020810180517bffffffffffffffffffffffffffffffffffffffffffffffffffffffff167f23b872dd00000000000000000000000000000000000000000000000000000000179052611eb6908590611f27565b50505050565b604080516001600160a01b038416602482015260448082018490528251808303909101815260649091019091526020810180517bffffffffffffffffffffffffffffffffffffffffffffffffffffffff1663a9059cbb60e01b179052610e32908490611f27565b3390565b6060611f7c826040518060400160405280602081526020017f5361666545524332303a206c6f772d6c6576656c2063616c6c206661696c6564815250856001600160a01b0316611fd89092919063ffffffff16565b805190915015610e3257808060200190516020811015611f9b57600080fd5b5051610e325760405162461bcd60e51b815260040180806020018281038252602a8152602001806122f9602a913960400191505060405180910390fd5b6060611fe78484600085611fef565b949350505050565b6060824710156120305760405162461bcd60e51b81526004018080602001828103825260268152602001806122ae6026913960400191505060405180910390fd5b60006060866001600160a01b031685876040518082805190602001908083835b6020831061206f5780518252601f199092019160209182019101612050565b6001836020036101000a03801982511681845116808217855250505050505090500191505060006040518083038185875af1925050503d80600081146120d1576040519150601f19603f3d011682016040523d82523d6000602084013e6120d6565b606091505b50915091506120e7878383876120f2565b979650505050505050565b6060831561216157825161215a576121098561216b565b61215a576040805162461bcd60e51b815260206004820152601d60248201527f416464726573733a2063616c6c20746f206e6f6e2d636f6e7472616374000000604482015290519081900360640190fd5b5081611fe7565b611fe783836121a4565b6000813f7fc5d2460186f7233c927e7db2dcc703c0e500b653ca82273b7bfad8045d85a470818114801590611fe7575050151592915050565b8151156121b45781518083602001fd5b8060405162461bcd60e51b81526004018080602001828103825283818151815260200191508051906020019080838360005b838110156121fe5781810151838201526020016121e6565b50505050905090810190601f16801561222b5780820380516001836020036101000a031916815260200191505b509250505060405180910390fdfe6164643a20696e76616c6964206465706f7369742066656520626173697320706f696e74734f776e61626c653a206e6577206f776e657220697320746865207a65726f20616464726573735361666545524332303a2064656372656173656420616c6c6f77616e63652062656c6f77207a65726f416464726573733a20696e73756666696369656e742062616c616e636520666f722063616c6c7365743a20696e76616c6964206465706f7369742066656520626173697320706f696e74735361666545524332303a204552433230206f7065726174696f6e20646964206e6f742073756363656564a264697066735822122062f8869e41983d94d4650716f28dd5aecce4ca8a059b0c27e538ad14a5ae196e64736f6c634300060c0033",
  "linkReferences": {},
  "deployedLinkReferences": {}
}