{
  "_format": "hh-sol-artifact-1",
  "contractName": "SwapContract",
  "sourceName": "contracts/SwapContract.sol",
  "abi": [
    {
      "inputs": [
        {
          "internalType": "contract MeacToken",
          "name": "_token",
          "type": "address"
        }
      ],
      "stateMutability": "nonpayable",
      "type": "constructor"
    },
    {
      "anonymous": false,
      "inputs": [
        {
          "indexed": true,
          "internalType": "address",
          "name": "previousOwner",
          "type": "address"
        },
        {
          "indexed": true,
          "internalType": "address",
          "name": "newOwner",
          "type": "address"
        }
      ],
      "name": "OwnershipTransferred",
      "type": "event"
    },
    {
      "anonymous": false,
      "inputs": [
        {
          "indexed": false,
          "internalType": "address",
          "name": "token",
          "type": "address"
        },
        {
          "indexed": false,
          "internalType": "uint256",
          "name": "amount",
          "type": "uint256"
        }
      ],
      "name": "Recovered",
      "type": "event"
    },
    {
      "inputs": [
        {
          "internalType": "address",
          "name": "tokenAddress",
          "type": "address"
        },
        {
          "internalType": "address",
          "name": "spender",
          "type": "address"
        },
        {
          "internalType": "uint256",
          "name": "amount",
          "type": "uint256"
        }
      ],
      "name": "approve",
      "outputs": [
        {
          "internalType": "bool",
          "name": "",
          "type": "bool"
        }
      ],
      "stateMutability": "nonpayable",
      "type": "function"
    },
    {
      "inputs": [],
      "name": "claimTokens",
      "outputs": [],
      "stateMutability": "nonpayable",
      "type": "function"
    },
    {
      "inputs": [],
      "name": "depositMATICForLockToken",
      "outputs": [],
      "stateMutability": "payable",
      "type": "function"
    },
    {
      "inputs": [],
      "name": "depositMATICForUnlockToken",
      "outputs": [],
      "stateMutability": "payable",
      "type": "function"
    },
    {
      "inputs": [
        {
          "internalType": "uint256",
          "name": "amnt",
          "type": "uint256"
        }
      ],
      "name": "depositUSDCForLockToken",
      "outputs": [],
      "stateMutability": "nonpayable",
      "type": "function"
    },
    {
      "inputs": [
        {
          "internalType": "uint256",
          "name": "amnt",
          "type": "uint256"
        }
      ],
      "name": "depositUSDCForUnlockToken",
      "outputs": [],
      "stateMutability": "nonpayable",
      "type": "function"
    },
    {
      "inputs": [
        {
          "internalType": "address",
          "name": "",
          "type": "address"
        }
      ],
      "name": "depositsMATIC",
      "outputs": [
        {
          "internalType": "uint256",
          "name": "",
          "type": "uint256"
        }
      ],
      "stateMutability": "view",
      "type": "function"
    },
    {
      "inputs": [
        {
          "internalType": "address",
          "name": "",
          "type": "address"
        }
      ],
      "name": "depositsUSDC",
      "outputs": [
        {
          "internalType": "uint256",
          "name": "",
          "type": "uint256"
        }
      ],
      "stateMutability": "view",
      "type": "function"
    },
    {
      "inputs": [
        {
          "internalType": "address",
          "name": "",
          "type": "address"
        }
      ],
      "name": "deposittimes",
      "outputs": [
        {
          "internalType": "uint256",
          "name": "",
          "type": "uint256"
        }
      ],
      "stateMutability": "view",
      "type": "function"
    },
    {
      "inputs": [
        {
          "internalType": "uint256",
          "name": "maticAmount",
          "type": "uint256"
        }
      ],
      "name": "getUSDCAmount",
      "outputs": [
        {
          "internalType": "uint256",
          "name": "",
          "type": "uint256"
        }
      ],
      "stateMutability": "view",
      "type": "function"
    },
    {
      "inputs": [],
      "name": "getUSDCPerMATIC",
      "outputs": [
        {
          "internalType": "uint256",
          "name": "",
          "type": "uint256"
        }
      ],
      "stateMutability": "view",
      "type": "function"
    },
    {
      "inputs": [
        {
          "internalType": "address",
          "name": "",
          "type": "address"
        }
      ],
      "name": "lockedMETAC",
      "outputs": [
        {
          "internalType": "uint256",
          "name": "",
          "type": "uint256"
        }
      ],
      "stateMutability": "view",
      "type": "function"
    },
    {
      "inputs": [],
      "name": "minDepositAmount",
      "outputs": [
        {
          "internalType": "uint256",
          "name": "",
          "type": "uint256"
        }
      ],
      "stateMutability": "view",
      "type": "function"
    },
    {
      "inputs": [],
      "name": "owner",
      "outputs": [
        {
          "internalType": "address",
          "name": "",
          "type": "address"
        }
      ],
      "stateMutability": "view",
      "type": "function"
    },
    {
      "inputs": [
        {
          "internalType": "address",
          "name": "add",
          "type": "address"
        }
      ],
      "name": "read",
      "outputs": [
        {
          "internalType": "uint256",
          "name": "_depositMATIC",
          "type": "uint256"
        },
        {
          "internalType": "uint256",
          "name": "_depositUSDC",
          "type": "uint256"
        },
        {
          "internalType": "uint256",
          "name": "_lockedMETAC",
          "type": "uint256"
        },
        {
          "internalType": "uint256",
          "name": "_restTime",
          "type": "uint256"
        },
        {
          "internalType": "bool",
          "name": "_checkTime",
          "type": "bool"
        }
      ],
      "stateMutability": "view",
      "type": "function"
    },
    {
      "inputs": [
        {
          "internalType": "address",
          "name": "tokenAddress",
          "type": "address"
        },
        {
          "internalType": "uint256",
          "name": "tokenAmount",
          "type": "uint256"
        }
      ],
      "name": "recoverERC20",
      "outputs": [],
      "stateMutability": "nonpayable",
      "type": "function"
    },
    {
      "inputs": [
        {
          "internalType": "uint256",
          "name": "tokenAmount",
          "type": "uint256"
        }
      ],
      "name": "recoverUSDC",
      "outputs": [],
      "stateMutability": "nonpayable",
      "type": "function"
    },
    {
      "inputs": [
        {
          "internalType": "uint256",
          "name": "amount",
          "type": "uint256"
        }
      ],
      "name": "releaseFunds",
      "outputs": [],
      "stateMutability": "nonpayable",
      "type": "function"
    },
    {
      "inputs": [],
      "name": "releaseFundsAll",
      "outputs": [],
      "stateMutability": "nonpayable",
      "type": "function"
    },
    {
      "inputs": [],
      "name": "renounceOwnership",
      "outputs": [],
      "stateMutability": "nonpayable",
      "type": "function"
    },
    {
      "inputs": [],
      "name": "totalLockedMETAC",
      "outputs": [
        {
          "internalType": "uint256",
          "name": "",
          "type": "uint256"
        }
      ],
      "stateMutability": "view",
      "type": "function"
    },
    {
      "inputs": [],
      "name": "totalSwapedMATIC",
      "outputs": [
        {
          "internalType": "uint256",
          "name": "",
          "type": "uint256"
        }
      ],
      "stateMutability": "view",
      "type": "function"
    },
    {
      "inputs": [],
      "name": "totalSwapedUSDC",
      "outputs": [
        {
          "internalType": "uint256",
          "name": "",
          "type": "uint256"
        }
      ],
      "stateMutability": "view",
      "type": "function"
    },
    {
      "inputs": [],
      "name": "totallockTime",
      "outputs": [
        {
          "internalType": "uint256",
          "name": "",
          "type": "uint256"
        }
      ],
      "stateMutability": "view",
      "type": "function"
    },
    {
      "inputs": [
        {
          "internalType": "address",
          "name": "newOwner",
          "type": "address"
        }
      ],
      "name": "transferOwnership",
      "outputs": [],
      "stateMutability": "nonpayable",
      "type": "function"
    }
  ],
  "bytecode": "0x6080604052600060075562ed4e00600855622625a06009556701aa535d3d0c0000600a55600d80546001600160a01b031916730fa8781a83e46826621b3bc094ea2a0212e71b2317905534801561005557600080fd5b5060405161196e38038061196e8339818101604052602081101561007857600080fd5b50516000610084610110565b600080546001600160a01b0319166001600160a01b0383169081178255604051929350917f8be0079c531659141344cd1fd0a4f28419497f9722a3daafe3b4186f6b6457e0908290a350600180546001600160a01b039092166001600160a01b03199283161790556002805490911673d0d5e3db44de05e9f294bb0a3beeaf030de24ada179055610114565b3390565b61184b806101236000396000f3fe6080604052600436106101965760003560e01c8063817b9f97116100e1578063dcbef2f51161008a578063eaa0cb6111610064578063eaa0cb61146104d2578063eca5f75c146104fc578063f2fde38b14610511578063f6cf05991461054457610196565b8063dcbef2f514610415578063e1f21c6714610448578063e48d84831461049f57610196565b8063a087a87e116100bb578063a087a87e1461034f578063c01a33e9146103af578063d2d50d51146103e257610196565b8063817b9f97146102d05780638980f11f146102e55780638da5cb5b1461031e57610196565b806348c54b9d11610143578063645006ca1161011d578063645006ca14610291578063715018a6146102a657806374aa27c8146102bb57610196565b806348c54b9d1461023d5780634d68282f146102525780635519af1c1461027c57610196565b8063260179961161017457806326017996146101f657806326b1ad01146102205780632fb31b681461022857610196565b80630e265cb81461019b5780631fd462cd146101c257806321710131146101ec575b600080fd5b3480156101a757600080fd5b506101b061056e565b60408051918252519081900360200190f35b3480156101ce57600080fd5b506101b0600480360360208110156101e557600080fd5b5035610574565b6101f4610590565b005b34801561020257600080fd5b506101f46004803603602081101561021957600080fd5b503561067c565b6101f461084b565b34801561023457600080fd5b506101f4610945565b34801561024957600080fd5b506101f46109de565b34801561025e57600080fd5b506101f46004803603602081101561027557600080fd5b5035610b4b565b34801561028857600080fd5b506101b0610be6565b34801561029d57600080fd5b506101b0610bec565b3480156102b257600080fd5b506101f4610bf2565b3480156102c757600080fd5b506101b0610cb3565b3480156102dc57600080fd5b506101b0610d39565b3480156102f157600080fd5b506101f46004803603604081101561030857600080fd5b506001600160a01b038135169060200135610d3f565b34801561032a57600080fd5b50610333610ef7565b604080516001600160a01b039092168252519081900360200190f35b34801561035b57600080fd5b506103826004803603602081101561037257600080fd5b50356001600160a01b0316610f06565b60408051958652602086019490945284840192909252606084015215156080830152519081900360a00190f35b3480156103bb57600080fd5b506101b0600480360360208110156103d257600080fd5b50356001600160a01b0316610f87565b3480156103ee57600080fd5b506101b06004803603602081101561040557600080fd5b50356001600160a01b0316610f99565b34801561042157600080fd5b506101b06004803603602081101561043857600080fd5b50356001600160a01b0316610fab565b34801561045457600080fd5b5061048b6004803603606081101561046b57600080fd5b506001600160a01b03813581169160208101359091169060400135610fbd565b604080519115158252519081900360200190f35b3480156104ab57600080fd5b506101b0600480360360208110156104c257600080fd5b50356001600160a01b03166110b6565b3480156104de57600080fd5b506101f4600480360360208110156104f557600080fd5b50356110c8565b34801561050857600080fd5b506101b06111f4565b34801561051d57600080fd5b506101f46004803603602081101561053457600080fd5b50356001600160a01b03166111fa565b34801561055057600080fd5b506101f46004803603602081101561056757600080fd5b5035611311565b60085481565b600080610589610582610cb3565b849061147d565b9392505050565b60095461059c346114df565b10156105ef576040805162461bcd60e51b815260206004820152601960248201527f4d696e696d756d20616d6f756e7420697320322e355553444300000000000000604482015290519081900360640190fd5b60006105fa34610574565b905060006106078261151f565b336000908152600360205260409020549091506106249034611553565b3360009081526003602090815260408083209390935560059052205461064a9082611553565b3360009081526005602090815260408083209390935560069052204290556007546106759082611553565b6007555050565b6106846115ad565b6000546001600160a01b039081169116146106e6576040805162461bcd60e51b815260206004820181905260248201527f4f776e61626c653a2063616c6c6572206973206e6f7420746865206f776e6572604482015290519081900360640190fd5b600d60009054906101000a90046001600160a01b03166001600160a01b031663a9059cbb306001600160a01b0316638da5cb5b6040518163ffffffff1660e01b815260040160206040518083038186803b15801561074357600080fd5b505afa158015610757573d6000803e3d6000fd5b505050506040513d602081101561076d57600080fd5b5051604080517fffffffff0000000000000000000000000000000000000000000000000000000060e085901b1681526001600160a01b039092166004830152602482018590525160448083019260209291908290030181600087803b1580156107d557600080fd5b505af11580156107e9573d6000803e3d6000fd5b505050506040513d60208110156107ff57600080fd5b5050600d54604080516001600160a01b0390921682526020820183905280517f8c1256b8896378cd5044f80c202f9772b9d77dc85c8a6eb51967210b09bfaa289281900390910190a150565b600954610857346114df565b10156108aa576040805162461bcd60e51b815260206004820152601960248201527f4d696e696d756d20616d6f756e7420697320322e355553444300000000000000604482015290519081900360640190fd5b60006108b534610574565b905060006108c28261151f565b6001546040805163a9059cbb60e01b81523360048201526024810184905290519293506001600160a01b039091169163a9059cbb9160448082019260009290919082900301818387803b15801561091857600080fd5b505af115801561092c573d6000803e3d6000fd5b5050600b5461093e9250905034611553565b600b555050565b61094d6115ad565b6000546001600160a01b039081169116146109af576040805162461bcd60e51b815260206004820181905260248201527f4f776e61626c653a2063616c6c6572206973206e6f7420746865206f776e6572604482015290519081900360640190fd5b60405133904780156108fc02916000818181858888f193505050501580156109db573d6000803e3d6000fd5b50565b33600090815260056020526040902054610a295760405162461bcd60e51b81526004018080602001828103825260268152602001806117f06026913960400191505060405180910390fd5b610a32336115b1565b610a83576040805162461bcd60e51b815260206004820152601b60248201527f596f757220746f6b656e7320617265206c6f636b6564206e6f772e0000000000604482015290519081900360640190fd5b6001543360008181526005602052604080822054815163a9059cbb60e01b815260048101949094526024840152516001600160a01b039093169263a9059cbb92604480820193929182900301818387803b158015610ae057600080fd5b505af1158015610af4573d6000803e3d6000fd5b505033600090815260056020526040902054600754610b15935091506115fd565b60075533600090815260056020908152604080832083905560038252808320839055600482528083208390556006909152812055565b610b536115ad565b6000546001600160a01b03908116911614610bb5576040805162461bcd60e51b815260206004820181905260248201527f4f776e61626c653a2063616c6c6572206973206e6f7420746865206f776e6572604482015290519081900360640190fd5b604051339082156108fc029083906000818181858888f19350505050158015610be2573d6000803e3d6000fd5b5050565b60075481565b60095481565b610bfa6115ad565b6000546001600160a01b03908116911614610c5c576040805162461bcd60e51b815260206004820181905260248201527f4f776e61626c653a2063616c6c6572206973206e6f7420746865206f776e6572604482015290519081900360640190fd5b600080546040516001600160a01b03909116907f8be0079c531659141344cd1fd0a4f28419497f9722a3daafe3b4186f6b6457e0908390a36000805473ffffffffffffffffffffffffffffffffffffffff19169055565b600080600260009054906101000a90046001600160a01b03166001600160a01b031663feaf968c6040518163ffffffff1660e01b815260040160a06040518083038186803b158015610d0457600080fd5b505afa158015610d18573d6000803e3d6000fd5b505050506040513d60a0811015610d2e57600080fd5b506020015191505090565b600c5481565b610d476115ad565b6000546001600160a01b03908116911614610da9576040805162461bcd60e51b815260206004820181905260248201527f4f776e61626c653a2063616c6c6572206973206e6f7420746865206f776e6572604482015290519081900360640190fd5b816001600160a01b031663a9059cbb306001600160a01b0316638da5cb5b6040518163ffffffff1660e01b815260040160206040518083038186803b158015610df157600080fd5b505afa158015610e05573d6000803e3d6000fd5b505050506040513d6020811015610e1b57600080fd5b5051604080517fffffffff0000000000000000000000000000000000000000000000000000000060e085901b1681526001600160a01b039092166004830152602482018590525160448083019260209291908290030181600087803b158015610e8357600080fd5b505af1158015610e97573d6000803e3d6000fd5b505050506040513d6020811015610ead57600080fd5b5050604080516001600160a01b03841681526020810183905281517f8c1256b8896378cd5044f80c202f9772b9d77dc85c8a6eb51967210b09bfaa28929181900390910190a15050565b6000546001600160a01b031690565b6001600160a01b038116600090815260036020908152604080832054600483528184205460058452828520546006909452918420546008549194929392918291420311610f73576001600160a01b0386166000908152600660205260409020546008544291909103900391505b610f7c866115b1565b905091939590929450565b60066020526000908152604090205481565b60056020526000908152604090205481565b60036020526000908152604090205481565b6000610fc76115ad565b6000546001600160a01b03908116911614611029576040805162461bcd60e51b815260206004820181905260248201527f4f776e61626c653a2063616c6c6572206973206e6f7420746865206f776e6572604482015290519081900360640190fd5b836001600160a01b031663095ea7b384846040518363ffffffff1660e01b815260040180836001600160a01b0316815260200182815260200192505050602060405180830381600087803b15801561108057600080fd5b505af1158015611094573d6000803e3d6000fd5b505050506040513d60208110156110aa57600080fd5b50600195945050505050565b60046020526000908152604090205481565b60095481101561111f576040805162461bcd60e51b815260206004820152601960248201527f4d696e696d756d20616d6f756e7420697320322e355553444300000000000000604482015290519081900360640190fd5b600d54604080516323b872dd60e01b81523360048201523060248201526044810184905290516001600160a01b03909216916323b872dd916064808201926020929091908290030181600087803b15801561117957600080fd5b505af115801561118d573d6000803e3d6000fd5b505050506040513d60208110156111a357600080fd5b50600090506111b18261163f565b336000908152600460205260409020549091506111ce9083611553565b3360009081526004602090815260408083209390935560059052205461064a9082611553565b600b5481565b6112026115ad565b6000546001600160a01b03908116911614611264576040805162461bcd60e51b815260206004820181905260248201527f4f776e61626c653a2063616c6c6572206973206e6f7420746865206f776e6572604482015290519081900360640190fd5b6001600160a01b0381166112a95760405162461bcd60e51b81526004018080602001828103825260268152602001806117a96026913960400191505060405180910390fd5b600080546040516001600160a01b03808516939216917f8be0079c531659141344cd1fd0a4f28419497f9722a3daafe3b4186f6b6457e091a36000805473ffffffffffffffffffffffffffffffffffffffff19166001600160a01b0392909216919091179055565b600954811015611368576040805162461bcd60e51b815260206004820152601960248201527f4d696e696d756d20616d6f756e7420697320322e355553444300000000000000604482015290519081900360640190fd5b600d54604080516323b872dd60e01b81523360048201523060248201526044810184905290516001600160a01b03909216916323b872dd916064808201926020929091908290030181600087803b1580156113c257600080fd5b505af11580156113d6573d6000803e3d6000fd5b505050506040513d60208110156113ec57600080fd5b50600090506113fa8261163f565b6001546040805163a9059cbb60e01b81523360048201526024810184905290519293506001600160a01b039091169163a9059cbb9160448082019260009290919082900301818387803b15801561145057600080fd5b505af1158015611464573d6000803e3d6000fd5b5050600c546114769250905083611553565b600c555050565b60008261148c575060006114d9565b8282028284828161149957fe5b04146114d65760405162461bcd60e51b81526004018080602001828103825260218152602001806117cf6021913960400191505060405180910390fd5b90505b92915050565b6000806114f560646114ef610cb3565b9061166a565b90506000611503848361147d565b905061151781670de0b6b3a764000061166a565b949350505050565b600080611543600a546114ef670de0b6b3a76400008661147d90919063ffffffff16565b9050610589816305f5e10061166a565b6000828201838110156114d6576040805162461bcd60e51b815260206004820152601b60248201527f536166654d6174683a206164646974696f6e206f766572666c6f770000000000604482015290519081900360640190fd5b3390565b6001600160a01b03811660009081526006602052604081205481901580159061058957506008546001600160a01b03841660009081526006602052604090205401421015915050919050565b60006114d683836040518060400160405280601e81526020017f536166654d6174683a207375627472616374696f6e206f766572666c6f7700008152506116ac565b600080610589600a546114ef670de0b6b3a76400008664e8d4a510000261147d90919063ffffffff16565b60006114d683836040518060400160405280601a81526020017f536166654d6174683a206469766973696f6e206279207a65726f000000000000815250611743565b6000818484111561173b5760405162461bcd60e51b81526004018080602001828103825283818151815260200191508051906020019080838360005b838110156117005781810151838201526020016116e8565b50505050905090810190601f16801561172d5780820380516001836020036101000a031916815260200191505b509250505060405180910390fd5b505050900390565b600081836117925760405162461bcd60e51b81526020600482018181528351602484015283519092839260449091019190850190808383600083156117005781810151838201526020016116e8565b50600083858161179e57fe5b049594505050505056fe4f776e61626c653a206e6577206f776e657220697320746865207a65726f2061646472657373536166654d6174683a206d756c7469706c69636174696f6e206f766572666c6f77546865726520617265206e6f206465706f736974656420746f6b656e7320666f7220796f752ea2646970667358221220a6e17478d951dd373eb7ad27883f1b3df945ee416ee7ff5dcc069f73e4a2f99264736f6c634300060c0033",
  "linkReferences": {},
  "deployedLinkReferences": {}
}